:020000040000FA
:1000000010032020C5010000C9010000CB01000041
:1000100000000000000000000000000000000000E0
:10002000000000000000000000000000CD01000002
:100030000000000000000000CF010000D10100001E
:10004000D3010000D3010000D3010000D301000060
:10005000D3010000D3010000D3010000D301000050
:1000600000000000D3010000D301000000000000E8
:1000700000000000D3010000D3010000C1520000C5
:10008000D3010000D3010000D3010000D301000020
:10009000D3010000D30100000000000000000000B8
:1000A000D3010000D30100000000000000000000A8
:1000B000D301000000000000D3010000D3010000C4
:1000C00000F002F800F052F812A030C808382418E6
:1000D0002D18AC4201D100F049F80FCCA246AB4636
:1000E0000CA730CF2D1B083F3F197C427F1E544484
:1000F0002D090426F441641EAC4201D300F036F809
:100100000126334200D0FB1A3343984754465D46DC
:10011000DFE70000749B0000949B000000000000DB
:10012000103A02D378C878C1FAD8520701D330C840
:1001300030C101D504680C60704700000000000069
:100140007047000000000000002300240025002666
:10015000103A01D378C1FBD8520700D330C100D583
:100160000B6070471FB51FBD10B510BD00F09AF8A9
:100170001146FFF7F7FF06F0C1FC00F0B2F803B438
:10018000FFF7F2FF03BC06F005FC000070B5054662
:100190000C46164602E00FCC0FC5103E102EFAD2C8
:1001A000082E02D303CC03C5083E042E07D301CC8E
:1001B00001C5361F03E021782970641C6D1C761E72
:1001C000F9D270BD06480047FEE7FEE7FEE7FEE70E
:1001D000FEE7FEE703480449024A044B704700006B
:1001E000C100000010022020100320201002202057
:1001F00010B5044603E006F06FFC401C08D02078E0
:100200000549641C0028F6D10A2006F065FC10BDE3
:100210000020C04310BD000068002020F8B5042A6B
:100220002CD3830712D00B78491C0370401C521E3C
:1002300083070BD00B78491C0370401C521E8307A8
:1002400004D00B78491C0370401C521E8B079B0F77
:1002500005D0C91ADF002023DE1B08C90AE0FFF71A
:1002600095FFF8BD1D4608C9FD401C46B4402C430F
:1002700010C0121F042AF5D2F308C91A521EF0D476
:100280000B78491C0370401C521EEAD40B78491CA1
:100290000370401C012AE4D409780170F8BD70474E
:1002A00070477047754600F025F8AE460500694670
:1002B0005346C008C000854618B020B5FFF78AFF36
:1002C00060BCB64600260027C0C5C0C5C0C5C0C5B5
:1002D000C0C5C0C5C0C5C0C5403D490849008D4620
:1002E000704710B50446C046C0462046FFF747FF9A
:1002F00010BD00000048704708002020811E091F23
:1003000000BFFCD27047F0B582B0002A31D09123F3
:100310005B01C3180220801A0190009255420F2001
:1003200006020320DC69344227D00F18FC1E247813
:100330001C602C18022C1AD0DA6932421FD0BA1E67
:1003400012781A60019A1218032A10D0DA69324220
:1003500017D07A1E12781A60002C08D0DA6932425F
:1003600008D00A5C1A60001D2A18032ADAD1009806
:1003700000E0002080B202B0F0BDC01EFAE7801E8F
:10038000F8E7401EF6E700001B4A83580121C90325
:100390000B43835080184268120708D04268120746
:1003A00005D04268120702D042681207F3D10268F2
:1003B0008A4302607047C04610B50F4A83588021B7
:1003C0000B43835080180122D2020F231B02446882
:1003D0001C4094420BD044681C40944207D04468AF
:1003E0001C40944203D044681C409442EFD1026800
:1003F0008A43026010BDC0463812000070B50A780A
:100400000C231A400124240305196E689E43B21878
:100410006A604978072211400359934359180151E2
:1004200070BD0000F0B583B00B794A79002A2AD05C
:100430001A4A1B4C1B4F21252D01202B00D0703553
:10044000861802190092C219002B00D1882517685E
:10045000474C27407F191760576827407D19556022
:100460003568464F3D40356075683D4075600025F4
:10047000009C256065608F24E44315692540156163
:1004800055692540556101AA13718B79537109682B
:100490000191114600F008F803B0F0BD38180000D3
:1004A0005818000078180000F0B584B02E4A821861
:1004B00002923A4BC6183F4BC21800922B4BC418FD
:1004C0000A7901910D682A4F202A03920AD0254B00
:1004D000C018002A17D16B1E029A536023683B4054
:1004E000882517E0681E029A506020683840214B2A
:1004F0001843206060683840184360600120450759
:100500001D4F104608E06B08029A536023683B4079
:100510000525ED012B432360009903683B402B43E5
:1005200003603068154B1840306070681840706088
:100530000020086048608F20C04323690340236186
:100540006369034063610198407903990843BD21C1
:10055000014010680A4B0340C818801C106004B0AA
:10056000F0BDC046741800000418000070180000A8
:1005700024F93FF001040000FFFFFFCF8888FDFF52
:100580004000FFCF10B507239B041940920080184C
:10059000024A84589C436118815010BD30180000F5
:1005A00010B5029CA400001911431943014A81505F
:1005B00010BDC0465018000092008018014A8150BA
:1005C0007047C0461018000010B5012212038318AE
:1005D0000C789C604B7883508978014A815010BD1B
:1005E0000C110000B0B51122120283580124A3435C
:1005F00083508B780C881C438B882343094C1C4008
:100600008358094D1D402B1983508B79CC791C439D
:10061000097A21437E231940801842689A43511871
:100620004160B0BD18670000E798FDFF10B50122DA
:10063000120383180C789C604978815010BDF0B586
:100640008BB00293089107900020C143104650439D
:100650000190029F02E00999914272DA06910A9292
:10066000079B981A1D4682B20592481C0990089B68
:10067000181A1E4684B210462146234600F020F97F
:10068000384604F0BBFB0A98401980B2039021461B
:100690000246234600F014F9384604F0AFFB0A98EE
:1006A000801981B204910998281A85B228462A46F1
:1006B0000B4600F005F9384604F0A0FB0A98301A02
:1006C00084B2284621462A46234600F0F9F83846E7
:1006D00004F094FB099E0898301885B203982946C7
:1006E00002462B4600F0ECF8384604F087FB0799E9
:1006F000701886B2304621463246234600F0E0F8B4
:10070000384604F07BFB3046049932460B4600F035
:10071000D7F8384604F072FB0598294602462B4666
:1007200000F0CEF8384604F069FB0A9A10465043B0
:100730000699891C49430818019988428BD9521E91
:1007400089E70BB0F0BD000010B5411E0B2919D888
:100750007944097949008F440557465757575757E9
:100760003E58572A50A0FFF743FD04F0EBFB3748F3
:100770000124047060033649086006F05BFB3548CD
:10078000047010BD6C283FD138A0FFF731FD04F094
:10079000D9FB2E486C2101702D48103801214903E6
:1007A000016006F047FB2B480221017010BD39A003
:1007B000FFF71EFD04F0C6FB24480C210170012048
:1007C00040032349086023480021017006F0B8FB6C
:1007D00004F0B0FB10BD20A0FFF70AFD04F0AAFB57
:1007E0001A48092106E013A0FFF702FD04F086FB7A
:1007F000164803210170012040031549086015487F
:100800000021017006F080FB10BD1DA0FFF7F0FC79
:1008100004F098FB0D480A210170012040030C49A7
:1008200008600C480021017006F0AAFB04F082FB6E
:1008300010BDC0465B566F6963655D20434D443A09
:100840002057414B4555500D00000000BD002020B1
:10085000A0120A40BC0020205B566F6963655D20D2
:10086000434D443A2053544F500D00005B566F697E
:1008700063655D20434D443A2044414E43450D009D
:100880005B566F6963655D20434D443A2053544184
:100890004E440D005B566F6963655D20434D443ADD
:1008A000205349540D0000005B566F6963655D205D
:1008B000434D443A20464F52574152440D000000E8
:1008C000F0B585B002930092019101210A06374FDD
:1008D0003A60134603928A043A600492CE063E6060
:1008E0008D063D603C46103C26603E603D602660C3
:1008F0003E60256026603E603D6026603E6025606B
:1009000026603E603D6026603E60256026603E6059
:100910003D6026602260236004F070FA009804F0C5
:100920006DFA03983860049939603E603D60266036
:100930003E603D6026603E60256026603E603D6012
:1009400026603E60256026603E603D6026603E6019
:10095000256026603E602560266021602060019849
:1009600004F04CFA029804F049FA039838600499AC
:1009700039603E603D6026603E603D6026603E60BE
:10098000256026603E603D6026603E6025602660F2
:100990003E60256026603E603D6026603E603D60B2
:1009A00026602160206005B0F0BDC046A0120A405C
:1009B000F0B591B00523534303930E23534304939F
:1009C000D500002A16D01F23DB4312335343019076
:1009D0001C18A6B2631998B20796801B641CA4B2B7
:1009E0005B1C9BB206941F1B0023002D089303D1B0
:1009F0002C4602E00023D5E0DC430595C617FB1723
:100A0000012501280D940C9400DB0C952C467040B8
:100A10003D465D40012F00DB0D940091059C091BB4
:100A20000A91029251000991801B0F90E81A0E90D2
:100A3000089F394605E00B99491C09988142089F97
:100A400038D00A980B9140181090079E3C4603E05E
:100A50007F1CB8B2814213D3B0B210998DB229462F
:100A600002462B46FFF72CFFF84804F0C7F9002C8C
:100A700001D00C983618002C0F99E9D16418E7E7DB
:100A80000027069C3E4603E0761CB0B28142D2D3DA
:100A9000A0B2294602462B46FFF712FFEB4804F0AE
:100AA000ADF9002F01D00D982418002F0E99EBD12D
:100AB0007F18E9E7029A002A019813D006215143D2
:100AC00009188CB2059BCA1890B20894001B491CE7
:100AD0008CB2511C89B20794091B0027002B05D149
:100AE0001E4604E000230099059D5BE0FE43C2170B
:100AF000CB17012401280D9600DB0D9450400D46C4
:100B00005D40012900DB26460C96801A0F90E81AFA
:100B10000E903946069705E00B99491C09988142C9
:100B2000069F38D00A980B9140181090089E3C46BA
:100B300003E07F1CB8B2814213D3B0B210998DB2DA
:100B4000294602462B46FFF7BBFEC04804F056F983
:100B5000002C01D00D983618002C0F99E9D164189B
:100B6000E7E70027079C3E4603E0761CB0B28142CF
:100B7000D2D3A0B2294602462B46FFF7A1FEB348C6
:100B800004F03CF9002F01D00C982418002F0E9986
:100B9000EBD17F18E9E7AD4B1933029A5343009923
:100BA000059D01981B189CB204988008019004933D
:100BB0001818029080B20B900E94001BC4170346C5
:100BC00063401E1B511849198DB2039A891889B2C6
:100BD0000691491BCA170B4653409A1A0F92964228
:100BE0000996374600D80F9F0024E343069AAA428D
:100BF000039300D12346012201290C93194600DBFF
:100C00000C92019B002B01D1019B039301280398B7
:100C1000089000DB08920D911F20C00210900595EE
:100C20002A462346254603E06D1CA8B287422DD3F1
:100C30000A930E9880B291B23E4627461446024669
:100C40000B46FFF73DFE109804F0D8F80F983818BF
:100C50003746B04201DC224601E00C9962180A9E38
:100C600009997118B94204DCC41B0ADDCB1BDBDC1B
:100C70000AE014460E9A089BD2180E922246C41B14
:100C8000F4DC0446CB1BCFDC0B46CDE70498401CBC
:100C900083B20298401C80B20A90C01AC117024663
:100CA0004A40571A0F998F42089700D80F9F012882
:100CB0000398079001DB012007900024059A254640
:100CC000264603E0761CB0B2874229D309950E93DD
:100CD00098B291B2154602460B46FFF7F1FD109807
:100CE00004F08CF80F982018B84201DC2A4601E085
:100CF0000C996A180899099B5918B9420E9B04DC93
:100D0000C41B08DDCD1BDDDC08E01446079A9B18E8
:100D10002246C41BF6DC0446CD1BD3DC0D46D1E7CE
:100D20000498801C83B20298801C80B20990C01A7B
:100D3000C11702464A40571A0F998F42079700D8A9
:100D40000F9F01280398049001DB012004900024E8
:100D5000059A2546264603E0761CB0B2874229D381
:100D600008950E9398B291B2154602460B46FFF7CE
:100D7000A7FD109804F042F80F982018B84201DC43
:100D80002A4601E00C996A180799089B5918B9423C
:100D90000E9B04DCC41B08DDCD1BDDDC08E0144623
:100DA000049A9B182246C41BF6DC0446CD1BD3DCF8
:100DB0000D46D1E7069C0598001BC11702464A4024
:100DC000551A0199029A511800918AB20B9908920A
:100DD000511ACA170B4653409F1A0E95AF420497FB
:100DE00000D80E9F0122012800DB0D9201290398F3
:100DF000029000DB0292002322461C461E4603E0BE
:100E0000761CB0B2874230D307940B9880B291B26F
:100E1000144602463D461F460B46FFF751FD10980B
:100E200003F0ECFF0E9838182F46A84201DC22464A
:100E300001E00D996218079D04996918B94207DC11
:100E4000C31B0DDDCC1BDBDC0DE0C046E0FF00006A
:100E500014460B9A029BD2180B922246C31BF1DC5C
:100E60000346CC1BCCDC0C46CAE70098401C81B280
:100E70000A980B91081AC11702464A40551A0E9952
:100E80008D42049500D80E9D012803980290069883
:100E900001DB01210291002302461C461E4603E0AD
:100EA000761CB0B285422DD307940A9880B291B2D5
:100EB000144602462F461D460B46FFF701FD1098CB
:100EC00003F09CFF0E9828183D46B84201DC2246EC
:100ED00001E00D996218079F04997918A94204DC72
:100EE000431B0ADD4C1BDBDC0AE014460A9A029B1A
:100EF000D2180A922246431BF4DC03464C1BCFDC7B
:100F00000C46CDE70098801C81B209980A91081A16
:100F1000C11702464A40571A0E998F42049700D8CB
:100F20000E9F012803980290069801DB012102918F
:100F3000002302461C461E4603E0761CB0B28742E0
:100F40002DD30794099880B291B2144602463D46CB
:100F50001F460B46FFF7B4FC109803F04FFF0E98A6
:100F600038182F46A84201DC224601E00D9962188C
:100F7000079D04996918B94204DCC31B0ADDCC1B28
:100F8000DBDC0AE01446099A029BD2180992224639
:100F9000C31BF4DC0346CC1BCFDC0C46CDE7019829
:100FA00000990818009081B208980991081AC11791
:100FB00002464A40571A0F998F42049700D80F9F54
:100FC00001280398029001DB012002900023059A7A
:100FD0001C461E4603E0761CB0B287422DD3079410
:100FE000089880B291B2144602463D461F460B4611
:100FF000FFF766FC109803F001FF0F9838182F4692
:10100000A84201DC224601E00C996218079D049970
:101010006918B94204DCC31B0ADDCC1BDBDC0AE027
:101020001446089A029BD21808922246C31BF4DC8D
:101030000346CC1BCFDC0C46CDE70098401C81B2A8
:101040000B980891081AC11702464A40571A0F997F
:101050008F42049700D80F9F01280398029001DB6C
:10106000012002900023059A1C461E4603E0761CD0
:10107000B0B287422DD307940B9880B291B2144638
:1010800002463D461F460B46FFF71AFC109803F038
:10109000B5FE0F9838182F46A84201DC224601E021
:1010A0000C996218079D04996918B94204DCC31BA6
:1010B0000ADDCC1BDBDC0AE014460B9A029BD2183B
:1010C0000B922246C31BF4DC0346CC1BCFDC0C4640
:1010D000CDE70098801C81B20A980B91081AC117BD
:1010E00002464A40551A0F998D42049500D80F9D2B
:1010F00001280398029001DB012002900022134690
:10110000144603E0641CA0B285422AD307930A98D0
:1011100080B2059FB9B22E46154602460B46FFF730
:10112000CFFB109803F06AFE0F9828183546B0429E
:1011300002DD0C997F180597079E04997118A94242
:1011400004DC421B08DD4B1BDCDC08E00A9A029B36
:10115000D2180A92421BF6DC02464B1BD2DC0B462D
:10116000D0E7019800990818079080B20999401AB1
:10117000C11702464A40571A0E998F420C9700D861
:101180000E9F012803980A90069801DB01210A911D
:10119000002302461C461E4603E0761CB0B287427E
:1011A0002DD30F94099880B291B2144602463D4661
:1011B0001F460B46FFF784FB109803F01FFE0E98A6
:1011C00038182F46A84201DC224601E00D9962182A
:1011D0000F9D0C996918B94204DCC31B0ADDCC1BB6
:1011E000DBDC0AE01446099A0A9BD21809922246CF
:1011F000C31BF4DC0346CC1BCFDC0C46CDE70798C1
:10120000401C80B20899401AC11702464A40571A3A
:101210000E998F420C9700D80E9F012803980A90D0
:10122000069801DB01210A91002302461C461E4656
:1012300003E0761CB0B287422DD30F94089880B299
:1012400091B2144602463D461F460B46FFF738FB57
:10125000109803F0D3FD0E9838182F46A84201DCF1
:10126000224601E00D9962180F9D0C996918B94248
:1012700004DCC31B0ADDCC1BDBDC0AE01446089A45
:101280000A9BD21808922246C31BF4DC0346CC1BEF
:10129000CFDC0C46CDE70798801C80B20B99401A32
:1012A000C11702464A40571A0E998F420C9700D830
:1012B0000E9F012801DB01200390002213461446F3
:1012C00003E0641CA0B287422AD30F930B9880B22C
:1012D000069DA9B23E46174602460B46FFF7F0FAB6
:1012E000109803F08BFD0E9838183746B04202DD97
:1012F0000D996D1806950F9E0C997118B94204DC72
:10130000C21B08DDCB1BDCDC08E0039A0B9B9B189F
:101310000B93C21BF6DC0246CB1BD2DC0B46D0E79C
:1013200011B0F0BDF0B587B053000191C91A069114
:10133000D10004900391401A0521029251434C1CA4
:101340000027194B80B20590069886B2FAB205982C
:1013500031461D46FFF773F92B467F1CBC42F3D183
:10136000049803990818002780B20690FAB20698EC
:1013700031462B46FFF763F97F1CBC42F6D101983A
:101380000399081802998C1C002685B2049FF2B2BA
:101390001F20C30238462946FFF751F9761CB44294
:1013A000F5D107B0F0BDC046E0FF0000F0B595B044
:1013B000530001910793CF1AD10002901491411A62
:1013C00005230392534309935E1C00248DB2BFB2E0
:1013D000E2B228463946FC4BFFF731F9641CA642BD
:1013E000F6D10E210398414300910028099F00D1B6
:1013F000B7E01420039B5843F3491B315943019A2A
:101400008A18101881B20A2058430590101884B227
:101410000691601AC1170026F5430123012808959B
:101420000D9500DB0D93484092B20492A51AEA177D
:101430002C465440012D089D0C9500DB0C93401A5E
:101440001090A01A0F9002981499091808E00B9EAA
:10145000761C0A99491C07988642099F00D180E0B2
:101460000598081882B20A9188B21492801AC1179E
:1014700002464A40541A0F998C42139400D80F9C8C
:101480000B96012808980E9001DB01200E90002693
:10149000049B149A3746354603E06D1CA8B284427B
:1014A00026D31197129290B299B202461F460B466C
:1014B000FFF706FAC44803F0A1FC0F983018A042C9
:1014C00001DC3B4601E00C997B181399119A5118E5
:1014D000A14203DC129A061B05DD05E00E9A129E5E
:1014E000B218061B00DC06460F1BD6DC0F46D4E7FD
:1014F0001098139C844200D8109C0022069E13462C
:10150000154604E06D1CA8B28442129E9FD311932D
:10151000149880B2B1B22746144602460B46FFF734
:10152000CFF9A94803F06AFC109820183C46B8424D
:1015300001DD0D9976181296119F13997918A14221
:1015400004DC021B08DD0B1BDCDC08E0149A0E9B9C
:10155000D2181492021BF6DC02460B1BD2DC0B469F
:10156000D0E70720039B58430199401885B2C01962
:1015700080B20A90401BC11702464A40541A924A50
:1015800019325A430299521893B200998908059169
:1015900008925118069189B20F911293C91ACA176D
:1015A0000B4653409E1A1394A6420D960E9601D8F0
:1015B000139A0E920026F243002F0792134600D191
:1015C0003B46012201281093184600DB1092059B30
:1015D000002B01D1059B07931190012907980C90CE
:1015E00000DB0C921F20C002149009952A46334656
:1015F00035460E9F03E06D1CA8B287422AD30E9396
:10160000129880B291B2144602460B46FFF758F981
:10161000149803F0F3FB13983018B84201DC22460B
:1016200001E0109962180E9E0D997118B94204DC00
:10163000C61B0ADDCB1BDEDC0AE01446129A0C9BAB
:10164000D21812922246C61BF4DC0646CB1BD2DC13
:101650000B46D0E70898401C83B20698401C80B225
:101660000E90C01AC11702464A40571A13998F426A
:101670000C9700D8139F012807980B9001DB0120DD
:101680000B900024099A2546264603E0761CB0B24A
:10169000874229D30D95129398B291B2154602460E
:1016A0000B46FFF70DF9149803F0A8FB13982018C8
:1016B000B84201DC2A4601E010996A180C990D9B8A
:1016C0005918B942129B04DCC41B08DDCD1BDDDCBC
:1016D00008E014460B9A9B182246C41BF6DC04460D
:1016E000CD1BD3DC0D46D1E70898801C83B2069849
:1016F000801C80B20D90C01AC11702464A40571A8A
:1017000013998F420B9700D8139F012807980890D0
:1017100001DB012008900024099A2546264603E0B3
:10172000761CB0B2874229D30C95129398B291B22D
:10173000154602460B46FFF7C3F8149803F05EFB0C
:1017400013982018B84201DC2A4601E010996A1863
:101750000B990C9B5918B942129B04DCC41B08DD81
:10176000CD1BDDDC08E01446089A9B182246C41BFA
:10177000F6DC0446CD1BD3DC0D46D1E70A9C099864
:10178000001BC11702464A40551A0599069A51187E
:1017900004918AB20F990C92511ACA170B46534002
:1017A0009F1A1295AF42089700D8129F0122012874
:1017B00000DB119201290798069000DB06920023B6
:1017C00022461C461E4605E0E0FF0000761CB0B233
:1017D00087422DD30B940F9880B291B214460246E3
:1017E0003D461F460B46FFF76BF8149803F006FBC7
:1017F000129838182F46A84201DC224601E01199C0
:1018000062180B9D08996918B94204DCC31B0ADDF4
:10181000CC1BDBDC0AE014460F9A069BD2180F9211
:101820002246C31BF4DC0346CC1BCFDC0C46CDE7C1
:101830000498401C81B20E980F91081AC1170246F5
:101840004A40551A12998D42089500D8129D0128D8
:10185000079806900A9801DB0121069100230246B1
:101860001C461E4603E0761CB0B285422DD30B9475
:101870000E9880B291B2144602462F461D460B4682
:10188000FFF71EF8149803F0B9FA129828183D468D
:10189000B84201DC224601E0119962180B9F0899B9
:1018A0007918A94204DC431B0ADD4C1BDBDC0AE08F
:1018B00014460E9A069BD2180E922246431BF4DC65
:1018C00003464C1BCFDC0C46CDE70498801C81B24C
:1018D0000D980E91081AC11702464A40571A1299DC
:1018E0008F42089700D8129F0128079806900A98FF
:1018F00001DB01210691002302461C461E4603E03F
:10190000761CB0B287422DD30B940D9880B291B261
:10191000144602463D461F460B46FEF7D1FF14987B
:1019200003F06CFA129838182F46A84201DC2246C0
:1019300001E0119962180B9D08996918B94204DCFD
:10194000C31B0ADDCC1BDBDC0AE014460D9A069BA8
:10195000D2180D922246C31BF4DC0346CC1BCFDC0D
:101960000C46CDE7059804990818049081B20C98AC
:101970000D91081AC11702464A40571A13998F420F
:10198000089700D8139F01280798069001DB0120D3
:1019900006900023099A1C461E4603E0761CB0B24E
:1019A00087422DD30B940C9880B291B21446024614
:1019B0003D461F460B46FEF783FF149803F01EFAC0
:1019C000139838182F46A84201DC224601E01099EE
:1019D00062180B9D08996918B94204DCC31B0ADD23
:1019E000CC1BDBDC0AE014460C9A069BD2180C9246
:1019F0002246C31BF4DC0346CC1BCFDC0C46CDE7F0
:101A00000498401C81B20F980C91081AC117024625
:101A10004A40571A13998F42089700D8139F0128FC
:101A20000798069001DB012006900023099A1C46C6
:101A30001E4603E0761CB0B287422DD30B940F985C
:101A400080B291B2144602463D461F460B46FEF751
:101A500037FF149803F0D2F9139838182F46A8428C
:101A600001DC224601E0109962180B9D0899691863
:101A7000B94204DCC31B0ADDCC1BDBDC0AE01446E4
:101A80000F9A069BD2180F922246C31BF4DC034622
:101A9000CC1BCFDC0C46CDE70498801C81B20E989D
:101AA0000F91081AC11702464A40551A13998D42E0
:101AB000089500D8139D01280798069001DB0120A6
:101AC000069000221346144603E0641CA0B285422F
:101AD0002AD30B930E9880B2099FB9B22E461546B1
:101AE00002460B46FEF7ECFE149803F087F91398B4
:101AF00028183546B04202DD10997F1809970B9ED1
:101B000008997118A94204DC421B08DD4B1BDCDC80
:101B100008E00E9A069BD2180E92421BF6DC024693
:101B20004B1BD2DC0B46D0E70598049908180B90A4
:101B300080B20D99401AC11702464A40571A1299AD
:101B40008F42109700D8129F012807980E900A988C
:101B500001DB01210E91002302461C461E4603E0D4
:101B6000761CB0B287422DD313940D9880B291B2F7
:101B7000144602463D461F460B46FEF7A1FE14984A
:101B800003F03CF9129838182F46A84201DC22468F
:101B900001E011996218139D10996918B94204DC8B
:101BA000C31B0ADDCC1BDBDC0AE014460D9A0E9B3E
:101BB000D2180D922246C31BF4DC0346CC1BCFDCAB
:101BC0000C46CDE70B98401C80B20C99401AC11707
:101BD00002464A40571A12998F42109700D8129F16
:101BE000012807980E900A9801DB01210E9100232D
:101BF00002461C461E4603E0761CB0B287422DD337
:101C000013940C9880B291B2144602463D461F468A
:101C10000B46FEF755FE149803F0F0F812983818AA
:101C20002F46A84201DC224601E011996218139D5B
:101C300010996918B94204DCC31B0ADDCC1BDBDC3C
:101C40000AE014460C9A0E9BD2180C922246C31B33
:101C5000F4DC0346CC1BCFDC0C46CDE70B98801C94
:101C600080B20F99401AC11702464A40571A12997A
:101C70008F42109700D8129F012801DB01200790A6
:101C800000221346144603E0641CA0B287422AD304
:101C900013930F9880B20A9DA9B23E46174602469A
:101CA0000B46FEF70DFE149803F0A8F812983818AA
:101CB0003746B04202DD11996D180A95139E1099AE
:101CC0007118B94204DCC21B08DDCB1BDCDC08E068
:101CD000079A0F9B9B180F93C21BF6DC0246CB1B87
:101CE000D2DC0B46D0E715B0F0BD0000F0B591B0E6
:101CF000029104900520504300900E205043019023
:101D0000D00003900592002A00D1DBE00598000185
:101D10000499091A8BB2039E8A1990B20893C01ACB
:101D2000491C8BB2511C89B20793C91A0027002E97
:101D300001D1354600E0FD43C217CB17012401282D
:101D40000D950C9500DB0C9450400D465D4001292B
:101D500000DB0D940299891B0A91059949000991AC
:101D6000801A0F90E81A0E903946069705E00B99F5
:101D7000491C09988142069F39D00A980B91401856
:101D80001090089D3C463E4603E0761CB0B281426E
:101D900013D3A8B210998FB2394602463B46FEF7DC
:101DA0008FFDFC4803F02AF8002C01D00C982D1868
:101DB000002C0F99E9D16418E7E70026079C354607
:101DC00003E06D1CA8B28142D1D3A0B239460246CD
:101DD0003B46FEF775FDEF4803F010F8002E01D0EA
:101DE0000D982418002E0E99EBD17618E9E7059886
:101DF000002867D00498039B19188CB2CA1890B2B7
:101E00000894001B491C8CB2511C89B20794091B11
:101E10000026002B01D11F4600E0F743C217CB1765
:101E2000012401280D9700DB0D9450400D465D40C4
:101E3000012900DB27460C97801A0F90E81A0E90B4
:101E40003146069605E00B99491C09988142069E89
:101E500038D00A980B9140181090089D344603E042
:101E6000761CB0B2814213D3A8B210998FB2394612
:101E700002463B46FEF724FDC64802F0BFFF002C99
:101E800001D00D982D18002C0F99E9D16418E7E7BF
:101E90000026079C354603E06D1CA8B28142D2D3D0
:101EA000A0B2394602463B46FEF70AFDB94802F0A9
:101EB000A5FF002E01D00C982418002E0E99EBD10E
:101EC0007618E9E7059B029818180399401886B21E
:101ED0000099401880B20690801BC11702464A4004
:101EE000541AAC4A19325A430499521893B20199C0
:101EF0008908019104925118029189B20B910E93B5
:101F0000C91ACA170B4653409D1A0F94A54209954A
:101F10000A9501D80F9A0A920025EB43069AB2421D
:101F2000039300D12B46012201280C93184600DBB5
:101F30000C92019B002B01D1019B03930D90012971
:101F40000398089000DB08921F20C00210900596AD
:101F500032462B462F460A9E03E07F1CB8B28642CB
:101F60002AD30A930E9880B291B2144602460B46C9
:101F7000FEF7A6FC109802F041FF0F982818B04217
:101F800001DC224601E00C9962180A9D0999691842
:101F9000B14204DC851B0ADD8B1BDEDC0AE0144643
:101FA0000E9A089BD2180E922246851BF4DC054639
:101FB0008B1BD2DC0B46D0E70498401C83B20298FE
:101FC000401C80B20A90C01AC11702464A40571AF4
:101FD0000F998F42089700D80F9F01280398079008
:101FE000059801DB0121079100240246254626467B
:101FF00003E0761CB0B2874229D309950E9398B2BC
:1020000091B2154602460B46FEF75AFC109802F0B4
:10201000F5FE0F982018B84201DC2A4601E00C9921
:102020006A180899099B5918B9420E9B04DCC41B15
:1020300008DDCD1BDDDC08E01446079A9B1822461C
:10204000C41BF6DC0446CD1BD3DC0D46D1E7049857
:10205000801C83B20298801C80B20990C01AC117FC
:1020600002464A40571A0F998F42079700D80F9F90
:10207000012803980490059801DB012104910024B4
:1020800002462546264603E0761CB0B2874229D395
:1020900008950E9398B291B2154602460B46FEF78C
:1020A0000FFC109802F0AAFE0F982018B84201DC2D
:1020B0002A4601E00C996A180799089B5918B942F9
:1020C0000E9B04DCC41B08DDCD1BDDDC08E01446E0
:1020D000049A9B182246C41BF6DC0446CD1BD3DCB5
:1020E0000D46D1E7069C0598001BC11702464A40E1
:1020F000551A0199029A511800918AB20B990892C7
:10210000511ACA170B4653409F1A0E95AF420497B7
:1021100000D80E9F0122012800DB0D9201290398AF
:10212000029000DB0292002322461C461D4603E07B
:102130006D1CA8B287422FD307940B9880B291B23E
:10214000144602463E461F460B46FEF7B9FB109862
:1021500002F054FE0E9838183746B04201DC224691
:1021600001E00D996218079E04997118B94204DCC8
:10217000C31B0ADDCC1BDBDC0AE014460B9A029B76
:10218000D2180B922246C31BF4DC0346CC1BCFDCD7
:102190000C46CDE7E0FF00000098401C81B20A9891
:1021A0000B91081AC11702464A40571A0E998F42DE
:1021B000049700D80E9F012803980290069801DB2F
:1021C00001210291002302461C461D4603E06D1CBE
:1021D000A8B287422DD307940A9880B291B21446D0
:1021E00002463E461F460B46FEF76AFB109802F079
:1021F00005FE0E9838183746B04201DC224601E051
:102200000D996218079E04997118B94204DCC31B2A
:102210000ADDCC1BDBDC0AE014460A9A029BD218CA
:102220000A922246C31BF4DC0346CC1BCFDC0C46CF
:10223000CDE70098801C81B209980A91081AC1174D
:1022400002464A40561A0E998E42049600D80E9EB7
:10225000012803980290069801DB012102910023D6
:1022600002461C461D4603E06D1CA8B286422DD3D3
:102270000794099880B291B21446024637461E462A
:102280000B46FEF71DFB109802F0B8FD0E983018B3
:102290003E46B84201DC224601E00D996218079FD4
:1022A00004997918B14204DC831B0ADD8C1BDBDC4A
:1022B0000AE01446099A029BD21809922246831B0F
:1022C000F4DC03468C1BCFDC0C46CDE7019800996B
:1022D0000818009081B208980991081AC11702469F
:1022E0004A40561A0F998E42049600D80F9E012834
:1022F0000398029001DB012002900023059A1C46FE
:102300001D4603E06D1CA8B286422DD307940898A1
:1023100080B291B21446024637461E460B46FEF77F
:10232000CFFA109802F06AFD0F9830183E46B84276
:1023300001DC224601E00C996218079F0499791884
:10234000B14204DC831B0ADD8C1BDBDC0AE0144693
:10235000089A029BD21808922246831BF4DC03469B
:102360008C1BCFDC0C46CDE70098401C81B20B984B
:102370000891081AC11702464A40561A0F998E4210
:10238000049600D80F9E01280398029001DB0120DB
:1023900002900023059A1C461D4603E06D1CA8B25E
:1023A00086422DD307940B9880B291B21446024610
:1023B00037461E460B46FEF783FA109802F01EFDC4
:1023C0000F9830183E46B84201DC224601E00C99D5
:1023D0006218079F04997918B14204DC831B0ADD57
:1023E0008C1BDBDC0AE014460B9A029BD2180B9282
:1023F0002246831BF4DC03468C1BCFDC0C46CDE766
:102400000098801C81B20A980B91081AC1170246E5
:102410004A40571A0F998F42049700D80F9F0128FE
:102420000398029001DB012002900022134614461B
:1024300003E0641CA0B287422AD307930A9880B2B3
:10244000059EB1B23D46174602460B46FEF738FAE6
:10245000109802F0D3FC0F9838182F46A84202DDDE
:102460000C9976180596079D04996918B94204DC01
:10247000C21B08DDCB1BDCDC08E00A9A029BD218E9
:102480000A92C21BF6DC0246CB1BD2DC0B46D0E71D
:10249000019800990818079080B20999401AC1174D
:1024A00002464A40561A0E998E420C9600D80E9E4D
:1024B000012803980A90069801DB01210A91002364
:1024C00002461C461D4603E06D1CA8B286422DD371
:1024D0000F94099880B291B21446024637461E46C0
:1024E0000B46FEF7EDF9109802F088FC0E983018B4
:1024F0003E46B84201DC224601E00D9962180F9F6A
:102500000C997918B14204DC831B0ADD8C1BDBDCDF
:102510000AE01446099A0A9BD21809922246831BA4
:10252000F4DC03468C1BCFDC0C46CDE70798401C3F
:1025300080B20899401AC11702464A40561A0E99AD
:102540008E420C9600D80E9E012803980A90069899
:1025500001DB01210A91002302461C461D4603E0CF
:102560006D1CA8B286422DD30F94089880B291B208
:102570001446024637461E460B46FEF7A1F9109850
:1025800002F03CFC0E9830183E46B84201DC224670
:1025900001E00D9962180F9F0C997918B14204DC83
:1025A000831B0ADD8C1BDBDC0AE01446089A0A9BBD
:1025B000D21808922246831BF4DC03468C1BCFDC26
:1025C0000C46CDE70798801C80B20B99401AC117C2
:1025D00002464A40561A0E998E420C9600D80E9E1C
:1025E000012801DB0120039000221346144603E07A
:1025F000641CA0B286422AD30F930B9880B2069F28
:10260000B9B23546164602460B46FEF759F9109800
:1026100002F0F4FB0E9830182E46A84202DD0D9908
:102620007F1806970F9D0C996918B14204DC821B34
:1026300008DD8B1BDCDC08E0039A0B9B9B180B93DB
:10264000821BF6DC02468B1BD2DC0B46D0E711B0B6
:10265000F0BD0000F0B595B0009101900E20029001
:102660000523534350000890F34E0392002A099328
:1026700000D1BBE01420039B584331461B31594322
:10268000009A8A18101881B20A2058430590101831
:1026900084B20691601AC1170027FD430123012867
:1026A00007950D9500DB0D93484092B20492A51A50
:1026B000EA172C465440012D079D0C9500DB0C9326
:1026C000401A1090A01A0F9030460E3003994843DC
:1026D0000199411808E00B9F7F1C0A99491C089832
:1026E0008742099B00D181E00598081880B20A91C1
:1026F00089B21491401AC11702464A40551A0F99DF
:102700008D42139500D80F9D0B97012807980E90C6
:1027100001DB01200E900024049B149A26462746D4
:1027200003E07F1CB8B2854227D31196129290B273
:1027300099B2024626461C460B46FEF7C1F8BE4833
:1027400002F05CFB0F983018A84201DC234601E040
:102750000C996318119A13995118A94203DC129A23
:10276000441B05DD05E00E9A129EB218441B00DCE6
:1027700004464E1BD5DC0E46D3E71098139D8542C8
:1027800000D8109D0022069E1346144604E0641CE7
:10279000A0B28542129E9ED31193149880B2B1B21A
:1027A0002F46154602460B46FEF78AF8A24802F06D
:1027B00025FB109828183D46B84201DD0D99761882
:1027C0001296119F13997918A94204DC421B08DD67
:1027D0004B1BDCDC08E0149A0E9BD2181492421BAF
:1027E000F6DC02464B1BD2DC0B46D0E7029803997D
:1027F000484302900098089A801AC900019A8918E3
:102800005C1C00268DB287B2F2B2284639468A4B4C
:10281000FDF715FF761CB442F6D10720039B584301
:102820000099401885B2099FC01980B20A90401BD8
:10283000C11702464A40541A7F4A19325A43019935
:10284000521893B20299890805910892511806917D
:1028500089B20F911293C91ACA170B4653409E1A98
:102860001394A6420D960E9601D8139A0E92002646
:10287000F243002F0792134600D13B460122012864
:102880001093184600DB1092059B002B01D1059B8D
:1028900007931190012907980C9000DB0C921F20E0
:1028A000C002149009952A46334635460E9F03E030
:1028B0006D1CA8B287422AD30E93129880B291B2AF
:1028C000144602460B46FDF7FBFF149802F096FAF9
:1028D00013983018B84201DC224601E010996218C2
:1028E0000E9E0D997118B94204DCC61B0ADDCB1B84
:1028F000DEDC0AE01446129A0C9BD2181292224691
:10290000C61BF4DC0646CB1BD2DC0B46D0E708988E
:10291000401C83B20698401C80B20E90C01AC117AA
:1029200002464A40571A13998F420C9700D8139FBA
:10293000012807980B9001DB01200B900024099AD5
:102940002546264603E0761CB0B2874229D30D9572
:10295000129398B291B2154602460B46FDF7B0FFAE
:10296000149802F04BFA13982018B84201DC2A465A
:1029700001E010996A180C990D9B5918B942129BE5
:1029800004DCC41B08DDCD1BDDDC08E014460B9A1B
:102990009B182246C41BF6DC0446CD1BD3DC0D4637
:1029A000D1E70898801C83B20698801C80B20D90F5
:1029B000C01AC11702464A40571A13998F420B9703
:1029C00000D8139F01280798089001DB0120089088
:1029D0000024099A2546264603E0761CB0B28742B9
:1029E0002CD30C95129398B291B2154602460B4621
:1029F000FDF766FF149802F001FA13982018B84208
:102A000001DC2A4601E010996A180B990C9B5918B1
:102A1000B942129B04DCC41B08DDCD1BDDDC08E0E1
:102A20001446089A9B182246C41BF6DC0446CD1BAC
:102A3000D3DC0D46D1E7C046E0FF00000A9C0998B0
:102A4000001BC11702464A40551A0599069A5118AB
:102A500004918AB20F990C92511ACA170B4653402F
:102A60009F1A1295AF42089700D8129F01220128A1
:102A700000DB119201290798069000DB06920023E3
:102A800022461C461E4603E0761CB0B287422DD378
:102A90000B940F9880B291B2144602463D461F46F1
:102AA0000B46FDF70DFF149802F0A8F9129838189C
:102AB0002F46A84201DC224601E0119962180B9DC5
:102AC00008996918B94204DCC31B0ADDCC1BDBDCA6
:102AD0000AE014460F9A069BD2180F922246C31B97
:102AE000F4DC0346CC1BCFDC0C46CDE70498401C3D
:102AF00081B20E980F91081AC11702464A40551A22
:102B000012998D42089500D8129D012807980690C9
:102B10000A9801DB01210691002302461C461E464D
:102B200003E0761CB0B285422DD30B940E9880B290
:102B300091B2144602462F461D460B46FDF7C0FED5
:102B4000149802F05BF9129828183D46B84201DC4F
:102B5000224601E0119962180B9F08997918A94241
:102B600004DC431B0ADD4C1BDBDC0AE014460E9A36
:102B7000069BD2180E922246431BF4DC03464C1BE4
:102B8000CFDC0C46CDE70498801C81B20D980E91E5
:102B9000081AC11702464A40571A12998F420897DD
:102BA00000D8129F0128079806900A9801DB01219E
:102BB0000691002302461C461E4603E0761CB0B276
:102BC00087422DD30B940D9880B291B214460246E1
:102BD0003D461F460B46FDF773FE149802F00EF9B2
:102BE000129838182F46A84201DC224601E01199BC
:102BF00062180B9D08996918B94204DCC31B0ADDF1
:102C0000CC1BDBDC0AE014460D9A069BD2180D9211
:102C10002246C31BF4DC0346CC1BCFDC0C46CDE7BD
:102C2000059804990818049081B20C980D91081A1F
:102C3000C11702464A40571A13998F42089700D885
:102C4000139F01280798069001DB012006900023BE
:102C5000099A1C461E4603E0761CB0B287422DD36B
:102C60000B940C9880B291B2144602463D461F4622
:102C70000B46FDF725FE149802F0C0F8139838189B
:102C80002F46A84201DC224601E0109962180B9DF4
:102C900008996918B94204DCC31B0ADDCC1BDBDCD4
:102CA0000AE014460C9A069BD2180C922246C31BCB
:102CB000F4DC0346CC1BCFDC0C46CDE70498401C6B
:102CC00081B20F980C91081AC11702464A40571A50
:102CD00013998F42089700D8139F012807980690F0
:102CE00001DB012006900023099A1C461E4603E0E2
:102CF000761CB0B287422DD30B940F9880B291B25C
:102D0000144602463D461F460B46FDF7D9FD149872
:102D100002F074F8139838182F46A84201DC2246B6
:102D200001E0109962180B9D08996918B94204DCFA
:102D3000C31B0ADDCC1BDBDC0AE014460F9A069BA2
:102D4000D2180F922246C31BF4DC0346CC1BCFDC07
:102D50000C46CDE70498801C81B20E980F91081A9A
:102D6000C11702464A40551A13998D42089500D85A
:102D7000139D01280798069001DB01200690002290
:102D80001346144603E0641CA0B285422AD30B9379
:102D90000E9880B2099FB9B22E46154602460B46E0
:102DA000FDF78EFD149802F029F81398281835467F
:102DB000B04202DD10997F1809970B9E089971188F
:102DC000A94204DC421B08DD4B1BDCDC08E00E9A48
:102DD000069BD2180E92421BF6DC02464B1BD2DC3D
:102DE0000B46D0E70598049908180B9080B20D990E
:102DF000401AC11702464A40571A12998F4210973B
:102E000000D8129F012807980E900A9801DB012133
:102E10000E91002302461C461E4603E0761CB0B20B
:102E200087422DD313940D9880B291B21446024676
:102E30003D461F460B46FDF743FD149801F0DEFFAB
:102E4000129838182F46A84201DC224601E0119959
:102E50006218139D10996918B94204DCC31B0ADD7E
:102E6000CC1BDBDC0AE014460D9A0E9BD2180D92A7
:102E70002246C31BF4DC0346CC1BCFDC0C46CDE75B
:102E80000B98401C80B20C99401AC11702464A4068
:102E9000571A12998F42109700D8129F012807984D
:102EA0000E900A9801DB01210E91002302461C4678
:102EB0001E4603E0761CB0B287422DD313940C98C3
:102EC00080B291B2144602463D461F460B46FDF7BE
:102ED000F7FC149801F092FF129838182F46A84278
:102EE00001DC224601E011996218139D10996918BE
:102EF000B94204DCC31B0ADDCC1BDBDC0AE0144650
:102F00000C9A0E9BD2180C922246C31BF4DC03468B
:102F1000CC1BCFDC0C46CDE70B98801C80B20F9900
:102F2000401AC11702464A40571A12998F42109709
:102F300000D8129F012801DB0120079000221346D0
:102F4000144603E0641CA0B287422AD313930F985F
:102F500080B20A9DA9B23E46174602460B46FDF7CF
:102F6000AFFC149801F04AFF129838183746B04267
:102F700002DD11996D180A95139E10997118B942C6
:102F800004DCC21B08DDCB1BDCDC08E0079A0F9BCE
:102F90009B180F93C21BF6DC0246CB1BD2DC0B4600
:102FA000D0E715B0F0BD0000F0B59BB007910990D7
:102FB0000520504305900E20504306900A205043B0
:102FC0000F901F2008900A92002A00D183E10898F0
:102FD000C0431B300A994843079A83180F9A9818E0
:102FE00080B214254D435919019189B20D910026E3
:102FF000F143002A13910F4600D10F9F0D99421AF9
:10300000049399B202900B91401A01210128129762
:1030100000DB1291D3170F9CA54200D113960395A4
:1030200014465C40012A00DB13910A9A51000E916C
:10303000E11A1691C1174840401A1590FC480E300D
:103040005043099941180C9708E0119E761C10997D
:10305000491C0E9886420C9F00D180E00F980818FA
:1030600080B2109189B21A91401AC11702464A40A3
:10307000551A15998D42199500D8159D119601285C
:10308000149701DB0120149000240B9B1A9A26460A
:10309000274603E07F1CB8B2854227D317961892C3
:1030A00090B299B2024626461C460B46FDF708FC34
:1030B000DF4801F0A3FE15983018A84201DC234632
:1030C00001E012996318179A19995118A94203DC63
:1030D000189A441B05DD05E0149A189EB218441B8B
:1030E00000DC04464E1BD5DC0E46D3E71698199D2E
:1030F000854200D8169D00220D9E1346144604E01A
:10310000641CA0B28542189E9FD317931A9880B270
:10311000B1B22F46154602460B46FDF7D1FBC44817
:1031200001F06CFE169828183D46B84201DD13994F
:1031300076181896179F19997918A94204DC421B32
:1031400008DD4B1BDCDC08E01A9A149BD2181A929B
:10315000421BF6DC02464B1BD2DC0B46D0E70A983A
:103160000028049900D1B6E0019880B20D900026A5
:10317000F2430F9800281392174600D10F9F029830
:103180000D9A821A89B20B91401A012101281297D7
:10319000039D00DB1291D3170F9CA54200D113961B
:1031A00014465C40012A00DB1391E11A1691C11705
:1031B0004840401A15900A98C000099941180C9788
:1031C00008E0119E761C1099491C0E9886420C9FAF
:1031D00000D180E00F98081882B2109188B21A923C
:1031E000801AC11702464A40551A15998D42199501
:1031F00000D8159D11960128149701DB0120149029
:1032000000240B9B1A9A2646274603E07F1CB8B27F
:10321000854227D31796189290B299B20246264655
:103220001C460B46FDF74CFB814801F0E7FD159865
:103230003018A84201DC234601E012996318179A5E
:1032400019995118A94203DC189A441B05DD05E0C1
:10325000149A189EB218441B00DC04464E1BD5DCA1
:103260000E46D3E71698199D854200D8169D002278
:103270000D9E1346144604E0641CA0B28542189EBD
:103280009FD317931A9880B2B1B22F4615460246C3
:103290000B46FDF715FB664801F0B0FD169828189F
:1032A0003D46B84201DD139976181896179F199973
:1032B0007918A94204DC421B08DD4B1BDCDC08E06A
:1032C0001A9A149BD2181A92421BF6DC02464B1B28
:1032D000D2DC0B46D0E70A9B079818180F994018C4
:1032E00086B20599401880B21090801BC117024623
:1032F0004A40541A4E4A19325A430999521893B205
:10330000069989080B910E9251180C9189B215916A
:103310001893C91ACA170B4653409D1A1994A5420F
:103320001395149501D8199A14920025EB43109A1D
:10333000B2420D9300D12B46012201281693184664
:1033400000DB16920B9B002B01D10B9B0D9317906A
:1033500001290D98129000DB12920898C0021A9071
:103360000F9632462B462F46149E03E07F1CB8B2C0
:1033700086422AD31493189880B291B2144602461A
:103380000B46FDF79DFA1A9801F038FD1998281898
:10339000B04201DC224601E016996218149D13998F
:1033A0006918B14204DC851B0ADD8B1BDEDC0AE0F8
:1033B0001446189A129BD21818922246851BF4DCE8
:1033C00005468B1BD2DC0B46D0E70E98401C83B21F
:1033D0000C98401C80B21490C01AC11702464A4093
:1033E000571A19998F42129700D8199F01280D98E2
:1033F00011900F9801DB012111910024024625460E
:10340000264603E0761CB0B287422BD3139518935F
:1034100098B291B2154602460B46FDF751FA1A983A
:1034200001F0ECFC19982018B84203DC2A4603E0AE
:10343000E0FF000016996A181299139B5918B942B7
:10344000189B04DCC41B08DDCD1BDBDC08E0144644
:10345000119A9B182246C41BF6DC0446CD1BD1DC16
:103460000D46CFE70E98801C83B20C98801C80B26A
:103470001390C01AC11702464A40571A19998F4231
:10348000119700D8199F01280D980E900F9801DB15
:1034900001210E91002402462546264603E0761CB3
:1034A000B0B2874229D31295189398B291B21546BB
:1034B00002460B46FDF704FA1A9801F09FFC199892
:1034C0002018B84201DC2A4601E016996A181199C1
:1034D000129B5918B942189B04DCC41B08DDCD1B94
:1034E000DDDC08E014460E9A9B182246C41BF6DC6D
:1034F0000446CD1BD3DC0D46D1E7109C0F98001B72
:10350000C11702464A40551A0B990C9A51180A9154
:103510008AB215991292511ACA170B4653409F1A34
:103520001895AF420E9700D8189F0122012800DBA2
:10353000179201290D980C9000DB0C920023224673
:103540001C461D4603E06D1CA8B287422DD3119482
:10355000159880B291B2144602463E461F460B466D
:10356000FDF7AEF91A9801F049FC1898381837465B
:10357000B04201DC224601E017996218119E0E99B3
:103580007118B94204DCC31B0ADDCC1BDBDC0AE08A
:103590001446159A0C9BD21815922246C31BF4DCD4
:1035A0000346CC1BCFDC0C46CDE70A98401C81B209
:1035B00014981591081AC11702464A40571A1899CB
:1035C0008F420E9700D8189F01280D980C901098E4
:1035D00001DB01210C91002302461C461D4603E03D
:1035E0006D1CA8B287422DD31194149880B291B269
:1035F000144602463E461F460B46FDF761F91A98EF
:1036000001F0FCFB189838183746B04201DC22461E
:1036100001E017996218119E0E997118B94204DCE5
:10362000C31B0ADDCC1BDBDC0AE01446149A0C9B9E
:10363000D21814922246C31BF4DC0346CC1BCFDC09
:103640000C46CDE70A98801C81B213981491081A91
:10365000C11702464A40561A18998E420E9600D853
:10366000189E01280D980C90109801DB01210C91F7
:10367000002302461C461D4603E06D1CA8B286428C
:103680002DD31194139880B291B214460246374656
:103690001E460B46FDF714F91A9801F0AFFB189877
:1036A00030183E46B84201DC224601E01799621804
:1036B000119F0E997918B14204DC831B0ADD8C1B23
:1036C000DBDC0AE01446139A0C9BD21813922246B4
:1036D000831BF4DC03468C1BCFDC0C46CDE70B9838
:1036E0000A9908180A9081B212981391081AC11702
:1036F00002464A40561A19998E420E9600D8199ED3
:1037000001280D980C9001DB01200C9000230F9AEA
:103710001C461D4603E06D1CA8B286422DD31194B1
:10372000129880B291B21446024637461E460B46A6
:10373000FDF7C6F81A9801F061FB199830183E465B
:10374000B84201DC224601E016996218119F0E99D9
:103750007918B14204DC831B0ADD8C1BDBDC0AE038
:103760001446129A0C9BD21812922246831BF4DC48
:1037700003468C1BCFDC0C46CDE70A98401C81B277
:1037800015981291081AC11702464A40561A1999FB
:103790008E420E9600D8199E01280D980C9001DBE0
:1037A00001200C9000230F9A1C461D4603E06D1C5F
:1037B000A8B286422DD31194159880B291B21446C6
:1037C000024637461E460B46FDF77AF81A9801F076
:1037D00015FB199830183E46B84201DC224601E03C
:1037E00016996218119F0E997918B14204DC831B57
:1037F0000ADD8C1BDBDC0AE01446159A0C9BD21800
:1038000015922246831BF4DC03468C1BCFDC0C464E
:10381000CDE70A98801C81B214981591081AC11737
:1038200002464A40571A19998F420E9700D8199F9D
:1038300001280D980C9001DB01200C90002213460A
:10384000144603E0641CA0B287422AD31193149853
:1038500080B20F9EB1B23D46174602460B46FDF7B9
:103860002FF81A9801F0CAFA199838182F46A8426A
:1038700002DD169976180F96119D0E996918B942B6
:1038800004DCC21B08DDCB1BDCDC08E0149A0C9BBB
:10389000D2181492C21BF6DC0246CB1BD2DC0B46BC
:1038A000D0E70B980A990818119080B21399401A22
:1038B000C11702464A40561A18998E42169600D8E9
:1038C000189E01280D981490109801DB0121149185
:1038D000002302461C461D4603E06D1CA8B286422A
:1038E0002DD31994139880B291B2144602463746EC
:1038F0001E460B46FCF7E4FF1A9801F07FFA189871
:1039000030183E46B84201DC224601E017996218A1
:10391000199F16997918B14204DC831B0ADD8C1BB0
:10392000DBDC0AE01446139A149BD2181392224649
:10393000831BF4DC03468C1BCFDC0C46CDE71198CF
:10394000401C80B21299401AC11702464A40561ACA
:1039500018998E42169600D8189E01280D9814903A
:10396000109801DB01211491002302461C461D46DC
:1039700003E06D1CA8B286422DD31994129880B230
:1039800091B21446024637461E460B46FCF798FF96
:103990001A9801F033FA189830183E46B84201DC04
:1039A000224601E017996218199F16997918B142B9
:1039B00004DC831B0ADD8C1BDBDC0AE01446129A54
:1039C000149BD21812922246831BF4DC03468C1BF4
:1039D000CFDC0C46CDE71198801C80B21599401AB7
:1039E000C11702464A40561A18998E42169600D8B8
:1039F000189E012801DB01200D9000221346144679
:103A000003E0641CA0B286422AD31993159880B2B1
:103A1000109FB9B23546164602460B46FCF750FFDA
:103A20001A9801F0EBF9189830182E46A84202DDDA
:103A300017997F181097199D16996918B14204DCDF
:103A4000821B08DD8B1BDCDC08E00D9A159B9B18A4
:103A50001593821BF6DC02468B1BD2DC0B46D0E7AB
:103A60001BB0F0BDF0B589B0049305910446002762
:103A7000824201D1039701E0F84303900192101BA9
:103A8000012801DB01210391C1174840401A07902A
:103A90000E98089025463E4603E0761CB0B281425F
:103AA00011D3A8B2059902460B46FCF709FF089806
:103AB00001F0A4F9002F01D003982D18002F0799C9
:103AC000EBD17F18E9E7002705980499814201D1DD
:103AD000029701E0F843029005980499081A01281A
:103AE00001DB01210291C1174840401A0690059E52
:103AF0003D4603E06D1CA8B2814211D3B1B220460D
:103B000022460B46FCF7DCFE089801F077F9002FFF
:103B100001D002983618002F0699EBD17F18E9E7FB
:103B200000252E46059F03E0761CB0B2814211D3DA
:103B3000A0B2049902460B46FCF7C2FE089801F0B9
:103B40005DF9002D01D003982418002D0799EBD1C1
:103B50006D18E9E700242546019E03E06D1CA8B21C
:103B6000814211D3B9B2304632460B46FCF7A8FE6B
:103B7000089801F043F9002C01D002983F18002C5E
:103B80000699EBD16418E9E709B0F0BDF0B591B042
:103B90000025EF22284629461346FCF791FE2C46C5
:103BA0002E460027384601F029F9701CEF2E0646F4
:103BB000F7D3601CEF2C0446F2D3C34800900420D6
:103BC000EC2201461346FFF74DFF1F250095082004
:103BD000E82201461346FFF745FF012003903946CE
:103BE0000D970F9505E000200299C9070A9900D1A9
:103BF00092E0029038200843573180B2079088B293
:103C00000690394605E00499481C89B2022901460C
:103C1000E9D2142004910590014344243A4608E077
:103C2000089A521CA9A0845C09991031072A0D9F9B
:103C3000E9D0089288B209910F318AB20799069BA0
:103C4000FCF73EFE203CE0B28001A24908180C902F
:103C50003E4604E02146761C402E0D46E0D00C98EE
:103C6000805D012110900A9108404042284001F0F7
:103C7000C5F829460F250E950B97BD430D9C274689
:103C8000E9D010988007C017084001F0B7F80F99E5
:103C9000012D2746DFD010984007C017084001F0DB
:103CA000ADF80F99022D2746D5D010980007C01700
:103CB000084001F0A3F80F99032D2746CBD01098A8
:103CC000C006C017084001F099F80F99042D274647
:103CD000C1D010988006C017084001F08FF80F99E6
:103CE000052D2746B7D010984006C017084001F0B0
:103CF00085F80F99062D2746ADD00C46109840B296
:103D000000270028384600DA204601F077F8072D12
:103D1000A0D00B9F08379DE70026039831460D96EB
:103D200005E000200299C9070A9900D18FE00290AE
:103D30006C2008438B3180B2079088B206903046E1
:103D400004E00499481C89B20229EAD20490014691
:103D5000059801434C24324608E0089A521CDFA023
:103D6000845C09991031042A0D9EEAD0089288B229
:103D700009910F318AB20799069BFCF7A1FD203CFF
:103D8000E0B28001D44908180C90374602E07F1C4D
:103D9000402FE2D00C98C05D012110900A9108409C
:103DA00040421F210F91084001F028F80E9D0B960C
:103DB000B5430D9C2646EAD010988007C0170F998E
:103DC000084001F01BF8012D2646E0D0109840076E
:103DD000C0170F99084001F011F8022D2646D6D0E1
:103DE00010980007C0170F99084001F007F8032D3D
:103DF0002646CCD01098C006C0170F99084000F096
:103E0000FDFF042D2646C2D010988006C0170F99DA
:103E1000084000F0F3FF052D2646B8D01098400664
:103E2000C0170F99084000F0E9FF062D2646AED0D6
:103E30000F99109840B200260028304600DA084654
:103E400000F0DCFF072DA2D00B9E08369FE700256F
:103E500029460C950C9F06E000200399C9070390A2
:103E60000A9900D1D2E0AA200843C13180B207905C
:103E700088B20690284604E00499481C89B20229B9
:103E8000EAD204900146059801436F242A4608E0CF
:103E9000089A521C94A0845C09990C31062A0C9D46
:103EA000EAD0089288B209910B318AB20799069B31
:103EB000FCF706FD203CE0B2302141438948401820
:103EC0000B902E462C460AE0FF7F000044616E6393
:103ED000696E670086830000761C302ED8D00B9860
:103EE000805D012110900A91084040421F210F91EE
:103EF000084000F083FF5420C5430D950E946543A0
:103F0000284655388101C0B280084018C0B2162832
:103F10003C46E1D310988007C0170F99084000F085
:103F20006DFF284656308101C0B280084018C0B2EB
:103F300016283C46D0D310984007C0170F99084068
:103F400000F05CFF681C8101C0B280084018C0B25C
:103F500016283C46C0D310980007C0170F99084098
:103F600000F04CFF284654388101C0B28008401848
:103F7000C0B216283C46AFD31098C006C0170F99A0
:103F8000084000F03BFF284657308101C0B280084E
:103F90004018C0B216283C469ED310988006C01721
:103FA0000F99084000F02AFFA81C8101C0B28008C8
:103FB0004018C0B216283C468ED310984006C01751
:103FC0000F99084000F01AFF533DA801E9B2890893
:103FD0000818C0B216283C4600D27DE70F99109809
:103FE00040B200240028204600DA08460E9D08351D
:103FF00000F004FF0D9969438801C9B289080818C7
:10400000C0B2162800D267E72C4665E710251927AD
:10401000284639462A463B46FCF752FC3F204401DD
:10402000204600F0EBFEE0263046394632463B465D
:10403000FCF746FC204600F0E1FE232728463946DF
:104040002A463B46FCF73CFC204600F0D7FE3046B3
:10405000394632463B46FCF733FC204600F0CEFEA4
:104060002D27284639462A463B46FCF729FC2046A0
:1040700000F0C4FE3046394632463B46FCF720FC91
:10408000204600F0BBFE3727284639462A463B46E5
:10409000FCF716FC204600F0B1FE304639463246A9
:1040A0003B46FCF70DFC204600F0A8FE41272846C1
:1040B00039462A463B46FCF703FC204600F09EFEAC
:1040C0003046394632463B46FCF7FAFB204600F0C4
:1040D00095FE11B0F0BDC046868300004C696F6E3E
:1040E00000000000B67100006F6E204D43550000C7
:1040F000F0B583B01C4615460E46511E8AB2591EB5
:104100008BB202903146FCF7DBFB0194A64212D23F
:10411000089C04E0761CB0B2019988420BD2029848
:10412000A842F7D2029F204600F068FE7F1CB8B27A
:10413000A842F8D3EEE703B0F0BD0000F0B583B0BD
:10414000012778060290FC4D28606424204602F086
:104150009FFC2E46103E02983060204602F098FCEC
:1041600038033060204602F093FC38062860014690
:104170000190B80428600290FC062C60BF062F60F6
:1041800034602C602F6034602C602F6034602C60B1
:10419000376034602C602F6034602C602F60346096
:1041A0002C602F6034602C60376034603060316088
:1041B000782002F06DFC01982860029929602C603B
:1041C0002F6034602C602F6034602C603760346066
:1041D0002C60376034602C602F6034602C60376056
:1041E00034602C60376034602C602F603460316044
:1041F000306029602C602F6034602C602F60346048
:104200002C602F6034602C602F6034602C602F6035
:1042100034602C602F6034602C602F6034602C6020
:104220002F6034603160286029602C602F6034601A
:104230002C602F6034602C60376034602C603760F5
:1042400034602C60376034602C602F6034602C60E8
:10425000376034602C602F603460316030602960DA
:104260002C602F6034602C602F6034602C602F60D5
:1042700034602C602F6034602C602F6034602C60C0
:10428000376034602C602F6034602C60376034609D
:104290003160286029602C60376034602C602F60AA
:1042A00034602C60376034602C60376034602C6080
:1042B0002F6034602C602F6034602C603760346075
:1042C0002C602F6034603160306029602C602F607A
:1042D00034602C602F6034602C602F6034602C6060
:1042E0002F6034602C60376034602C60376034603D
:1042F0002C602F6034602C602F6034603160296046
:104300002C602F6034602C602F6034602C602F6034
:1043100034602C602F6034602C60376034602C6017
:10432000376034602C602F6034602C602F60346004
:10433000316029602C602F6034602C602F60346005
:104340002C602F6034602C602F6034602C602F60F4
:1043500034602C602F6034602C602F6034602C60DF
:104360002F603460316029602C602F6034602C60D5
:104370002F6034602C60376034602C6037603460AC
:104380002C602F6034602C602F6034602C603760AC
:1043900034602C6037603460316029602C602F609D
:1043A00034602C602F6034602C60376034602C6087
:1043B000376034602C602F6034602C602F60346074
:1043C0002C60376034602C60376034603160286066
:1043D00029602C60376034602C602F6034602C6062
:1043E000376034602C60376034602C602F6034603C
:1043F0002C60376034602C60376034602C6037602C
:1044000034603160306029602C602F6034602C6033
:104410002F6034602C60376034602C60376034600B
:104420002C602F6034602C60376034602C602F600B
:1044300034602C60376034603160286029602C6003
:10444000376034602C602F6034602C6037603460DB
:104450002C60376034602C60376034602C602F60D3
:1044600034602C60376034602C60376034603160B9
:10447000306029602C602F6034602C602F603460C5
:104480002C60376034602C60376034602C602F60A3
:1044900034602C60376034602C60376034602C608E
:1044A000376034603160286029602C603760346088
:1044B0002C60376034602C602F6034602C602F607B
:1044C00034602C602F6034602C602F6034602C606E
:1044D0002F6034602C602F60346031603060296060
:1044E0002C602F6034602C602F6034602C6037604B
:1044F00034602C602F6034602C60376034602C6036
:10450000376034602C602F6034602C602F60346022
:104510003160286029602C60376034602C6037601F
:1045200034602C602F6034602C602F6034602C600D
:104530002F6034602C6001E0A0120A402F603460CC
:104540002C60376034602C602F60346031603060E4
:1045500029602C602F6034602C602F6034602C60E8
:104560002F6034602C602F6034602C602F603460CA
:104570002C602F6034602C602F6034602C603760BA
:1045800034603160286029602C60376034602C60B2
:10459000376034602C602F6034602C602F60346092
:1045A0002C602F6034602C602F6034602C6037608A
:1045B00034602C60376034603160306029602C607A
:1045C0002F6034602C602F6034602C602F6034606A
:1045D0002C60376034602C602F6034602C602F605A
:1045E00034602C60376034602C602F603460316040
:1045F000286029602C60376034602C60376034603C
:104600002C602F6034602C602F6034602C602F6031
:1046100034602C60376034602C602F6034602C6014
:104620002F6034603160306029602C602F6034600E
:104630002C602F6034602C60376034602C602F60F9
:1046400034602C602F6034602C602F6034602C60EC
:104650002F6034602C602F603460316028602960E6
:104660002C60376034602C60376034602C602F60C1
:1046700034602C602F6034602C602F6034602C60BC
:10468000376034602C60376034602C602F60346099
:104690003160306029602C602F6034602C602F60A6
:1046A00034602C602F6034602C602F6034602C608C
:1046B000376034602C60376034602C603760346061
:1046C0002C60376034603160286029602C6037606E
:1046D00034602C60376034602C602F6034602C6054
:1046E000376034602C602F6034602C602F60346041
:1046F0002C602F6034602C602F603460316030603B
:1047000029602C60376034602C602F6034602C602E
:10471000376034602C602F6034602C602F60346010
:104720002C60376034602C602F6034602C602F6008
:104730003460316029602C60376034602C602F60F9
:1047400034602C60376034602C602F6034602C60E3
:104750002F6034602C602F6034602C602F603460D8
:104760002C60376034603160286029602C603760CD
:1047700034602C60376034602C60376034602C60AB
:104780002F6034602C602F6034602C602F603460A8
:104790002C602F6034602C602F603460316030609A
:1047A00029602C60376034602C60376034602C6086
:1047B0002F6034602C60376034602C602F60346070
:1047C0002C602F6034602C602F6034602C602F6070
:1047D0003460316029602C602F6034602C602F6061
:1047E00034602C602F6034602C602F6034602C604B
:1047F0002F6034602C60376034602C602F60346030
:104800002C602F603460316029602C602F60346030
:104810002C602F6034602C602F6034602C602F601F
:1048200034602C60376034602C60376034602C60FA
:104830002F6034602C6037603460316029602C60F8
:104840002F6034602C602F6034602C602F603460E7
:104850002C60376034602C602F6034602C602F60D7
:1048600034602C602F6034602C60376034603160BD
:1048700029602C602F6034602C602F6034602C60C5
:104880002F6034602C60376034602C602F6034609F
:104890002C602F6034602C60376034602C6037608F
:1048A0003460316029602C602F6034602C602F6090
:1048B00034602C60376034602C602F6034602C6072
:1048C000376034602C602F6034602C603760346057
:1048D0002C6037603460316029602C602F60346058
:1048E0002C602F6034602C60376034602C6037603F
:1048F00034602C60376034602C60376034602C602A
:10490000376034602C6037603460316029602C601F
:104910002F6034602C60376034602C602F6034600E
:104920002C60376034602C602F6034602C603760FE
:1049300034602C602F6034602C602F6034603160F4
:1049400029602C602F6034602C60376034602C60EC
:104950002F6034602C602F6034602C6037603460CE
:104960002C60376034602C602F6034602C602F60C6
:104970003460316029602C602F6034602C602F60BF
:1049800034602C602F6034602C60376034602C60A1
:10499000376034602C602F6034602C602F6034608E
:1049A0002C602F603460316029602C602F6034608F
:1049B0002C602F6034602C602F6034602C602F607E
:1049C00034602C60376034602C60376034602C6059
:1049D0002F6034602C6037603460316029602C6057
:1049E0002F6034602C602F6034602C602F60346046
:1049F0002C602F6034602C60376034602C602F6036
:104A000034602C60376034602C6037603460316013
:104A100029602C602F6034602C602F6034602C6023
:104A20002F6034602C60376034602C6037603460F5
:104A30002C60376034602C60376034602C603760E5
:104A40003460316029602C602F6034602C602F60EE
:104A500034602C60376034602C602F6034602C60D0
:104A60002F6034602C602F6034602C6037603460BD
:104A70002C60376034603160286029602C603760BA
:104A800034602C60376034602C60376034602C6098
:104A90002F6034602C602F6034602C602F60346095
:104AA0002C602F6034602C6037603460316030607F
:104AB00029602C60376034602C60376034602C6073
:104AC0002F6034602C60376034602C602F6034605D
:104AD0002C602F6034602C602F6034602C602F605D
:104AE0003460316029602C602F6034602C602F604E
:104AF00034602C602F6034602C602F6034602C6038
:104B00002F6034602C60376034602C602F6034601C
:104B10002C602F603460316029602C602F6034601D
:104B20002C602F6034602C602F6034602C602F600C
:104B300034602C60376034602C60376034602C60E7
:104B40002F6034602C602F603460316029602C60ED
:104B50002F6034602C602F6034602C602F603460D4
:104B60002C60376034602C602F6034602C602F60C4
:104B700034602C602F6034602C60376034603160AA
:104B800029602C602F6034602C602F6034602C60B2
:104B90002F6034602C60376034602C602F6034608C
:104BA0002C602F6034602C60376034602C6037607C
:104BB0003460316029602C602F6034602C602F607D
:104BC00034602C60376034602C602F6034602C605F
:104BD000376034602C60376034602C602F60346044
:104BE0002C602F603460316029602C602F6034604D
:104BF0002C602F6034602C60376034602C6037602C
:104C000034602C60376034602C60376034602C6016
:104C1000376034602C6037603460316029602C600C
:104C20002F6034602C60376034602C602F603460FB
:104C30002C602F6034602C602F6034602C603760F3
:104C400034602C602F6034602C602F6034603160E1
:104C500029602C602F6034602C60376034602C60D9
:104C60002F6034602C60376034602C602F603460BB
:104C70002C602F6034602C602F6034602C603760B3
:104C80003460316029602C602F6034602C602F60AC
:104C900034602C60376034602C602F6034602C608E
:104CA000376034602C60376034602C60376034606B
:104CB0002C6037603460316029602C602F60346074
:104CC0002C602F6034602C602F6034602C60376063
:104CD00034602C60376034602C60376034602C6046
:104CE000376034602C6037603460316029602C603C
:104CF0002F6034602C602F6034602C602F60346033
:104D00002C60376034602C60376034602C60376012
:104D100034602C60376034602C6037603460316000
:104D200029602C602F6034602C602F6034602C6010
:104D3000376034602C602F6034602C602F603460EA
:104D40002C602F6034602C602F6034602C602F60EA
:104D50003460316029602C602F6034602C602F60DB
:104D600034602C60376034602C602F6034602C60BD
:104D70002F6034602C602F6034602C6037603460AA
:104D80002C60376034603160286029602C602F60AF
:104D900034602C602F6034602C60376034602C608D
:104DA0002F6034602C602F6034602C602F60346082
:104DB0002C602F6034602C6037603460316030606C
:104DC000286029602C602F6034602C602F60346074
:104DD0002C60376034602C602F6034602C6037604A
:104DE00034602C602F6034602C602F6034602C6045
:104DF000376034603160306003B0F0BDF0B501253C
:104E0000A904534A1161EB06136106B2144610342B
:104E1000002E264600DA1646AD0635601360136193
:104E2000060A7706274600D517463D6013601361D2
:104E3000B706274600D517463D6013601361F70695
:104E4000274600D517463D60136013613707274694
:104E500000D517463D60136013617707274600D5DC
:104E600017463D6013601361B707274600D5174604
:104E70003D6013601361F607264600D01646356084
:104E8000136011601161136146B2002E264600DAEC
:104E900016463560136013614606264600D5164651
:104EA0003560136013618606264600D516463560C8
:104EB00013601361C606264600D51646356013609A
:104EC00013610607264600D5164635601360136148
:104ED0004607264600D516463560136013618607DF
:104EE000264600D51646356013601361C00700D012
:104EF0001446256013601160F0BDC04670B50120F6
:104F00008503084E3560FA24204601F0C1FD356066
:104F1000204601F0BDFD3560204601F0B9FD356049
:104F200070BDC046B0120A400120800304490860E9
:104F30007047C04601208003014908607047C046A1
:104F4000A0120A4001208003014908607047C04652
:104F500090120A40F0B5234985220A6301246305B3
:104F6000214803604A63A30503608823CB60E30301
:104F700003604A61630403608A6323051B4A13606C
:104F80001B4D1C4E2E60EE6064062F6827432F6079
:104F9000EF682743EF602C46083C822727602C1FD0
:104FA000761E26608124CC626C658C6081334B60F8
:104FB0008C664C664C650C65CC648C610C610C6035
:104FC0000146303957231B030B60014640391F232C
:104FD000DB050B6008490160104630380749016065
:104FE0001160F0BD88804240D0120A40D0320A40A1
:104FF0000C804240830004000070850F8000080090
:1050000080B511481149FBF7F9F903204102104816
:1050100002680A43026001210A0203681343036025
:10502000002242611F224262826B07239A438263FD
:105030001A02836B93438363826A0423134383625C
:10504000826A0A43826280BD00000F40769B0000A6
:1050500000120F40B0B582B0104C11492046FBF74A
:10506000B3FA10492046FBF71FFA0F4900252046E6
:105070002A46FBF7A1FA0095204629462A462B46E8
:10508000FBF78EFA204629462A46FBF77BFA0748AB
:1050900001218160016002B0B0BDC04600008740C0
:1050A000789B00007C9B0000409C00000011874022
:1050B000F0B581B02B4C2C492046FBF785FA2B49E3
:1050C0002046FBF7AFF92A4E0025204631462A46F6
:1050D000FBF772FA0095204629462A462B46FBF735
:1050E0005FFA204629462A46FBF74CFA012720465C
:1050F00031463A46FBF760FA0097204629462A4691
:105100002B46FBF74DFA204629463A46FBF73AFA7A
:105110000226204616493246FBF74EFA00962046F4
:1051200029462A462B46FBF73BFA204629463246BB
:10513000FBF728FA032620460D493246FBF73CFAD6
:105140000096204629462A462B46FBF729FA204698
:1051500029463246FBF716FA064887600F210160A0
:1051600001B0F0BD00008640849B0000889B0000D9
:1051700010270000001186400C4800210160032028
:10518000C1430B480246083A13680B40136001689C
:10519000012291430160110203688B4303601103F4
:1051A000001F02680A4302607047C04608030B40B4
:1051B00008010B400548042101601F2141600021C6
:1051C0008160016805220A430260704710E000E038
:1051D00010B5144C14492046FBF728FA1349204611
:1051E000FBF700FA0321CA031148036893430360E5
:1051F0000269104B13401A33036142690A433C2190
:105200008A4342614168012211404368934359181F
:1052100041609102084B1C680C431C6001681143FB
:10522000016010BD00801040909B0000929B000028
:10523000009110400000FFFF2890104080B500F062
:1052400015F8FFF787FEFFF797FFFFF731FFFFF72E
:1052500001FFFFF7D5FEFFF7BBFFFFF7ABFFB8205D
:10526000014900220A5480BDC000202070B50C48BE
:105270000C4941600C4A51600C4B59600C4C616008
:105280000C4D69600C4E71600C4901601160196031
:105290002160296031601020FBF730F870BDC046F6
:1052A00000080A40030000B100280A4000088640B8
:1052B0000008874000080F400088104001000026C9
:1052C00010B512480068C0B20B281ED11548C1693C
:1052D0000F4A13887E2B13D813885C1C14800D4A48
:1052E000D1540268D20708D00268D20705D00268FC
:1052F000D20702D00268D207F3D1C9B2816101E0BE
:105300000020108004480121017010BD2090104041
:10531000080220208701202007022020F0B5037812
:10532000004A03E0089110404378401C002B0DD048
:1053300093611368DB07F7D01368DB07F4D01368B9
:10534000DB07F1D01368DB07F3D1EDE7202393618E
:105350001068C00708D01068C00705D01068C007E3
:1053600002D01068C007F3D14D2090611068C007CB
:1053700008D01068C00705D01068C00702D01068B8
:10538000C007F3D1532090611468E40708D0146873
:10539000E40705D01468E40702D01468E407F3D1E9
:1053A000522494611568ED0708D01568ED0705D003
:1053B0001568ED0702D01568ED07F3D13D2595611D
:1053C0001568ED0708D01568ED0705D01568ED07DD
:1053D00002D01568ED07F3D1302595611568ED070A
:1053E00008D01568ED0705D01568ED0702D01568DF
:1053F000ED07F3D1782595611568ED0708D015689C
:10540000ED0705D01568ED0702D01568ED07F3D15B
:105410000E0FDE4DAE5D96611668F60708D0166871
:10542000F60705D01668F60702D01668F607F3D11E
:105430000E01360FAE5D96611668F60708D0166845
:10544000F60705D01668F60702D01668F607F3D1FE
:105450000E02360FAE5D96611668F60708D0166824
:10546000F60705D01668F60702D01668F607F3D1DE
:105470000E03360FAE5D96611668F60708D0166803
:10548000F60705D01668F60702D01668F607F3D1BE
:105490000E04360FAE5D96611668F60708D01668E2
:1054A000F60705D01668F60702D01668F607F3D19E
:1054B0000E05360FAE5D96611668F60708D01668C1
:1054C000F60705D01668F60702D01668F607F3D17E
:1054D0000E06360FAE5D96611668F60708D01668A0
:1054E000F60705D01668F60702D01668F607F3D15E
:1054F0000F260E40AD5D95611568ED0708D0156863
:10550000ED0705D01568ED0702D01568ED07F3D15A
:105510004D0722D40D0700D5ABE0C90600D537E111
:105520000D2090611068C00708D01068C00705D032
:105530001068C00702D01068C007F3D10A2090613C
:105540001068C00708D01068C00705D01068C007F1
:1055500002D01068C007F3D1F0BD93611568ED0764
:1055600008D01568ED0705D01568ED0702D015685D
:10557000ED07F3D1412595611668F60708D0166846
:10558000F60705D01668F60702D01668F607F3D1BD
:10559000442696611768FF0708D01768FF0705D0F3
:1055A0001768FF0702D01768FF07F3D196611668E6
:1055B000F60708D01668F60705D01668F60702D079
:1055C0001668F607F3D194611668F60708D01668D6
:1055D000F60705D01668F60702D01668F607F3D16D
:1055E0005F2696611668F60708D01668F60705D09C
:1055F0001668F60702D01668F607F3D14E269661B4
:105600001668F60708D01668F60705D01668F6077C
:1056100002D01668F607F3D195611568ED0708D03A
:105620001568ED0705D01568ED0702D01568ED0780
:10563000F3D1432595611568ED0708D01568ED078E
:1056400005D01568ED0702D01568ED07F3D14B259D
:1056500095611568ED0700D15CE71568ED0700D18D
:1056600058E71568ED0700D154E71568ED07F0D14C
:1056700050E793611568ED0708D01568ED0705D070
:105680001568ED0702D01568ED07F3D14425956143
:105690001568ED0708D01568ED0705D01568ED070A
:1056A00002D01568ED07F3D1412595611668F6071C
:1056B00008D01668F60705D01668F60702D01668F7
:1056C000F607F3D1542696611668F60708D01668D7
:1056D000F60705D01668F60702D01668F607F3D16C
:1056E00095611668F60708D01668F60705D01668A3
:1056F000F60702D01668F607F3D15F2696611668A2
:10570000F60708D01668F60705D01668F60702D027
:105710001668F607F3D14E2696611668F60708D08C
:105720001668F60705D01668F60702D01668F60761
:10573000F3D195611568ED0708D01568ED0705D020
:105740001568ED0702D01568ED07F3D14325956183
:105750001568ED0708D01568ED0705D01568ED0749
:1057600002D01568ED07F3D14B2595611568ED075B
:1057700000D1D2E61568ED0700D1CEE61568ED0739
:1057800000D1CAE61568ED07F0D1C6E6719C0000AD
:1057900093611168C90708D01168C90705D011685D
:1057A000C90702D01168C907F3D14121916111687D
:1057B000C90708D01168C90705D01168C90702D008
:1057C0001168C907F3D194611168C90708D011683D
:1057D000C90705D01168C90702D01168C907F3D1FC
:1057E000422191611168C90708D01168C90705D025
:1057F0001168C90702D01168C907F3D15F2191610F
:105800001168C90708D01168C90705D01168C90710
:1058100002D01168C907F3D14C2191611168C90701
:1058200008D01168C90705D01168C90702D01168EE
:10583000C907F3D14F2191611168C90708D01168D8
:10584000C90705D01168C90702D01168C907F3D18B
:1058500090611068C00708D01068C00705D01068B4
:10586000C00702D01068C007F3D1542090611068BF
:10587000C00700D154E61068C00700D150E6106898
:10588000C00700D14CE61068C007F0D148E6000020
:10589000F0B583B00A46074602A864210170F44CB3
:1058A000F44EF54D2846316889064FD43168890693
:1058B0004CD43168890649D43168890646D43168A8
:1058C000890643D43168890640D4316889063DD4BD
:1058D000316889063AD43168890637D43168890637
:1058E00034D43168890631D4316889062ED43168C0
:1058F00089062BD43168890628D43168890625D4D5
:105900003168890622D4316889061FD43168890636
:105910001CD43168890619D43168890616D43168D7
:10592000890613D43168890610D4316889060DD4EC
:10593000316889060AD43168890607D41930B2D192
:10594000254600204923D749D74A4BE000922046FC
:10595000FAF732FD2046FAF717FD02A90122204688
:105960000192FAF7D0FC3446083C2068C34908404D
:105970007F00C0192060361F3068C1490840C14906
:1059800040183060C0A000F091F900287FD0206856
:10599000BA49084007430198074327603068B8496F
:1059A0000840B84908433060B249486A000771D1DD
:1059B0006D1C77D208688007F7D50968B7A0FFF794
:1059C000ADFC00243460AA4D2846FAF7F5FC2846C1
:1059D000FAF7DAFC204603B0F0BD801D135C1228F4
:1059E00000D141E18B610B68DB0708D00B68DB0756
:1059F00005D00B68DB0702D00B68DB07F3D1131867
:105A00005C788C610C68E40708D00C68E40705D06A
:105A10000C68E40702D00C68E407F3D19C788C6131
:105A20000C68E40708D00C68E40705D00C68E407AC
:105A300002D00C68E407F3D1DC788C610C68E407D1
:105A400008D00C68E40705D00C68E40702D00C68A5
:105A5000E407F3D11C798C610C68E40708D00C686A
:105A6000E40705D00C68E40702D00C68E407F3D122
:105A70005B798B610B68DB07AFD00B68DB07ACD0C1
:105A80000B68DB07A9D00B68DB07F3D1A5E7002083
:105A900003B0F0BD4868009908707DA000F006F9D9
:105AA00003B0F0BD7F48492181610268D20708D068
:105AB0000268D20705D00268D20702D00268D20776
:105AC000F3D1322282610268D20708D00268D2077D
:105AD00005D00268D20702D00268D207F3D1432270
