:020000040000FA
:10000000080320208D0100009101000093010000F1
:1000100000000000000000000000000000000000E0
:10002000000000000000000000000000950100003A
:10003000000000000000000097010000990100008E
:100040009B0100009B0100009B0100009B01000040
:100050009B0100009B0100009B0100009B01000030
:10006000000000009B0100009B0100000000000058
:10007000000000009B0100009B010000D14C00002B
:100080009B0100009B0100009B0100009B01000000
:100090009B0100009B010000000000000000000028
:1000A0009B0100009B010000000000000000000018
:1000B0009B010000000000009B0100009B0100006C
:1000C00000F002F800F052F812A030C808382418E6
:1000D0002D18AC4201D100F049F80FCCA246AB4636
:1000E0000CA730CF2D1B083F3F197C427F1E544484
:1000F0002D090426F441641EAC4201D300F036F809
:100100000126334200D0FB1A3343984754465D46DC
:10011000DFE70000A48C0000C48C00000000000099
:10012000103A02D378C878C1FAD8520701D330C840
:1001300030C101D504680C60704700000000000069
:100140007047000000000000002300240025002666
:10015000103A01D378C1FBD8520700D330C100D583
:100160000B6070471FB51FBD10B510BD00F072FACF
:100170001146FFF7F7FF05F04FFC00F08AFA03B4D1
:10018000FFF7F2FF03BC05F03FFB00000648004705
:10019000FEE7FEE7FEE7FEE7FEE7FEE70348044969
:1001A000024A044B70470000C100000008022020F2
:1001B000080320200802202010B5044603E005F0C3
:1001C00019FC401C08D020780549641C0028F6D191
:1001D0000A2005F00FFC10BD0020C04310BD000038
:1001E00068002020002203098B4273D3030A8B424C
:1001F00058D3030B8B423CD3030C8B4221D312E028
:1002000003460B437FD4002243088B4274D3030977
:100210008B425FD3030A8B4244D3030B8B4228D318
:10022000030C8B420DD30902FF2212BA030C8B423E
:1002300002D31212090265D0030B8B4219D300E0DE
:10024000090AC30B8B4201D3CB03C01A5241830B63
:100250008B4201D38B03C01A5241430B8B4201D313
:100260004B03C01A5241030B8B4201D30B03C01A3C
:100270005241C30A8B4201D3CB02C01A5241830AB6
:100280008B4201D38B02C01A5241430A8B4201D3E5
:100290004B02C01A5241030A8B4201D30B02C01A0F
:1002A0005241CDD2C3098B4201D3CB01C01A524176
:1002B00083098B4201D38B01C01A524143098B42FF
:1002C00001D34B01C01A524103098B4201D30B01E8
:1002D000C01A5241C3088B4201D3CB00C01A52410D
:1002E00083088B4201D38B00C01A524143088B42D2
:1002F00001D34B00C01A5241411A00D2014652416B
:10030000104670475DE0CA0F00D04942031000D389
:10031000404253409C46002203098B422DD3030ADE
:100320008B4212D38901FC2212BA030A8B420CD3EE
:10033000890192118B4208D3890192118B4204D317
:1003400089013AD0921100E08909C3098B4201D397
:10035000CB01C01A524183098B4201D38B01C01AD1
:10036000524143098B4201D34B01C01A5241030948
:100370008B4201D30B01C01A5241C3088B4201D3F7
:10038000CB00C01A524183088B4201D38B00C01AA4
:100390005241D9D243088B4201D34B00C01A52417B
:1003A000411A00D201465241104663465B1001D308
:1003B0004042002B00D54942704763465B1000D392
:1003C000404201B50449002802DC491C084000E015
:1003D0000846C046C04602BDFFFFFF7F704770471A
:1003E00070470000F0B5FF252D04C609C209FF279C
:1003F00004462E400137CB093E4348402A402B405B
:100400000746002A6BD0002B69D0AA4267D0AB42C6
:1004100065D0002800DA32460125ED0529432C433A
:1004200009022002090AD21A4B0C7F24E31A434C1A
:10043000000A7C44E35C7D242404121914145B003C
:10044000A218884201D3521C00E0400049420C46E9
:100450005C4324115C43DB016415E318040A5C432C
:10046000C502200D0C4644436419250A5D4323034D
:10047000EC0C0D46654300030019EB184C42A342F7
:1004800001D35B18401CD4052018002B07D05B005B
:10049000C91804D3401C002901D1400840003F2165
:1004A00089048A4209D3002A08DC1106090F04D006
:1004B000032149074018C00FC007F0BD01224100C9
:1004C000120689187F2252069142F6D20521490769
:1004D000C84201D59010F0BDFF20C005F0BD002F2F
:1004E00000DA32461648AA4207D2AB4205D21902B8
:1004F000090E17D0F80FC007F0BDFF2563002D06C9
:10050000AB42F9D84900A942F6D8AB4201D1A94281
:10051000F2D0A94201D1002101E061004908D005D3
:100520000843F0BD1102090EFBD0FF200243D005A5
:10053000F0BD0A460146104654E70000BA5E0000CE
:100540000000C07F10B501469E240002CA15A30713
:10055000002A02D01843002A04DBA21A002A0CDD6C
:10056000D04010BD1206120E01D140004008A21A60
:1005700003D4D04040420028F3DDFF224800120699
:10058000904201D9002010BDC817C043584010BD8B
:100590001F22030C02D10F2200041CD0030E01D134
:1005A0000002083A030F01D10001121F830F01D18D
:1005B0008000921E002801DB4000521ED205511817
:1005C000021251181922904004D3491C002801D16D
:1005D0004908490008467047C10FC90700D040428A
:1005E000012292071143D3E701218907D0E70000D8
:1005F00010B5FF231B0644009C421DD84C009C42B2
:100600001AD80346124A0B4307D4401A02D3EFF319
:10061000008010BDEFF3008010BD081A03D3EFF384
:100620000080904305E0EFF3008001219043C9076B
:10063000084380F3008810BD0D231B041A4204D028
:100640001146002000F02DF810BD00F041F810BD5B
:1006500000000090754600F043F8AE46050069467C
:100660005346C008C000854618B020B5FFF796FD78
:1006700060BCB64600260027C0C5C0C5C0C5C0C501
:10068000C0C5C0C5C0C5C0C5403D490849008D466C
:10069000704710B50446C046C0462046FFF76FFDC0
:1006A00010BDC80212D54803400F002804D0C8036B
:1006B000C043012188407047EFF30080000100092A
:1006C00003210907084380F3008870470020704722
:1006D00010B5024800F008F810BD00000000C07F0F
:1006E000004870470800202010B50C461107090F7C
:1006F000092904D00A290AD008290CD104E011469E
:100700000820FFF7CEFF06E0510606D501E05106AE
:1007100001D50120C007214610BDD10607D5010132
:100720000909CC084907000E0006044309E0410FFF
:1007300020024907000A0143200E00061D22D14174
:1007400001430846E7E7811E091F00BFFCD270473E
:10075000F0B582B0002A31D091235B01C31802208A
:10076000801A0190009255420F2006020320DC6996
:10077000344227D00F18FC1E24781C602C18022C41
:100780001AD0DA6932421FD0BA1E12781A60019A62
:100790001218032A10D0DA69324217D07A1E127862
:1007A0001A60002C08D0DA69324208D00A5C1A605C
:1007B000001D2A18032ADAD1009800E0002080B238
:1007C00002B0F0BDC01EFAE7801EF8E7401EF6E753
:1007D00070B50A780C231A400124240305196E68A9
:1007E0009E43B2186A604978072211400359934327
:1007F0005918015170BD0000F0B583B00B794A79EA
:10080000002A2AD01A4A1B4C1B4F21252D01202BD0
:1008100000D07035861802190092C219002B00D141
:1008200088251768474C27407F191760576827406D
:100830007D1955603568464F3D40356075683D40CF
:1008400075600025009C256065608F24E443156970
:100850002540156155692540556101AA13718B79B1
:10086000537109680191114600F008F803B0F0BD1A
:10087000381800005818000078180000F0B584B04F
:100880002E4A821802923A4BC6183F4BC218009269
:100890002B4BC4180A7901910D682A4F202A039224
:1008A0000AD0254BC018002A17D16B1E029A53603C
:1008B00023683B40882517E0681E029A5060206834
:1008C0003840214B1843206060683840184360600E
:1008D000012045071D4F104608E06B08029A53603F
:1008E00023683B400525ED012B43236000990368F5
:1008F0003B402B4303603068154B184030607068F4
:10090000184070600020086048608F20C043236951
:10091000034023616369034063610198407903994F
:100920000843BD21014010680A4B0340C818801CD1
:10093000106004B0F0BDC046741800000418000038
:100940007018000024F93FF001040000FFFFFFCF02
:100950008888FDFF4000FFCF10B507239B04194096
:1009600092008018024A84589C436118815010BD3F
:100970003018000010B5029CA4000019114319435F
:10098000014A815010BDC0465018000092008018E6
:10099000014A81507047C0461018000010B501226E
:1009A000120383180C789C604B7883508978014A35
:1009B000815010BD0C110000B0B5112212028358F5
:1009C0000124A34383508B780C881C438B882343DA
:1009D000094C1C408358094D1D402B1983508B79BD
:1009E000CC791C43097A21437E2319408018426840
:1009F0009A4351184160B0BD18670000E798FDFFA9
:100A000010B50122120383180C789C60497881503C
:100A100010BDF0B58BB00293089107900020C14340
:100A2000104650430190029F02E00999914272DA08
:100A300006910A92079B981A1D4682B20592481C9D
:100A40000990089B181A1E4684B210462146234678
:100A500000F0F8F8384603F0D9FE0A98401980B241
:100A6000039021460246234600F0ECF8384603F096
:100A7000CDFE0A98801981B204910998281A85B28E
:100A800028462A460B4600F0DDF8384603F0BEFE45
:100A90000A98301A84B2284621462A46234600F096
:100AA000D1F8384603F0B2FE099E0898301885B296
:100AB0000398294602462B4600F0C4F8384603F056
:100AC000A5FE0799701886B2304621463246234665
:100AD00000F0B8F8384603F099FE304604993246E3
:100AE0000B4600F0AFF8384603F090FE0598294613
:100AF00002462B4600F0A6F8384603F087FE0A9A15
:100B0000104650430699891C4943081801998842A8
:100B10008BD9521E89E70BB0F0BD000080B5411E95
:100B20000B2914D87944097949008F44053A303AA1
:100B30003A3A3A3A2A3B3A1D3CA0FFF73DFB03F014
:100B400009FF05F099F824480121017080BD6C2847
:100B500027D127A0FFF730FB03F0FCFE05F08CF84F
:100B60001D480221017080BD2BA0FFF725FB03F07B
:100B7000F1FE19480021017005F044F903F0E2FE8E
:100B800080BD16A0FFF718FB03F0DCFE04E00CA00C
:100B9000FFF712FB03F0BAFE0F480021017005F0C9
:100BA00015F980BD17A0FFF707FB03F0D3FE0A4835
:100BB0000021017005F046F903F0C4FE80BDC04677
:100BC0005B566F6963655D20434D443A2057414B46
:100BD0004555500D00000000BC0020205B566F6999
:100BE00063655D20434D443A2053544F500D00003F
:100BF0005B566F6963655D20434D443A2044414E26
:100C000043450D005B566F6963655D20434D443A73
:100C1000205354414E440D005B566F6963655D205F
:100C2000434D443A205349540D0000005B566F6910
:100C300063655D20434D443A20464F52574152442C
:100C40000D000000F0B585B00293009201910121E2
:100C50000A06374F3A60134603928A043A600492B8
:100C6000CE063E608D063D603C46103C26603E60F0
:100C70003D6026603E60256026603E603D602660E7
:100C80003E60256026603E603D6026603E602560D7
:100C900026603E603D6026602260236003F0B6FD62
:100CA000009803F0B3FD03983860049939603E6002
:100CB0003D6026603E603D6026603E6025602660A7
:100CC0003E603D6026603E60256026603E603D607F
:100CD00026603E60256026603E60256026602160BB
:100CE0002060019803F092FD029803F08FFD0398B5
:100CF0003860049939603E603D6026603E603D602A
:100D000026603E60256026603E603D6026603E6055
:100D1000256026603E60256026603E603D6026605E
:100D20003E603D6026602160206005B0F0BDC04699
:100D3000A0120A40F0B587B053000291C91A06917B
:100D4000D10004900191401A0521039251434C1C9B
:100D50000027194B80B20590069886B2FAB2059822
:100D600031461D46FFF755FE2B467F1CBC42F3D192
:100D7000049801990818002780B20690FAB20698E4
:100D800031462B46FFF745FE7F1CBC42F6D10620BC
:100D900003994843029A80188C1C002685B2049F50
:100DA000F2B21F20C30238462946FFF732FE761CF6
:100DB000B442F5D107B0F0BDE0FF0000F0B595B04A
:100DC000530001910793CF1AD10002901491411A58
:100DD00005230392534309935E1C00248DB2BFB2D6
:100DE000E2B228463946FC4BFFF713FE641CA642CC
:100DF000F6D10E210398414300910028099F00D1AC
:100E0000B7E01420039B5843F3491B315943019A1F
:100E10008A18101881B20A2058430590101884B21D
:100E20000691601AC1170026F54301230128089591
:100E30000D9500DB0D93484092B20492A51AEA1773
:100E40002C465440012D089D0C9500DB0C93401A54
:100E50001090A01A0F9002981499091808E00B9EA0
:100E6000761C0A99491C07988642099F00D180E0A8
:100E70000598081882B20A9188B21492801AC11794
:100E800002464A40541A0F998C42139400D80F9C82
:100E90000B96012808980E9001DB01200E90002689
:100EA000049B149A3746354603E06D1CA8B2844271
:100EB00026D31197129290B299B202461F460B4662
:100EC000FFF7C0FEC44803F0A1FC0F983018A04201
:100ED00001DC3B4601E00C997B181399119A5118DB
:100EE000A14203DC129A061B05DD05E00E9A129E54
:100EF000B218061B00DC06460F1BD6DC0F46D4E7F3
:100F00001098139C844200D8109C0022069E134621
:100F1000154604E06D1CA8B28442129E9FD3119323
:100F2000149880B2B1B22746144602460B46FFF72A
:100F300089FEA94803F06AFC109820183C46B84284
:100F400001DD0D9976181296119F13997918A14217
:100F500004DC021B08DD0B1BDCDC08E0149A0E9B92
:100F6000D2181492021BF6DC02460B1BD2DC0B4695
:100F7000D0E70720039B58430199401885B2C01958
:100F800080B20A90401BC11702464A40541A924A46
:100F900019325A430299521893B20099890805915F
:100FA00008925118069189B20F911293C91ACA1763
:100FB0000B4653409E1A1394A6420D960E9601D8E6
:100FC000139A0E920026F243002F0792134600D187
:100FD0003B46012201281093184600DB1092059B26
:100FE000002B01D1059B07931190012907980C90C4
:100FF00000DB0C921F20C002149009952A4633464C
:1010000035460E9F03E06D1CA8B287422AD30E938B
:10101000129880B291B2144602460B46FFF712FEB8
:10102000149803F0F3FB13983018B84201DC224601
:1010300001E0109962180E9E0D997118B94204DCF6
:10104000C61B0ADDCB1BDEDC0AE01446129A0C9BA1
:10105000D21812922246C61BF4DC0646CB1BD2DC09
:101060000B46D0E70898401C83B20698401C80B21B
:101070000E90C01AC11702464A40571A13998F4260
:101080000C9700D8139F012807980B9001DB0120D3
:101090000B900024099A2546264603E0761CB0B240
:1010A000874229D30D95129398B291B21546024604
:1010B0000B46FFF7C7FD149803F0A8FB1398201800
:1010C000B84201DC2A4601E010996A180C990D9B80
:1010D0005918B942129B04DCC41B08DDCD1BDDDCB2
:1010E00008E014460B9A9B182246C41BF6DC044603
:1010F000CD1BD3DC0D46D1E70898801C83B206983F
:10110000801C80B20D90C01AC11702464A40571A7F
:1011100013998F420B9700D8139F012807980890C6
:1011200001DB012008900024099A2546264603E0A9
:10113000761CB0B2874229D30C95129398B291B223
:10114000154602460B46FFF77DFD149803F05EFB43
:1011500013982018B84201DC2A4601E010996A1859
:101160000B990C9B5918B942129B04DCC41B08DD77
:10117000CD1BDDDC08E01446089A9B182246C41BF0
:10118000F6DC0446CD1BD3DC0D46D1E70A9C09985A
:10119000001BC11702464A40551A0599069A511874
:1011A00004918AB20F990C92511ACA170B465340F8
:1011B0009F1A1295AF42089700D8129F012201286A
:1011C00000DB119201290798069000DB06920023AC
:1011D00022461C461E4605E0E0FF0000761CB0B229
:1011E00087422DD30B940F9880B291B214460246D9
:1011F0003D461F460B46FFF725FD149803F006FBFE
:10120000129838182F46A84201DC224601E01199B5
:1012100062180B9D08996918B94204DCC31B0ADDEA
:10122000CC1BDBDC0AE014460F9A069BD2180F9207
:101230002246C31BF4DC0346CC1BCFDC0C46CDE7B7
:101240000498401C81B20E980F91081AC1170246EB
:101250004A40551A12998D42089500D8129D0128CE
:10126000079806900A9801DB0121069100230246A7
:101270001C461E4603E0761CB0B285422DD30B946B
:101280000E9880B291B2144602462F461D460B4678
:10129000FFF7D8FC149803F0B9FA129828183D46C5
:1012A000B84201DC224601E0119962180B9F0899AF
:1012B0007918A94204DC431B0ADD4C1BDBDC0AE085
:1012C00014460E9A069BD2180E922246431BF4DC5B
:1012D00003464C1BCFDC0C46CDE70498801C81B242
:1012E0000D980E91081AC11702464A40571A1299D2
:1012F0008F42089700D8129F0128079806900A98F5
:1013000001DB01210691002302461C461E4603E034
:10131000761CB0B287422DD30B940D9880B291B257
:10132000144602463D461F460B46FFF78BFC1498B9
:1013300003F06CFA129838182F46A84201DC2246B6
:1013400001E0119962180B9D08996918B94204DCF3
:10135000C31B0ADDCC1BDBDC0AE014460D9A069B9E
:10136000D2180D922246C31BF4DC0346CC1BCFDC03
:101370000C46CDE7059804990818049081B20C98A2
:101380000D91081AC11702464A40571A13998F4205
:10139000089700D8139F01280798069001DB0120C9
:1013A00006900023099A1C461E4603E0761CB0B244
:1013B00087422DD30B940C9880B291B2144602460A
:1013C0003D461F460B46FFF73DFC149803F01EFAFE
:1013D000139838182F46A84201DC224601E01099E4
:1013E00062180B9D08996918B94204DCC31B0ADD19
:1013F000CC1BDBDC0AE014460C9A069BD2180C923C
:101400002246C31BF4DC0346CC1BCFDC0C46CDE7E5
:101410000498401C81B20F980C91081AC11702461B
:101420004A40571A13998F42089700D8139F0128F2
:101430000798069001DB012006900023099A1C46BC
:101440001E4603E0761CB0B287422DD30B940F9852
:1014500080B291B2144602463D461F460B46FFF746
:10146000F1FB149803F0D2F9139838182F46A842CC
:1014700001DC224601E0109962180B9D0899691859
:10148000B94204DCC31B0ADDCC1BDBDC0AE01446DA
:101490000F9A069BD2180F922246C31BF4DC034618
:1014A000CC1BCFDC0C46CDE70498801C81B20E9893
:1014B0000F91081AC11702464A40551A13998D42D6
:1014C000089500D8139D01280798069001DB01209C
:1014D000069000221346144603E0641CA0B2854225
:1014E0002AD30B930E9880B2099FB9B22E461546A7
:1014F00002460B46FFF7A6FB149803F087F91398F2
:1015000028183546B04202DD10997F1809970B9EC6
:1015100008997118A94204DC421B08DD4B1BDCDC76
:1015200008E00E9A069BD2180E92421BF6DC024689
:101530004B1BD2DC0B46D0E70598049908180B909A
:1015400080B20D99401AC11702464A40571A1299A3
:101550008F42109700D8129F012807980E900A9882
:1015600001DB01210E91002302461C461E4603E0CA
:10157000761CB0B287422DD313940D9880B291B2ED
:10158000144602463D461F460B46FFF75BFB149888
:1015900003F03CF9129838182F46A84201DC224685
:1015A00001E011996218139D10996918B94204DC81
:1015B000C31B0ADDCC1BDBDC0AE014460D9A0E9B34
:1015C000D2180D922246C31BF4DC0346CC1BCFDCA1
:1015D0000C46CDE70B98401C80B20C99401AC117FD
:1015E00002464A40571A12998F42109700D8129F0C
:1015F000012807980E900A9801DB01210E91002323
:1016000002461C461E4603E0761CB0B287422DD32C
:1016100013940C9880B291B2144602463D461F4680
:101620000B46FFF70FFB149803F0F0F812983818E8
:101630002F46A84201DC224601E011996218139D51
:1016400010996918B94204DCC31B0ADDCC1BDBDC32
:101650000AE014460C9A0E9BD2180C922246C31B29
:10166000F4DC0346CC1BCFDC0C46CDE70B98801C8A
:1016700080B20F99401AC11702464A40571A129970
:101680008F42109700D8129F012801DB012007909C
:1016900000221346144603E0641CA0B287422AD3FA
:1016A00013930F9880B20A9DA9B23E461746024690
:1016B0000B46FFF7C7FA149803F0A8F812983818E9
:1016C0003746B04202DD11996D180A95139E1099A4
:1016D0007118B94204DCC21B08DDCB1BDCDC08E05E
:1016E000079A0F9B9B180F93C21BF6DC0246CB1B7D
:1016F000D2DC0B46D0E715B0F0BD0000F0B591B0DC
:10170000029104900520504300900E205043019018
:10171000D00003900592002A00D1DBE0059800017B
:101720000499091A8BB2039E8A1990B20893C01AC1
:10173000491C8BB2511C89B20793C91A0027002E8D
:1017400001D1354600E0FD43C217CB170124012823
:101750000D950C9500DB0C9450400D465D40012921
:1017600000DB0D940299891B0A91059949000991A2
:10177000801A0F90E81A0E903946069705E00B99EB
:10178000491C09988142069F39D00A980B9140184C
:101790001090089D3C463E4603E0761CB0B2814264
:1017A00013D3A8B210998FB2394602463B46FFF7D1
:1017B00049FAFC4803F02AF8002C01D00C982D18A7
:1017C000002C0F99E9D16418E7E70026079C3546FD
:1017D00003E06D1CA8B28142D1D3A0B239460246C3
:1017E0003B46FFF72FFAEF4803F010F8002E01D028
:1017F0000D982418002E0E99EBD17618E9E705987C
:10180000002867D00498039B19188CB2CA1890B2AC
:101810000894001B491C8CB2511C89B20794091B07
:101820000026002B01D11F4600E0F743C217CB175B
:10183000012401280D9700DB0D9450400D465D40BA
:10184000012900DB27460C97801A0F90E81A0E90AA
:101850003146069605E00B99491C09988142069E7F
:1018600038D00A980B9140181090089D344603E038
:10187000761CB0B2814213D3A8B210998FB2394608
:1018800002463B46FFF7DEF9C64802F0BFFF002CD8
:1018900001D00D982D18002C0F99E9D16418E7E7B5
:1018A0000026079C354603E06D1CA8B28142D2D3C6
:1018B000A0B2394602463B46FFF7C4F9B94802F0E8
:1018C000A5FF002E01D00C982418002E0E99EBD104
:1018D0007618E9E7059B029818180399401886B214
:1018E0000099401880B20690801BC11702464A40FA
:1018F000541AAC4A19325A430499521893B20199B6
:101900008908019104925118029189B20B910E93AA
:10191000C91ACA170B4653409D1A0F94A542099540
:101920000A9501D80F9A0A920025EB43069AB24213
:10193000039300D12B46012201280C93184600DBAB
:101940000C92019B002B01D1019B03930D90012967
:101950000398089000DB08921F20C00210900596A3
:1019600032462B462F460A9E03E07F1CB8B28642C1
:101970002AD30A930E9880B291B2144602460B46BF
:10198000FFF760F9109802F041FF0F982818B04255
:1019900001DC224601E00C9962180A9D0999691838
:1019A000B14204DC851B0ADD8B1BDEDC0AE0144639
:1019B0000E9A089BD2180E922246851BF4DC05462F
:1019C0008B1BD2DC0B46D0E70498401C83B20298F4
:1019D000401C80B20A90C01AC11702464A40571AEA
:1019E0000F998F42089700D80F9F012803980790FE
:1019F000059801DB01210791002402462546264671
:101A000003E0761CB0B2874229D309950E9398B2B1
:101A100091B2154602460B46FFF714F9109802F0F2
:101A2000F5FE0F982018B84201DC2A4601E00C9917
:101A30006A180899099B5918B9420E9B04DCC41B0B
:101A400008DDCD1BDDDC08E01446079A9B18224612
:101A5000C41BF6DC0446CD1BD3DC0D46D1E704984D
:101A6000801C83B20298801C80B20990C01AC117F2
:101A700002464A40571A0F998F42079700D80F9F86
:101A8000012803980490059801DB012104910024AA
:101A900002462546264603E0761CB0B2874229D38B
:101AA00008950E9398B291B2154602460B46FFF781
:101AB000C9F8109802F0AAFE0F982018B84201DC6D
:101AC0002A4601E00C996A180799089B5918B942EF
:101AD0000E9B04DCC41B08DDCD1BDDDC08E01446D6
:101AE000049A9B182246C41BF6DC0446CD1BD3DCAB
:101AF0000D46D1E7069C0598001BC11702464A40D7
:101B0000551A0199029A511800918AB20B990892BC
:101B1000511ACA170B4653409F1A0E95AF420497AD
:101B200000D80E9F0122012800DB0D9201290398A5
:101B3000029000DB0292002322461C461D4603E071
:101B40006D1CA8B287422FD307940B9880B291B234
:101B5000144602463E461F460B46FFF773F81098A0
:101B600002F054FE0E9838183746B04201DC224687
:101B700001E00D996218079E04997118B94204DCBE
:101B8000C31B0ADDCC1BDBDC0AE014460B9A029B6C
:101B9000D2180B922246C31BF4DC0346CC1BCFDCCD
:101BA0000C46CDE7E0FF00000098401C81B20A9887
:101BB0000B91081AC11702464A40571A0E998F42D4
:101BC000049700D80E9F012803980290069801DB25
:101BD00001210291002302461C461D4603E06D1CB4
:101BE000A8B287422DD307940A9880B291B21446C6
:101BF00002463E461F460B46FFF724F8109802F0B7
:101C000005FE0E9838183746B04201DC224601E046
:101C10000D996218079E04997118B94204DCC31B20
:101C20000ADDCC1BDBDC0AE014460A9A029BD218C0
:101C30000A922246C31BF4DC0346CC1BCFDC0C46C5
:101C4000CDE70098801C81B209980A91081AC11743
:101C500002464A40561A0E998E42049600D80E9EAD
:101C6000012803980290069801DB012102910023CC
:101C700002461C461D4603E06D1CA8B286422DD3C9
:101C80000794099880B291B21446024637461E4620
:101C90000B46FEF7D7FF109802F0B8FD0E983018EB
:101CA0003E46B84201DC224601E00D996218079FCA
:101CB00004997918B14204DC831B0ADD8C1BDBDC40
:101CC0000AE01446099A029BD21809922246831B05
:101CD000F4DC03468C1BCFDC0C46CDE70198009961
:101CE0000818009081B208980991081AC117024695
:101CF0004A40561A0F998E42049600D80F9E01282A
:101D00000398029001DB012002900023059A1C46F3
:101D10001D4603E06D1CA8B286422DD30794089897
:101D200080B291B21446024637461E460B46FEF775
:101D300089FF109802F06AFD0F9830183E46B842AD
:101D400001DC224601E00C996218079F049979187A
:101D5000B14204DC831B0ADD8C1BDBDC0AE0144689
:101D6000089A029BD21808922246831BF4DC034691
:101D70008C1BCFDC0C46CDE70098401C81B20B9841
:101D80000891081AC11702464A40561A0F998E4206
:101D9000049600D80F9E01280398029001DB0120D1
:101DA00002900023059A1C461D4603E06D1CA8B254
:101DB00086422DD307940B9880B291B21446024606
:101DC00037461E460B46FEF73DFF109802F01EFDFB
:101DD0000F9830183E46B84201DC224601E00C99CB
:101DE0006218079F04997918B14204DC831B0ADD4D
:101DF0008C1BDBDC0AE014460B9A029BD2180B9278
:101E00002246831BF4DC03468C1BCFDC0C46CDE75B
:101E10000098801C81B20A980B91081AC1170246DB
:101E20004A40571A0F998F42049700D80F9F0128F4
:101E30000398029001DB0120029000221346144611
:101E400003E0641CA0B287422AD307930A9880B2A9
:101E5000059EB1B23D46174602460B46FEF7F2FE1E
:101E6000109802F0D3FC0F9838182F46A84202DDD4
:101E70000C9976180596079D04996918B94204DCF7
:101E8000C21B08DDCB1BDCDC08E00A9A029BD218DF
:101E90000A92C21BF6DC0246CB1BD2DC0B46D0E713
:101EA000019800990818079080B20999401AC11743
:101EB00002464A40561A0E998E420C9600D80E9E43
:101EC000012803980A90069801DB01210A9100235A
:101ED00002461C461D4603E06D1CA8B286422DD367
:101EE0000F94099880B291B21446024637461E46B6
:101EF0000B46FEF7A7FE109802F088FC0E983018EB
:101F00003E46B84201DC224601E00D9962180F9F5F
:101F10000C997918B14204DC831B0ADD8C1BDBDCD5
:101F20000AE01446099A0A9BD21809922246831B9A
:101F3000F4DC03468C1BCFDC0C46CDE70798401C35
:101F400080B20899401AC11702464A40561A0E99A3
:101F50008E420C9600D80E9E012803980A9006988F
:101F600001DB01210A91002302461C461D4603E0C5
:101F70006D1CA8B286422DD30F94089880B291B2FE
:101F80001446024637461E460B46FEF75BFE109887
:101F900002F03CFC0E9830183E46B84201DC224666
:101FA00001E00D9962180F9F0C997918B14204DC79
:101FB000831B0ADD8C1BDBDC0AE01446089A0A9BB3
:101FC000D21808922246831BF4DC03468C1BCFDC1C
:101FD0000C46CDE70798801C80B20B99401AC117B8
:101FE00002464A40561A0E998E420C9600D80E9E12
:101FF000012801DB0120039000221346144603E070
:10200000641CA0B286422AD30F930B9880B2069F1D
:10201000B9B23546164602460B46FEF713FE109837
:1020200002F0F4FB0E9830182E46A84202DD0D99FE
:102030007F1806970F9D0C996918B14204DC821B2A
:1020400008DD8B1BDCDC08E0039A0B9B9B180B93D1
:10205000821BF6DC02468B1BD2DC0B46D0E711B0AC
:10206000F0BD0000F0B595B0009101900E200290F7
:102070000523534350000890F34E0392002A09931E
:1020800000D1BBE01420039B584331461B31594318
:10209000009A8A18101881B20A2058430590101827
:1020A00084B20691601AC1170027FD43012301285D
:1020B00007950D9500DB0D93484092B20492A51A46
:1020C000EA172C465440012D079D0C9500DB0C931C
:1020D000401A1090A01A0F9030460E3003994843D2
:1020E0000199411808E00B9F7F1C0A99491C089828
:1020F0008742099B00D181E00598081880B20A91B7
:1021000089B21491401AC11702464A40551A0F99D4
:102110008D42139500D80F9D0B97012807980E90BC
:1021200001DB01200E900024049B149A26462746CA
:1021300003E07F1CB8B2854227D31196129290B269
:1021400099B2024626461C460B46FEF77BFDBE486A
:1021500002F05CFB0F983018A84201DC234601E036
:102160000C996318119A13995118A94203DC129A19
:10217000441B05DD05E00E9A129EB218441B00DCDC
:1021800004464E1BD5DC0E46D3E71098139D8542BE
:1021900000D8109D0022069E1346144604E0641CDD
:1021A000A0B28542129E9ED31193149880B2B1B210
:1021B0002F46154602460B46FEF744FDA24802F0A4
:1021C00025FB109828183D46B84201DD0D99761878
:1021D0001296119F13997918A94204DC421B08DD5D
:1021E0004B1BDCDC08E0149A0E9BD2181492421BA5
:1021F000F6DC02464B1BD2DC0B46D0E70298039973
:10220000484302900098089A801AC900019A8918D8
:102210005C1C00268DB287B2F2B2284639468A4B42
:10222000FEF7F7FB761CB442F6D10720039B584318
:102230000099401885B2099FC01980B20A90401BCE
:10224000C11702464A40541A7F4A19325A4301992B
:10225000521893B202998908059108925118069173
:1022600089B20F911293C91ACA170B4653409E1A8E
:102270001394A6420D960E9601D8139A0E9200263C
:10228000F243002F0792134600D13B46012201285A
:102290001093184600DB1092059B002B01D1059B83
:1022A00007931190012907980C9000DB0C921F20D6
:1022B000C002149009952A46334635460E9F03E026
:1022C0006D1CA8B287422AD30E93129880B291B2A5
:1022D000144602460B46FEF7B5FC149802F096FA37
:1022E00013983018B84201DC224601E010996218B8
:1022F0000E9E0D997118B94204DCC61B0ADDCB1B7A
:10230000DEDC0AE01446129A0C9BD2181292224686
:10231000C61BF4DC0646CB1BD2DC0B46D0E7089884
:10232000401C83B20698401C80B20E90C01AC117A0
:1023300002464A40571A13998F420C9700D8139FB0
:10234000012807980B9001DB01200B900024099ACB
:102350002546264603E0761CB0B2874229D30D9568
:10236000129398B291B2154602460B46FEF76AFCEC
:10237000149802F04BFA13982018B84201DC2A4650
:1023800001E010996A180C990D9B5918B942129BDB
:1023900004DCC41B08DDCD1BDDDC08E014460B9A11
:1023A0009B182246C41BF6DC0446CD1BD3DC0D462D
:1023B000D1E70898801C83B20698801C80B20D90EB
:1023C000C01AC11702464A40571A13998F420B97F9
:1023D00000D8139F01280798089001DB012008907E
:1023E0000024099A2546264603E0761CB0B28742AF
:1023F0002CD30C95129398B291B2154602460B4617
:10240000FEF720FC149802F001FA13982018B84245
:1024100001DC2A4601E010996A180B990C9B5918A7
:10242000B942129B04DCC41B08DDCD1BDDDC08E0D7
:102430001446089A9B182246C41BF6DC0446CD1BA2
:10244000D3DC0D46D1E7C046E0FF00000A9C0998A6
:10245000001BC11702464A40551A0599069A5118A1
:1024600004918AB20F990C92511ACA170B46534025
:102470009F1A1295AF42089700D8129F0122012897
:1024800000DB119201290798069000DB06920023D9
:1024900022461C461E4603E0761CB0B287422DD36E
:1024A0000B940F9880B291B2144602463D461F46E7
:1024B0000B46FEF7C7FB149802F0A8F912983818DB
:1024C0002F46A84201DC224601E0119962180B9DBB
:1024D00008996918B94204DCC31B0ADDCC1BDBDC9C
:1024E0000AE014460F9A069BD2180F922246C31B8D
:1024F000F4DC0346CC1BCFDC0C46CDE70498401C33
:1025000081B20E980F91081AC11702464A40551A17
:1025100012998D42089500D8129D012807980690BF
:102520000A9801DB01210691002302461C461E4643
:1025300003E0761CB0B285422DD30B940E9880B286
:1025400091B2144602462F461D460B46FEF77AFB13
:10255000149802F05BF9129828183D46B84201DC45
:10256000224601E0119962180B9F08997918A94237
:1025700004DC431B0ADD4C1BDBDC0AE014460E9A2C
:10258000069BD2180E922246431BF4DC03464C1BDA
:10259000CFDC0C46CDE70498801C81B20D980E91DB
:1025A000081AC11702464A40571A12998F420897D3
:1025B00000D8129F0128079806900A9801DB012194
:1025C0000691002302461C461E4603E0761CB0B26C
:1025D00087422DD30B940D9880B291B214460246D7
:1025E0003D461F460B46FEF72DFB149802F00EF9F0
:1025F000129838182F46A84201DC224601E01199B2
:1026000062180B9D08996918B94204DCC31B0ADDE6
:10261000CC1BDBDC0AE014460D9A069BD2180D9207
:102620002246C31BF4DC0346CC1BCFDC0C46CDE7B3
:10263000059804990818049081B20C980D91081A15
:10264000C11702464A40571A13998F42089700D87B
:10265000139F01280798069001DB012006900023B4
:10266000099A1C461E4603E0761CB0B287422DD361
:102670000B940C9880B291B2144602463D461F4618
:102680000B46FEF7DFFA149802F0C0F813983818DA
:102690002F46A84201DC224601E0109962180B9DEA
:1026A00008996918B94204DCC31B0ADDCC1BDBDCCA
:1026B0000AE014460C9A069BD2180C922246C31BC1
:1026C000F4DC0346CC1BCFDC0C46CDE70498401C61
:1026D00081B20F980C91081AC11702464A40571A46
:1026E00013998F42089700D8139F012807980690E6
:1026F00001DB012006900023099A1C461E4603E0D8
:10270000761CB0B287422DD30B940F9880B291B251
:10271000144602463D461F460B46FEF793FA1498B0
:1027200002F074F8139838182F46A84201DC2246AC
:1027300001E0109962180B9D08996918B94204DCF0
:10274000C31B0ADDCC1BDBDC0AE014460F9A069B98
:10275000D2180F922246C31BF4DC0346CC1BCFDCFD
:102760000C46CDE70498801C81B20E980F91081A90
:10277000C11702464A40551A13998D42089500D850
:10278000139D01280798069001DB01200690002286
:102790001346144603E0641CA0B285422AD30B936F
:1027A0000E9880B2099FB9B22E46154602460B46D6
:1027B000FEF748FA149802F029F8139828183546BD
:1027C000B04202DD10997F1809970B9E0899711885
:1027D000A94204DC421B08DD4B1BDCDC08E00E9A3E
:1027E000069BD2180E92421BF6DC02464B1BD2DC33
:1027F0000B46D0E70598049908180B9080B20D9904
:10280000401AC11702464A40571A12998F42109730
:1028100000D8129F012807980E900A9801DB012129
:102820000E91002302461C461E4603E0761CB0B201
:1028300087422DD313940D9880B291B2144602466C
:102840003D461F460B46FEF7FDF9149801F0DEFFEA
:10285000129838182F46A84201DC224601E011994F
:102860006218139D10996918B94204DCC31B0ADD74
:10287000CC1BDBDC0AE014460D9A0E9BD2180D929D
:102880002246C31BF4DC0346CC1BCFDC0C46CDE751
:102890000B98401C80B20C99401AC11702464A405E
:1028A000571A12998F42109700D8129F0128079843
:1028B0000E900A9801DB01210E91002302461C466E
:1028C0001E4603E0761CB0B287422DD313940C98B9
:1028D00080B291B2144602463D461F460B46FEF7B3
:1028E000B1F9149801F092FF129838182F46A842B7
:1028F00001DC224601E011996218139D10996918B4
:10290000B94204DCC31B0ADDCC1BDBDC0AE0144645
:102910000C9A0E9BD2180C922246C31BF4DC034681
:10292000CC1BCFDC0C46CDE70B98801C80B20F99F6
:10293000401AC11702464A40571A12998F421097FF
:1029400000D8129F012801DB0120079000221346C6
:10295000144603E0641CA0B287422AD313930F9855
:1029600080B20A9DA9B23E46174602460B46FEF7C4
:1029700069F9149801F04AFF129838183746B042A6
:1029800002DD11996D180A95139E10997118B942BC
:1029900004DCC21B08DDCB1BDCDC08E0079A0F9BC4
:1029A0009B180F93C21BF6DC0246CB1BD2DC0B46F6
:1029B000D0E715B0F0BD0000F0B59BB007910990CD
:1029C0000520504305900E20504306900A205043A6
:1029D0000F901F2008900A92002A00D183E10898E6
:1029E000C0431B300A994843079A83180F9A9818D6
:1029F00080B214254D435919019189B20D910026D9
:102A0000F143002A13910F4600D10F9F0D99421AEE
:102A1000049399B202900B91401A01210128129758
:102A200000DB1291D3170F9CA54200D1139603959A
:102A300014465C40012A00DB13910A9A51000E9162
:102A4000E11A1691C1174840401A1590FC480E3003
:102A50005043099941180C9708E0119E761C109973
:102A6000491C0E9886420C9F00D180E00F980818F0
:102A700080B2109189B21A91401AC11702464A4099
:102A8000551A15998D42199500D8159D1196012852
:102A9000149701DB0120149000240B9B1A9A264600
:102AA000274603E07F1CB8B2854227D317961892B9
:102AB00090B299B2024626461C460B46FEF7C2F873
:102AC000DF4801F0A3FE15983018A84201DC234628
:102AD00001E012996318179A19995118A94203DC59
:102AE000189A441B05DD05E0149A189EB218441B81
:102AF00000DC04464E1BD5DC0E46D3E71698199D24
:102B0000854200D8169D00220D9E1346144604E00F
:102B1000641CA0B28542189E9FD317931A9880B266
:102B2000B1B22F46154602460B46FEF78BF8C44855
:102B300001F06CFE169828183D46B84201DD139945
:102B400076181896179F19997918A94204DC421B28
:102B500008DD4B1BDCDC08E01A9A149BD2181A9291
:102B6000421BF6DC02464B1BD2DC0B46D0E70A9830
:102B70000028049900D1B6E0019880B20D9000269B
:102B8000F2430F9800281392174600D10F9F029826
:102B90000D9A821A89B20B91401A012101281297CD
:102BA000039D00DB1291D3170F9CA54200D1139611
:102BB00014465C40012A00DB1391E11A1691C117FB
:102BC0004840401A15900A98C000099941180C977E
:102BD00008E0119E761C1099491C0E9886420C9FA5
:102BE00000D180E00F98081882B2109188B21A9232
:102BF000801AC11702464A40551A15998D421995F7
:102C000000D8159D11960128149701DB012014901E
:102C100000240B9B1A9A2646274603E07F1CB8B275
:102C2000854227D31796189290B299B2024626464B
:102C30001C460B46FEF706F8814801F0E7FD1598A3
:102C40003018A84201DC234601E012996318179A54
:102C500019995118A94203DC189A441B05DD05E0B7
:102C6000149A189EB218441B00DC04464E1BD5DC97
:102C70000E46D3E71698199D854200D8169D00226E
:102C80000D9E1346144604E0641CA0B28542189EB3
:102C90009FD317931A9880B2B1B22F4615460246B9
:102CA0000B46FDF7CFFF664801F0B0FD16982818D7
:102CB0003D46B84201DD139976181896179F199969
:102CC0007918A94204DC421B08DD4B1BDCDC08E060
:102CD0001A9A149BD2181A92421BF6DC02464B1B1E
:102CE000D2DC0B46D0E70A9B079818180F994018BA
:102CF00086B20599401880B21090801BC117024619
:102D00004A40541A4E4A19325A430999521893B2FA
:102D1000069989080B910E9251180C9189B2159160
:102D20001893C91ACA170B4653409D1A1994A54205
:102D30001395149501D8199A14920025EB43109A13
:102D4000B2420D9300D12B4601220128169318465A
:102D500000DB16920B9B002B01D10B9B0D93179060
:102D600001290D98129000DB12920898C0021A9067
:102D70000F9632462B462F46149E03E07F1CB8B2B6
:102D800086422AD31493189880B291B21446024610
:102D90000B46FDF757FF1A9801F038FD19982818CF
:102DA000B04201DC224601E016996218149D139985
:102DB0006918B14204DC851B0ADD8B1BDEDC0AE0EE
:102DC0001446189A129BD21818922246851BF4DCDE
:102DD00005468B1BD2DC0B46D0E70E98401C83B215
:102DE0000C98401C80B21490C01AC11702464A4089
:102DF000571A19998F42129700D8199F01280D98D8
:102E000011900F9801DB0121119100240246254603
:102E1000264603E0761CB0B287422BD31395189355
:102E200098B291B2154602460B46FDF70BFF1A9871
:102E300001F0ECFC19982018B84203DC2A4603E0A4
:102E4000E0FF000016996A181299139B5918B942AD
:102E5000189B04DCC41B08DDCD1BDBDC08E014463A
:102E6000119A9B182246C41BF6DC0446CD1BD1DC0C
:102E70000D46CFE70E98801C83B20C98801C80B260
:102E80001390C01AC11702464A40571A19998F4227
:102E9000119700D8199F01280D980E900F9801DB0B
:102EA00001210E91002402462546264603E0761CA9
:102EB000B0B2874229D31295189398B291B21546B1
:102EC00002460B46FDF7BEFE1A9801F09FFC1998CA
:102ED0002018B84201DC2A4601E016996A181199B7
:102EE000129B5918B942189B04DCC41B08DDCD1B8A
:102EF000DDDC08E014460E9A9B182246C41BF6DC63
:102F00000446CD1BD3DC0D46D1E7109C0F98001B67
:102F1000C11702464A40551A0B990C9A51180A914A
:102F20008AB215991292511ACA170B4653409F1A2A
:102F30001895AF420E9700D8189F0122012800DB98
:102F4000179201290D980C9000DB0C920023224669
:102F50001C461D4603E06D1CA8B287422DD3119478
:102F6000159880B291B2144602463E461F460B4663
:102F7000FDF768FE1A9801F049FC18983818374692
:102F8000B04201DC224601E017996218119E0E99A9
:102F90007118B94204DCC31B0ADDCC1BDBDC0AE080
:102FA0001446159A0C9BD21815922246C31BF4DCCA
:102FB0000346CC1BCFDC0C46CDE70A98401C81B2FF
:102FC00014981591081AC11702464A40571A1899C1
:102FD0008F420E9700D8189F01280D980C901098DA
:102FE00001DB01210C91002302461C461D4603E033
:102FF0006D1CA8B287422DD31194149880B291B25F
:10300000144602463E461F460B46FDF71BFE1A9825
:1030100001F0FCFB189838183746B04201DC224614
:1030200001E017996218119E0E997118B94204DCDB
:10303000C31B0ADDCC1BDBDC0AE01446149A0C9B94
:10304000D21814922246C31BF4DC0346CC1BCFDCFF
:103050000C46CDE70A98801C81B213981491081A87
:10306000C11702464A40561A18998E420E9600D849
:10307000189E01280D980C90109801DB01210C91ED
:10308000002302461C461D4603E06D1CA8B2864282
:103090002DD31194139880B291B21446024637464C
:1030A0001E460B46FDF7CEFD1A9801F0AFFB1898AF
:1030B00030183E46B84201DC224601E017996218FA
:1030C000119F0E997918B14204DC831B0ADD8C1B19
:1030D000DBDC0AE01446139A0C9BD21813922246AA
:1030E000831BF4DC03468C1BCFDC0C46CDE70B982E
:1030F0000A9908180A9081B212981391081AC117F8
:1031000002464A40561A19998E420E9600D8199EC8
:1031100001280D980C9001DB01200C9000230F9AE0
:103120001C461D4603E06D1CA8B286422DD31194A7
:10313000129880B291B21446024637461E460B469C
:10314000FDF780FD1A9801F061FB199830183E4692
:10315000B84201DC224601E016996218119F0E99CF
:103160007918B14204DC831B0ADD8C1BDBDC0AE02E
:103170001446129A0C9BD21812922246831BF4DC3E
:1031800003468C1BCFDC0C46CDE70A98401C81B26D
:1031900015981291081AC11702464A40561A1999F1
:1031A0008E420E9600D8199E01280D980C9001DBD6
:1031B00001200C9000230F9A1C461D4603E06D1C55
:1031C000A8B286422DD31194159880B291B21446BC
:1031D000024637461E460B46FDF734FD1A9801F0AD
:1031E00015FB199830183E46B84201DC224601E032
:1031F00016996218119F0E997918B14204DC831B4D
:103200000ADD8C1BDBDC0AE01446159A0C9BD218F5
:1032100015922246831BF4DC03468C1BCFDC0C4644
:10322000CDE70A98801C81B214981591081AC1172D
:1032300002464A40571A19998F420E9700D8199F93
:1032400001280D980C9001DB01200C900022134600
:10325000144603E0641CA0B287422AD31193149849
:1032600080B20F9EB1B23D46174602460B46FDF7AF
:10327000E9FC1A9801F0CAFA199838182F46A842A2
:1032800002DD169976180F96119D0E996918B942AC
:1032900004DCC21B08DDCB1BDCDC08E0149A0C9BB1
:1032A000D2181492C21BF6DC0246CB1BD2DC0B46B2
:1032B000D0E70B980A990818119080B21399401A18
:1032C000C11702464A40561A18998E42169600D8DF
:1032D000189E01280D981490109801DB012114917B
:1032E000002302461C461D4603E06D1CA8B2864220
:1032F0002DD31994139880B291B2144602463746E2
:103300001E460B46FDF79EFC1A9801F07FFA1898AE
:1033100030183E46B84201DC224601E01799621897
:10332000199F16997918B14204DC831B0ADD8C1BA6
:10333000DBDC0AE01446139A149BD218139222463F
:10334000831BF4DC03468C1BCFDC0C46CDE71198C5
:10335000401C80B21299401AC11702464A40561AC0
:1033600018998E42169600D8189E01280D98149030
:10337000109801DB01211491002302461C461D46D2
:1033800003E06D1CA8B286422DD31994129880B226
:1033900091B21446024637461E460B46FDF752FCD4
:1033A0001A9801F033FA189830183E46B84201DCFA
:1033B000224601E017996218199F16997918B142AF
:1033C00004DC831B0ADD8C1BDBDC0AE01446129A4A
:1033D000149BD21812922246831BF4DC03468C1BEA
:1033E000CFDC0C46CDE71198801C80B21599401AAD
:1033F000C11702464A40561A18998E42169600D8AE
:10340000189E012801DB01200D900022134614466E
:1034100003E0641CA0B286422AD31993159880B2A7
:10342000109FB9B23546164602460B46FDF70AFC18
:103430001A9801F0EBF9189830182E46A84202DDD0
:1034400017997F181097199D16996918B14204DCD5
:10345000821B08DD8B1BDCDC08E00D9A159B9B189A
:103460001593821BF6DC02468B1BD2DC0B46D0E7A1
:103470001BB0F0BDF0B589B0049305910446002758
:10348000824201D1039701E0F84303900192101B9F
:10349000012801DB01210391C1174840401A079020
:1034A0000E98089025463E4603E0761CB0B2814255
:1034B00011D3A8B2059902460B46FDF7C3FB089845
:1034C00001F0A4F9002F01D003982D18002F0799BF
:1034D000EBD17F18E9E7002705980499814201D1D3
:1034E000029701E0F843029005980499081A012810
:1034F00001DB01210291C1174840401A0690059E48
:103500003D4603E06D1CA8B2814211D3B1B2204602
:1035100022460B46FDF796FB089801F077F9002F3D
:1035200001D002983618002F0699EBD17F18E9E7F1
:1035300000252E46059F03E0761CB0B2814211D3D0
:10354000A0B2049902460B46FDF77CFB089801F0F7
:103550005DF9002D01D003982418002D0799EBD1B7
:103560006D18E9E700242546019E03E06D1CA8B212
:10357000814211D3B9B2304632460B46FDF762FBA9
:10358000089801F043F9002C01D002983F18002C54
:103590000699EBD16418E9E709B0F0BDF0B591B038
:1035A0000025EF22284629461346FDF74BFB2C4603
:1035B0002E460027384601F029F9701CEF2E0646EA
:1035C000F7D3601CEF2C0446F2D3C34800900420CC
:1035D000EC2201461346FFF74DFF1F2500950820FA
:1035E000E82201461346FFF745FF012003903946C4
:1035F0000D970F9505E000200299C9070A9900D19F
:1036000092E0029038200843573180B2079088B288
:103610000690394605E00499481C89B20229014602
:10362000E9D2142004910590014344243A4608E06D
:10363000089A521CA9A0845C09991031072A0D9F91
:10364000E9D0089288B209910F318AB20799069B96
:10365000FDF7F8FA203CE0B28001A24908180C906E
:103660003E4604E02146761C402E0D46E0D00C98E4
:10367000805D012110900A9108404042284001F0ED
:10368000C5F829460F250E950B97BD430D9C27467F
:10369000E9D010988007C017084001F0B7F80F99DB
:1036A000012D2746DFD010984007C017084001F0D1
:1036B000ADF80F99022D2746D5D010980007C017F6
:1036C000084001F0A3F80F99032D2746CBD010989E
:1036D000C006C017084001F099F80F99042D27463D
:1036E000C1D010988006C017084001F08FF80F99DC
:1036F000052D2746B7D010984006C017084001F0A6
:1037000085F80F99062D2746ADD00C46109840B28B
:1037100000270028384600DA204601F077F8072D08
:10372000A0D00B9F08379DE70026039831460D96E1
:1037300005E000200299C9070A9900D18FE00290A4
:103740006C2008438B3180B2079088B206903046D7
:1037500004E00499481C89B20229EAD20490014687
:10376000059801434C24324608E0089A521CDFA019
:10377000845C09991031042A0D9EEAD0089288B21F
:1037800009910F318AB20799069BFDF75BFA203C3D
:10379000E0B28001D44908180C90374602E07F1C43
:1037A000402FE2D00C98C05D012110900A91084092
:1037B00040421F210F91084001F028F80E9D0B9602
:1037C000B5430D9C2646EAD010988007C0170F9984
:1037D000084001F01BF8012D2646E0D01098400764
:1037E000C0170F99084001F011F8022D2646D6D0D7
:1037F00010980007C0170F99084001F007F8032D33
:103800002646CCD01098C006C0170F99084000F08B
:10381000FDFF042D2646C2D010988006C0170F99D0
:10382000084000F0F3FF052D2646B8D0109840065A
:10383000C0170F99084000F0E9FF062D2646AED0CC
:103840000F99109840B200260028304600DA08464A
:1038500000F0DCFF072DA2D00B9E08369FE7002565
:1038600029460C950C9F06E000200399C907039098
:103870000A9900D1D2E0AA200843C13180B2079052
:1038800088B20690284604E00499481C89B20229AF
:10389000EAD204900146059801436F242A4608E0C5
:1038A000089A521C94A0845C09990C31062A0C9D3C
:1038B000EAD0089288B209910B318AB20799069B27
:1038C000FDF7C0F9203CE0B230214143894840185F
:1038D0000B902E462C460AE0FF7F000044616E6389
:1038E000696E670000750000761C302ED8D00B98EA
:1038F000805D012110900A91084040421F210F91E4
:10390000084000F083FF5420C5430D950E94654395
:10391000284655388101C0B280084018C0B2162828
:103920003C46E1D310988007C0170F99084000F07B
:103930006DFF284656308101C0B280084018C0B2E1
:1039400016283C46D0D310984007C0170F9908405E
:1039500000F05CFF681C8101C0B280084018C0B252
:1039600016283C46C0D310980007C0170F9908408E
:1039700000F04CFF284654388101C0B2800840183E
:10398000C0B216283C46AFD31098C006C0170F9996
:10399000084000F03BFF284657308101C0B2800844
:1039A0004018C0B216283C469ED310988006C01717
:1039B0000F99084000F02AFFA81C8101C0B28008BE
:1039C0004018C0B216283C468ED310984006C01747
:1039D0000F99084000F01AFF533DA801E9B2890889
:1039E0000818C0B216283C4600D27DE70F991098FF
:1039F00040B200240028204600DA08460E9D083513
:103A000000F004FF0D9969438801C9B289080818BC
:103A1000C0B2162800D267E72C4665E710251927A3
:103A2000284639462A463B46FDF70CF93F2044011B
:103A3000204600F0EBFEE0263046394632463B4653
:103A4000FDF700F9204600F0E1FE2327284639461D
:103A50002A463B46FDF7F6F8204600F0D7FE3046F2
:103A6000394632463B46FDF7EDF8204600F0CEFEE3
:103A70002D27284639462A463B46FDF7E3F82046DF
:103A800000F0C4FE3046394632463B46FDF7DAF8D0
:103A9000204600F0BBFE3727284639462A463B46DB
:103AA000FDF7D0F8204600F0B1FE304639463246E8
:103AB0003B46FDF7C7F8204600F0A8FE4127284600
:103AC00039462A463B46FDF7BDF8204600F09EFEEB
:103AD0003046394632463B46FDF7B4F8204600F002
:103AE00095FE11B0F0BDC046007500004C696F6EC8
:103AF00000000000306300006F6E204D4355000051
:103B0000F0B583B01C4615460E46511E8AB2591EAA
:103B10008BB202903146FDF795F80194A64212D27D
:103B2000089C04E0761CB0B2019988420BD202983E
:103B3000A842F7D2029F204600F068FE7F1CB8B270
:103B4000A842F8D3EEE703B0F0BD0000F0B583B0B3
:103B5000012778060290FC4D28606424204601F07D
:103B600025FF2E46103E02983060204601F01EFFD1
:103B700038033060204601F019FF380628600146FE
:103B80000190B80428600290FC062C60BF062F60EC
:103B900034602C602F6034602C602F6034602C60A7
:103BA000376034602C602F6034602C602F6034608C
:103BB0002C602F6034602C6037603460306031607E
:103BC000782001F0F3FE01982860029929602C60AA
:103BD0002F6034602C602F6034602C60376034605C
:103BE0002C60376034602C602F6034602C6037604C
:103BF00034602C60376034602C602F60346031603A
:103C0000306029602C602F6034602C602F6034603D
:103C10002C602F6034602C602F6034602C602F602B
:103C200034602C602F6034602C602F6034602C6016
:103C30002F6034603160286029602C602F60346010
:103C40002C602F6034602C60376034602C603760EB
:103C500034602C60376034602C602F6034602C60DE
:103C6000376034602C602F603460316030602960D0
:103C70002C602F6034602C602F6034602C602F60CB
:103C800034602C602F6034602C602F6034602C60B6
:103C9000376034602C602F6034602C603760346093
:103CA0003160286029602C60376034602C602F60A0
:103CB00034602C60376034602C60376034602C6076
:103CC0002F6034602C602F6034602C60376034606B
:103CD0002C602F6034603160306029602C602F6070
:103CE00034602C602F6034602C602F6034602C6056
:103CF0002F6034602C60376034602C603760346033
:103D00002C602F6034602C602F603460316029603B
:103D10002C602F6034602C602F6034602C602F602A
:103D200034602C602F6034602C60376034602C600D
:103D3000376034602C602F6034602C602F603460FA
:103D4000316029602C602F6034602C602F603460FB
:103D50002C602F6034602C602F6034602C602F60EA
:103D600034602C602F6034602C602F6034602C60D5
:103D70002F603460316029602C602F6034602C60CB
:103D80002F6034602C60376034602C6037603460A2
:103D90002C602F6034602C602F6034602C603760A2
:103DA00034602C6037603460316029602C602F6093
:103DB00034602C602F6034602C60376034602C607D
:103DC000376034602C602F6034602C602F6034606A
:103DD0002C60376034602C6037603460316028605C
:103DE00029602C60376034602C602F6034602C6058
:103DF000376034602C60376034602C602F60346032
:103E00002C60376034602C60376034602C60376021
:103E100034603160306029602C602F6034602C6029
:103E20002F6034602C60376034602C603760346001
:103E30002C602F6034602C60376034602C602F6001
:103E400034602C60376034603160286029602C60F9
:103E5000376034602C602F6034602C6037603460D1
:103E60002C60376034602C60376034602C602F60C9
:103E700034602C60376034602C60376034603160AF
:103E8000306029602C602F6034602C602F603460BB
:103E90002C60376034602C60376034602C602F6099
:103EA00034602C60376034602C60376034602C6084
:103EB000376034603160286029602C60376034607E
:103EC0002C60376034602C602F6034602C602F6071
:103ED00034602C602F6034602C602F6034602C6064
:103EE0002F6034602C602F60346031603060296056
:103EF0002C602F6034602C602F6034602C60376041
:103F000034602C602F6034602C60376034602C602B
:103F1000376034602C602F6034602C602F60346018
:103F20003160286029602C60376034602C60376015
:103F300034602C602F6034602C602F6034602C6003
:103F40002F6034602C6001E0A0120A402F603460C2
:103F50002C60376034602C602F60346031603060DA
:103F600029602C602F6034602C602F6034602C60DE
:103F70002F6034602C602F6034602C602F603460C0
:103F80002C602F6034602C602F6034602C603760B0
:103F900034603160286029602C60376034602C60A8
:103FA000376034602C602F6034602C602F60346088
:103FB0002C602F6034602C602F6034602C60376080
:103FC00034602C60376034603160306029602C6070
:103FD0002F6034602C602F6034602C602F60346060
:103FE0002C60376034602C602F6034602C602F6050
:103FF00034602C60376034602C602F603460316036
:10400000286029602C60376034602C603760346031
:104010002C602F6034602C602F6034602C602F6027
:1040200034602C60376034602C602F6034602C600A
:104030002F6034603160306029602C602F60346004
:104040002C602F6034602C60376034602C602F60EF
:1040500034602C602F6034602C602F6034602C60E2
:104060002F6034602C602F603460316028602960DC
:104070002C60376034602C60376034602C602F60B7
:1040800034602C602F6034602C602F6034602C60B2
:10409000376034602C60376034602C602F6034608F
:1040A0003160306029602C602F6034602C602F609C
:1040B00034602C602F6034602C602F6034602C6082
:1040C000376034602C60376034602C603760346057
:1040D0002C60376034603160286029602C60376064
:1040E00034602C60376034602C602F6034602C604A
:1040F000376034602C602F6034602C602F60346037
:104100002C602F6034602C602F6034603160306030
:1041100029602C60376034602C602F6034602C6024
:10412000376034602C602F6034602C602F60346006
:104130002C60376034602C602F6034602C602F60FE
:104140003460316029602C60376034602C602F60EF
:1041500034602C60376034602C602F6034602C60D9
:104160002F6034602C602F6034602C602F603460CE
:104170002C60376034603160286029602C603760C3
:1041800034602C60376034602C60376034602C60A1
:104190002F6034602C602F6034602C602F6034609E
:1041A0002C602F6034602C602F6034603160306090
:1041B00029602C60376034602C60376034602C607C
:1041C0002F6034602C60376034602C602F60346066
:1041D0002C602F6034602C602F6034602C602F6066
:1041E0003460316029602C602F6034602C602F6057
:1041F00034602C602F6034602C602F6034602C6041
:104200002F6034602C60376034602C602F60346025
:104210002C602F603460316029602C602F60346026
:104220002C602F6034602C602F6034602C602F6015
:1042300034602C60376034602C60376034602C60F0
:104240002F6034602C6037603460316029602C60EE
:104250002F6034602C602F6034602C602F603460DD
:104260002C60376034602C602F6034602C602F60CD
:1042700034602C602F6034602C60376034603160B3
:1042800029602C602F6034602C602F6034602C60BB
:104290002F6034602C60376034602C602F60346095
:1042A0002C602F6034602C60376034602C60376085
:1042B0003460316029602C602F6034602C602F6086
:1042C00034602C60376034602C602F6034602C6068
:1042D000376034602C602F6034602C60376034604D
:1042E0002C6037603460316029602C602F6034604E
:1042F0002C602F6034602C60376034602C60376035
:1043000034602C60376034602C60376034602C601F
:10431000376034602C6037603460316029602C6015
:104320002F6034602C60376034602C602F60346004
:104330002C60376034602C602F6034602C603760F4
:1043400034602C602F6034602C602F6034603160EA
:1043500029602C602F6034602C60376034602C60E2
:104360002F6034602C602F6034602C6037603460C4
:104370002C60376034602C602F6034602C602F60BC
:104380003460316029602C602F6034602C602F60B5
:1043900034602C602F6034602C60376034602C6097
:1043A000376034602C602F6034602C602F60346084
:1043B0002C602F603460316029602C602F60346085
:1043C0002C602F6034602C602F6034602C602F6074
:1043D00034602C60376034602C60376034602C604F
:1043E0002F6034602C6037603460316029602C604D
:1043F0002F6034602C602F6034602C602F6034603C
:104400002C602F6034602C60376034602C602F602B
:1044100034602C60376034602C6037603460316009
:1044200029602C602F6034602C602F6034602C6019
:104430002F6034602C60376034602C6037603460EB
:104440002C60376034602C60376034602C603760DB
:104450003460316029602C602F6034602C602F60E4
:1044600034602C60376034602C602F6034602C60C6
:104470002F6034602C602F6034602C6037603460B3
:104480002C60376034603160286029602C603760B0
:1044900034602C60376034602C60376034602C608E
:1044A0002F6034602C602F6034602C602F6034608B
:1044B0002C602F6034602C60376034603160306075
:1044C00029602C60376034602C60376034602C6069
:1044D0002F6034602C60376034602C602F60346053
:1044E0002C602F6034602C602F6034602C602F6053
:1044F0003460316029602C602F6034602C602F6044
:1045000034602C602F6034602C602F6034602C602D
:104510002F6034602C60376034602C602F60346012
:104520002C602F603460316029602C602F60346013
:104530002C602F6034602C602F6034602C602F6002
:1045400034602C60376034602C60376034602C60DD
:104550002F6034602C602F603460316029602C60E3
:104560002F6034602C602F6034602C602F603460CA
:104570002C60376034602C602F6034602C602F60BA
:1045800034602C602F6034602C60376034603160A0
:1045900029602C602F6034602C602F6034602C60A8
:1045A0002F6034602C60376034602C602F60346082
:1045B0002C602F6034602C60376034602C60376072
:1045C0003460316029602C602F6034602C602F6073
:1045D00034602C60376034602C602F6034602C6055
:1045E000376034602C60376034602C602F6034603A
:1045F0002C602F603460316029602C602F60346043
:104600002C602F6034602C60376034602C60376021
:1046100034602C60376034602C60376034602C600C
:10462000376034602C6037603460316029602C6002
:104630002F6034602C60376034602C602F603460F1
:104640002C602F6034602C602F6034602C603760E9
:1046500034602C602F6034602C602F6034603160D7
:1046600029602C602F6034602C60376034602C60CF
:104670002F6034602C60376034602C602F603460B1
:104680002C602F6034602C602F6034602C603760A9
:104690003460316029602C602F6034602C602F60A2
:1046A00034602C60376034602C602F6034602C6084
:1046B000376034602C60376034602C603760346061
:1046C0002C6037603460316029602C602F6034606A
:1046D0002C602F6034602C602F6034602C60376059
:1046E00034602C60376034602C60376034602C603C
:1046F000376034602C6037603460316029602C6032
:104700002F6034602C602F6034602C602F60346028
:104710002C60376034602C60376034602C60376008
:1047200034602C60376034602C60376034603160F6
:1047300029602C602F6034602C602F6034602C6006
:10474000376034602C602F6034602C602F603460E0
:104750002C602F6034602C602F6034602C602F60E0
:104760003460316029602C602F6034602C602F60D1
:1047700034602C60376034602C602F6034602C60B3
:104780002F6034602C602F6034602C6037603460A0
:104790002C60376034603160286029602C602F60A5
:1047A00034602C602F6034602C60376034602C6083
:1047B0002F6034602C602F6034602C602F60346078
:1047C0002C602F6034602C60376034603160306062
:1047D000286029602C602F6034602C602F6034606A
:1047E0002C60376034602C602F6034602C60376040
:1047F00034602C602F6034602C602F6034602C603B
:10480000376034603160306003B0F0BDF0B5012531
:10481000A904534A1161EB06136106B21446103421
:10482000002E264600DA1646AD0635601360136189
:10483000060A7706274600D517463D6013601361C8
:10484000B706274600D517463D6013601361F7068B
:10485000274600D517463D6013601361370727468A
:1048600000D517463D60136013617707274600D5D2
:1048700017463D6013601361B707274600D51746FA
:104880003D6013601361F607264600D0164635607A
:10489000136011601161136146B2002E264600DAE2
:1048A00016463560136013614606264600D5164647
:1048B0003560136013618606264600D516463560BE
:1048C00013601361C606264600D516463560136090
:1048D00013610607264600D516463560136013613E
:1048E0004607264600D516463560136013618607D5
:1048F000264600D51646356013601361C00700D008
:104900001446256013601160F0BDC04670B50120EB
:104910008503084E3560FA24204601F047F83560DB
:10492000204601F043F83560204601F03FF835603D
:1049300070BDC046B0120A400120800304490860DF
:104940007047C04601208003014908607047C04697
:10495000A0120A4001208003014908607047C04648
:1049600090120A40F0B5234985220A6301246305A9
:10497000214803604A63A30503608823CB60E303F7
:1049800003604A61630403608A6323051B4A136062
:104990001B4D1C4E2E60EE6064062F6827432F606F
:1049A000EF682743EF602C46083C822727602C1FC6
:1049B000761E26608124CC626C658C6081334B60EE
:1049C0008C664C664C650C65CC648C610C610C602B
:1049D0000146303957231B030B60014640391F2322
:1049E000DB050B600849016010463038074901605B
:1049F0001160F0BD88804240D0120A40D0320A4097
:104A00000C804240830004000070850F8000080085
:104A100080B511481149FBF7DBFE03204102104825
:104A200002680A43026001210A020368134303601B
:104A3000002242611F224262826B07239A438263F3
:104A40001A02836B93438363826A04231343836252
:104A5000826A0A43826280BD00000F40C08C000061
:104A600000120F40B0B582B0104C11492046FBF740
:104A700095FF10492046FBF701FF0F49002520460E
:104A80002A46FBF783FF0095204629462A462B46F7
:104A9000FBF770FF204629462A46FBF75DFF0748D3
:104AA00001218160016002B0B0BDC04600008740B6
:104AB000C28C0000C88C0000409C000000118740A0
:104AC000F0B581B02B4C2C492046FBF767FF2B49F2
:104AD0002046FBF791FE2A4E0025204631462A4605
:104AE000FBF754FF0095204629462A462B46FBF744
:104AF00041FF204629462A46FBF72EFF0127204684
:104B000031463A46FBF742FF0097204629462A469F
:104B10002B46FBF72FFF204629463A46FBF71CFFA2
:104B20000226204616493246FBF730FF0096204603
:104B300029462A462B46FBF71DFF204629463246CA
:104B4000FBF70AFF032620460D493246FBF71EFFFE
:104B50000096204629462A462B46FBF70BFF2046A7
:104B600029463246FBF7F8FE064887600F210160B0
:104B700001B0F0BD00008640D08C0000D48C000055
:104B800010270000001186400C480021016003201E
:104B9000C1430B480246083A13680B401360016892
:104BA000012291430160110203688B4303601103EA
:104BB000001F02680A4302607047C04608030B40AA
:104BC00008010B400548042101601F2141600021BC
:104BD0008160016805220A430260704710E000E02E
:104BE00010B5144C14492046FBF70AFF1349204620
:104BF000FBF7E2FE0321CA031148036893430360F5
:104C00000269104B13401A33036142690A433C2185
:104C10008A43426141680122114043689343591815
:104C200041609102084B1C680C431C6001681143F1
:104C3000016010BD00801040DC8C0000DE8C0000A4
:104C4000009110400000FFFF2890104080B500F058
:104C500015F8FFF787FEFFF797FFFFF731FFFFF724
:104C600001FFFFF7D5FEFFF7BBFFFFF7ABFFB82053
:104C7000014900220A5480BDC000202070B50C48B4
:104C80000C4941600C4A51600C4B59600C4C6160FE
:104C90000C4D69600C4E71600C4901601160196027
:104CA0002160296031601020FBF74DFD70BDC046CA
:104CB00000080A40030000B100280A4000088640AE
:104CC0000008874000080F400088104001000026BF
:104CD00010B512480068C0B20B281ED16748C169E0
:104CE0000F4A13887E2B13D813885C1C14800D4A3E
:104CF000D1540268D20708D00268D20705D00268F2
:104D0000D20702D00268D207F3D1C9B2816101E0B3
:104D10000020108004480121017010BD2090104037
:104D20000402202083012020030220205348562122
:104D300081610168C90708D00168C90705D0016809
:104D4000C90702D00168C907F3D14F218161016809
:104D5000C90708D00168C90705D00168C90702D092
:104D60000168C907F3D1492181610268D20708D0DF
:104D70000268D20705D00268D20702D00268D207C3
:104D8000F3D1432282610268D20708D00268D207B9
:104D900005D00268D20702D00268D207F3D14522BB
:104DA00082610268D20708D00268D20705D0026883
:104DB000D20702D00268D207F3D1202282610268B2
:104DC000D20708D00268D20705D00268D20702D005
:104DD0000268D207F3D181610268D20708D0026865
:104DE000D20705D00268D20702D00268D207F3D1F9
:104DF0004E2282610268D20708D00268D20705D02D
:104E00000268D20702D00268D207F3D1816101683B
:104E1000C90708D00168C90705D00168C90702D0D1
:104E20000168C907F3D1542181610168C90708D01D
:104E30000168C90705D00168C90702D00168C90720
:104E4000F3D10D2181610168C90708D00168C90744
:104E500005D00168C90702D00168C907F3D10A214A
:104E600081610168C90708D00168C90705D00168D8
:104E7000C90702D00168C907F3D1704708911040F3
:104E8000F0B583B001A964200870D34801220092D4
:104E9000FBF75EFCD14D2F46083F3868D0490840EB
:104EA000683038602C1F2068CE490840CE49401831
:104EB0002060CE4E30462968490600D40DE12968AD
:104EC000490600D409E12968490600D405E12968AA
:104ED000490600D401E12968490600D4FDE02968AB
:104EE000490600D4F9E02968490600D4F5E02968AC
:104EF000490600D4F1E02968490600D4EDE02968AC
:104F0000490600D4E9E02968490600D4E5E02968AB
:104F1000490600D4E1E02968490600D4DDE02968AB
:104F2000490600D4D9E02968490600D4D5E02968AB
:104F3000490600D4D1E02968490600D4CDE02968AB
:104F4000490600D4C9E02968490600D4C5E02968AB
:104F5000490600D4C1E02968490600D4BDE02968AB
:104F6000490600D4B9E02968490600D4B5E02968AB
:104F7000490600D4B1E02968490600D4ADE01930F3
:104F800099D19B49542088610A68D20708D00A68E1
:104F9000D20705D00A68D20702D00A68D207F3D137
:104FA00058228A610A68D20708D00A68D20705D059
:104FB0000A68D20702D00A68D207F3D120228A6198
:104FC0000A68D20708D00A68D20705D00A68D20753
:104FD00002D00A68D207F3D188610A68D20708D0E4
:104FE0000A68D20705D00A68D20702D00A68D20739
:104FF000F3D149228A610A68D20708D00A68D20729
:1050000005D00A68D20702D00A68D207F3D14D2230
:105010008A610A68D20708D00A68D20705D00A68F0
:10502000D20702D00A68D207F3D145228A610A6802
:10503000D20708D00A68D20705D00A68D20702D082
:105040000A68D207F3D14F228A610A68D20708D0D2
:105050000A68D20705D00A68D20702D00A68D207C8
:10506000F3D155228A610A68D20708D00A68D207AC
:1050700005D00A68D20702D00A68D207F3D1886146
:105080000868C00708D00868C00705D00868C007CE
:1050900002D00868C007F3D10D2088610868C007F6
:1050A00008D00868C00705D00868C00702D00868A3
:1050B000C007F3D10A2088610A680020D20700D116
:1050C00099E30A68D20700D195E30A68D20700D1B4
:1050D00091E30A68D207EFD18DE32868800700D5F5
:1050E0008CE04448FBF72FFB38683D4908406921B4
:1050F0000143396020683B4908403B490843206030
:105100002868400600D409E12868400600D405E17B
:105110002868400600D401E12868400600D4FDE07C
:105120002868400600D4F9E02868400600D4F5E07D
:105130002868400600D4F1E02868400600D4EDE07D
:105140002868400600D4E9E02868400600D4E5E07D
:105150002868400600D4E1E02868400600D4DDE07D
:105160002868400600D4D9E02868400600D4D5E07D
:105170002868400600D4D1E02868400600D4CDE07D
:105180002868400600D4C9E02868400600D4C5E07D
:105190002868400600D4C1E02868400600D4BDE07D
:1051A0002868400600D4B9E02868400600D4B5E07D
:1051B0002868400600D4B1E02868400600D4ADE07D
:1051C0002868400600D4A9E0193699D1002052235E
:1051D0000749094A009DBBE100000F4018120F402B
:1051E00000F8FFFFF8FF00F0070001006079FEFF04
:1051F00008911040102700007F8D0000F3495420D3
:1052000088610868C00708D00868C00705D008682A
:10521000C00702D00868C007F3D158208861086829
:10522000C00708D00868C00705D00868C00702D0CA
:105230000868C007F3D1202088610868C00708D03B
:105240000868C00705D00868C00702D00868C00712
:10525000F3D1452088610868C00708D00868C007F6
:1052600005D00868C00702D00868C007F3D15220F3
:1052700088610A68D20708D00A68D20705D00A6890
:10528000D20702D00A68D207F3D188610A68D20730
:1052900008D00A68D20705D00A68D20702D00A6887
:1052A000D207F3D14F228A610A68D20708D00A6870
:1052B000D20705D00A68D20702D00A68D207F3D114
:1052C00088610868C00708D00868C00705D008686A
:1052D000C00702D00868C007F3D10D2088610868B4
:1052E000C00708D00868C00705D00868C00702D00A
:1052F0000868C007F3D10A2088610A680020D20735
:1053000000D178E20A68D20700D174E20A68D207B5
:1053100000D170E20A68D207EFD16CE228688007FA
:1053200000D557E1AA48696A090700D0E1E1696A36
:10533000090700D0DDE1696A090700D0D9E1696A8F
:10534000090700D0D5E1696A090700D0D1E1696A8F
:10535000090700D0CDE1696A090700D0C9E1696A8F
:10536000090700D0C5E1696A090700D0C1E1696A8F
:10537000090700D0BDE1696A090700D0B9E1696A8F
:10538000090700D0B5E1696A090700D0B1E1696A8F
:10539000090700D0ADE1696A090700D0A9E1696A8F
:1053A000090700D0A5E1696A090700D0A1E1696A8F
:1053B000090700D09DE1696A090700D099E1696A8F
:1053C000090700D095E1696A090700D091E1696A8F
:1053D000090700D08DE1696A090700D089E1696A8F
:1053E000090700D085E1696A090700D081E1193019
:1053F00099D17649522088610868C00708D00868AA
:10540000C00705D00868C00702D00868C007F3D1FC
:10541000582088610868C00708D00868C00705D010
:105420000868C00702D00868C007F3D1202088614F
:105430000868C00708D00868C00705D00868C0071A
:1054400002D00868C007F3D1542088610A68D207E7
:1054500008D00A68D20705D00A68D20702D00A68C5
:10546000D207F3D149228A610A68D20708D00A68B4
:10547000D20705D00A68D20702D00A68D207F3D152
:105480004D228A610A68D20708D00A68D20705D07F
:105490000A68D20702D00A68D207F3D145228A618E
:1054A0000A68D20708D00A68D20705D00A68D2076E
:1054B00002D00A68D207F3D14F228A610A68D20764
:1054C00008D00A68D20705D00A68D20702D00A6855
:1054D000D207F3D155228A610A68D20708D00A6838
:1054E000D20705D00A68D20702D00A68D207F3D1E2
:1054F00088610868C00708D00868C00705D0086838
:10550000C00702D00868C007F3D10D208861086881
:10551000C00708D00868C00705D00868C00702D0D7
:105520000868C007F3D10A2088610A680020D20702
:1055300000D160E10A68D20700D15CE10A68D207B5
:1055400000D158E10A68D207EFD154E1001D135C85
:105550008B610B68DB0708D00B68DB0705D00B6895
:10556000DB0702D00B68DB07F3D103462B43112B7B
:1055700000D13FE1D35C8B610B68DB0708D00B687F
:10558000DB0705D00B68DB0702D00B68DB07F3D124
:1055900013189C788C610C68E40708D00C68E40749
:1055A00005D00C68E40702D00C68E407F3D1DB787F
:1055B0008B610B68DB07C9D00B68DB07C6D00B68B3
:1055C000DB07C3D00B68DB07F3D1BFE708911040BE
:1055D000C0BDF0FF8949522088610A68D20708D00F
:1055E0000A68D20705D00A68D20702D00A68D20733
:1055F000F3D158228A610A68D20708D00A68D20714
:1056000005D00A68D20702D00A68D207F3D1202257
:105610008A610A68D20708D00A68D20705D00A68EA
:10562000D20702D00A68D207F3D145228A610A68FC
:10563000D20708D00A68D20705D00A68D20702D07C
:105640000A68D207F3D188610A68D20708D00A68CD
:10565000D20705D00A68D20702D00A68D207F3D170
:1056600088610A68D20708D00A68D20705D00A689C
:10567000D20702D00A68D207F3D14F228A610A68A2
:10568000D20708D00A68D20705D00A68D20702D02C
:105690000A68D207F3D188610868C00708D0086893
:1056A000C00705D00868C00702D00868C007F3D15A
:1056B0000D2088610868C00708D00868C00705D0B9
:1056C0000868C00702D00868C007F3D10A208861C3
:1056D0000A680020D20700D18DE00A68D20700D105
:1056E00089E00A68D20700D185E00A68D207EFD1C5
:1056F00081E0686802067DD000235B25C549404CE7
:1057000001E01B1DE55C8D610D68ED0708D00D689B
:10571000ED0705D00D68ED0702D00D68ED07F3D158
:10572000E5186E788E610E68F60708D00E68F607E9
:1057300005D00E68F60702D00E68F607F3D1AD78F3
:105740008D610D68ED0708D00D68ED0705D00D6877
:10575000ED0702D00D68ED07F3D103251D43132D8E
:105760000ED0655D8D610D68ED07CAD00D68ED073F
:10577000C7D00D68ED07C4D00D68ED07F3D1C0E7C1
:1057800002AB00249C700F2404401E4D2C5D5C7005
:10579000120FAA5C03E05A785B1C002A0DD08A61C4
:1057A0000A68D207F7D00A68D207F4D00A68D2078D
:1057B000F1D00A68D207F3D1EDE70D228A610A68B9
:1057C000D20708D00A68D20705D00A68D20702D0EB
:1057D0000A68D207F3D10A228A610A68D2070AD07E
:1057E0000A68D20707D00A68D20704D00A68D2072D
:1057F000F3D100E00020C0B203B0F0BD089110402A
:10580000A28D0000918D00007047000080B5FFF769
:105810001DFA0120C003044908600449086004A07F
:10582000FAF7CAFC80BDC04680E200E000E100E07B
:10583000426F61726420496E6974205B5B202A2A82
:10584000204C696F6E2044616E636520526F626FF9
:1058500074202A2A205D5D0D00000000F0B587B09D
:105860004A4800681926770106903946FAF7BAFCCB
:105870000846FAF7B9FE4649FAF7B4FD04463F2058
:1058800001062046059100F0F8FB05467F20C00583
:105890000490214600F0C4FC002D00D104462046AF
:1058A000214600F0F5FBBF210906039100F0F0FB53
:1058B000014600F0EDFB374900F05AFCFAF742FED2
:1058C0005921CC43A04200DC20465A215A2800DB53
:1058D000084601917D21CD0068432F494018B4212D
:1058E000029100F0CFFA2D4941182D480022FBF714
:1058F0004DF83001069908183946FAF773FC084646
:10590000FAF772FE2249FAF76DFD0646059900F096
:10591000B4FB07460498314600F082FC002F00D10A
:1059200006463046314600F0B3FB039900F0B0FB69
:10593000014600F0ADFB174900F01AFCFAF702FE31
:10594000A04200DC20465A2800DB0198454312485B
:105950002818029900F096FA104941180122104CBB
:105960002046FBF713F80F4902222046FBF70EF8FA
:105970000D4903222046FBF709F80F2000F016F826
:10598000BF4908680F30086007B0F0BD7C012020D7
:105990000000484400002042905F010028230000DE
:1059A000000086403D240000FA250000B0B57D21AE
:1059B000090241430E480368262206E0E41A051F47
:1059C0002D686419A2188A4210D21C460368A342AB
:1059D00008D10368A34205D10368A34202D103683A
:1059E000A342F3D09C42E9D9E41AEBE7B0BDC0462C
:1059F00018E000E007490A68D20708D00A68D20711
:105A000005D00A68D20702D00A68D207F3D1C2B221
:105A10008A6170470891104082B0FFF7F7FEFEF7E9
:105A200095F8FDF7BBFDFFF781F96A48FAF7C4FB6B
:105A3000FEF782FFFEF76AFF6748FAF7BDFB00F04A
:105A4000C5F96648FAF7B8FB6548FAF7B5FB65A0F3
:105A5000FAF7B2FB6AA0FAF7AFFB74A0FAF7ACFB57
:105A6000814E824C7E4F7F4D01E0FFF7F7FEFFF73E
:105A700007FA002801D0FBF751F878480078002891
:105A800000D140E03888002800D137E00024295DAB
:105A90004139372900D92CE00120C04679440979E1
:105AA00049008F441B2626212624261F262626262B
:105AB00026262626262623262626261D2626262692
:105AC000262626261B2626212624261F262626268F
:105AD00026262626262623262626261D0C2006E0F8
