:020000040000FA
:10000000000320206D010000710100007301000059
:1000100000000000000000000000000000000000E0
:10002000000000000000000000000000750100005A
:1000300000000000000000007701000079010000CE
:100040007B0100007B0100007B0100007B010000C0
:100050007B0100007B0100007B0100007B010000B0
:10006000000000007B0100007B0100000000000098
:10007000000000007B0100007B010000DD2D00007E
:100080007B0100007B0100007B0100007B01000080
:100090007B0100007B010000000000000000000068
:1000A0007B0100007B010000000000000000000058
:1000B0007B010000000000007B0100007B010000CC
:1000C00000F002F800F042F812A030C808382418F6
:1000D0002D18AC4201D100F039F80FCCA246AB4646
:1000E0000CA730CF2D1B083F3F197C427F1E544484
:1000F0002D090426F441641EAC4201D300F026F819
:100100000126334200D0FB1A3343984754465D46DC
:10011000DFE70000846A0000946A0000000000002D
:100120007047000000000000002300240025002686
:10013000103A01D378C1FBD8520700D330C100D5A3
:100140000B6070471FB51FBD10B510BD00F072FAEF
:100150001146FFF7F7FF03F0A3FB00F08AFA03B4A0
:10016000FFF7F2FF03BC03F095FA000006480047D2
:10017000FEE7FEE7FEE7FEE7FEE7FEE70348044989
:10018000024A044B70470000C1000000000220201A
:10019000000320200002202010B5044603E003F0F5
:1001A0006DFB401C08D020780549641C0028F6D15E
:1001B0000A2003F063FB10BD0020C04310BD000007
:1001C00060002020002203098B4273D3030A8B4274
:1001D00058D3030B8B423CD3030C8B4221D312E048
:1001E00003460B437FD4002243088B4274D3030998
:1001F0008B425FD3030A8B4244D3030B8B4228D339
:10020000030C8B420DD30902FF2212BA030C8B425E
:1002100002D31212090265D0030B8B4219D300E0FE
:10022000090AC30B8B4201D3CB03C01A5241830B83
:100230008B4201D38B03C01A5241430B8B4201D333
:100240004B03C01A5241030B8B4201D30B03C01A5C
:100250005241C30A8B4201D3CB02C01A5241830AD6
:100260008B4201D38B02C01A5241430A8B4201D305
:100270004B02C01A5241030A8B4201D30B02C01A2F
:100280005241CDD2C3098B4201D3CB01C01A524196
:1002900083098B4201D38B01C01A524143098B421F
:1002A00001D34B01C01A524103098B4201D30B0108
:1002B000C01A5241C3088B4201D3CB00C01A52412D
:1002C00083088B4201D38B00C01A524143088B42F2
:1002D00001D34B00C01A5241411A00D2014652418B
:1002E000104670475DE0CA0F00D04942031000D3AA
:1002F000404253409C46002203098B422DD3030AFF
:100300008B4212D38901FC2212BA030A8B420CD30E
:10031000890192118B4208D3890192118B4204D337
:1003200089013AD0921100E08909C3098B4201D3B7
:10033000CB01C01A524183098B4201D38B01C01AF1
:10034000524143098B4201D34B01C01A5241030968
:100350008B4201D30B01C01A5241C3088B4201D317
:10036000CB00C01A524183088B4201D38B00C01AC4
:100370005241D9D243088B4201D34B00C01A52419B
:10038000411A00D201465241104663465B1001D328
:100390004042002B00D54942704763465B1000D3B2
:1003A000404201B50449002802DC491C084000E035
:1003B0000846C046C04602BDFFFFFF7F704770473A
:1003C00070470000F0B5FF252D04C609C209FF27BC
:1003D00004462E400137CB093E4348402A402B407B
:1003E0000746002A6BD0002B69D0AA4267D0AB42E7
:1003F00065D0002800DA32460125ED0529432C435B
:1004000009022002090AD21A4B0C7F24E31A434C3A
:10041000000A7C44E35C7D242404121914145B005C
:10042000A218884201D3521C00E0400049420C4609
:100430005C4324115C43DB016415E318040A5C434C
:10044000C502200D0C4644436419250A5D4323036D
:10045000EC0C0D46654300030019EB184C42A34217
:1004600001D35B18401CD4052018002B07D05B007B
:10047000C91804D3401C002901D1400840003F2185
:1004800089048A4209D3002A08DC1106090F04D026
:10049000032149074018C00FC007F0BD01224100E9
:1004A000120689187F2252069142F6D20521490789
:1004B000C84201D59010F0BDFF20C005F0BD002F4F
:1004C00000DA32461648AA4207D2AB4205D21902D8
:1004D000090E17D0F80FC007F0BDFF2563002D06E9
:1004E000AB42F9D84900A942F6D8AB4201D1A942A2
:1004F000F2D0A94201D1002101E061004908D005F4
:100500000843F0BD1102090EFBD0FF200243D005C5
:10051000F0BD0A460146104654E70000CE3C0000FC
:100520000000C07F10B501469E240002CA15A30733
:10053000002A02D01843002A04DBA21A002A0CDD8C
:10054000D04010BD1206120E01D140004008A21A80
:1005500003D4D04040420028F3DDFF2248001206B9
:10056000904201D9002010BDC817C043584010BDAB
:100570001F22030C02D10F2200041CD0030E01D154
:100580000002083A030F01D10001121F830F01D1AD
:100590008000921E002801DB4000521ED205511837
:1005A000021251181922904004D3491C002801D18D
:1005B0004908490008467047C10FC90700D04042AA
:1005C000012292071143D3E701218907D0E70000F8
:1005D00010B5FF231B0644009C421DD84C009C42D2
:1005E0001AD80346124A0B4307D4401A02D3EFF33A
:1005F000008010BDEFF3008010BD081A03D3EFF3A5
:100600000080904305E0EFF3008001219043C9078B
:10061000084380F3008810BD0D231B041A4204D048
:100620001146002000F02DF810BD00F041F810BD7B
:1006300000000090754600F043F8AE46050069469C
:100640005346C008C000854618B020B5FFF796FD98
:1006500060BCB64600260027C0C5C0C5C0C5C0C521
:10066000C0C5C0C5C0C5C0C5403D490849008D468C
:10067000704710B50446C046C0462046FFF76FFDE0
:1006800010BDC80212D54803400F002804D0C8038B
:10069000C043012188407047EFF30080000100094A
:1006A00003210907084380F3008870470020704742
:1006B00010B5024800F008F810BD00000000C07F2F
:1006C000004870470000202010B50C461107090FA4
:1006D000092904D00A290AD008290CD104E01146BE
:1006E0000820FFF7CEFF06E0510606D501E05106CF
:1006F00001D50120C007214610BDD10607D5010153
:100700000909CC084907000E0006044309E0410F1F
:1007100020024907000A0143200E00061D22D14194
:1007200001430846E7E7811E091F00BFFCD270475E
:10073000F0B582B0002A31D091235B01C3180220AA
:10074000801A0190009255420F2006020320DC69B6
:10075000344227D00F18FC1E24781C602C18022C61
:100760001AD0DA6932421FD0BA1E12781A60019A82
:100770001218032A10D0DA69324217D07A1E127882
:100780001A60002C08D0DA69324208D00A5C1A607C
:10079000001D2A18032ADAD1009800E0002080B258
:1007A00002B0F0BDC01EFAE7801EF8E7401EF6E773
:1007B00070B50A780C231A400124240305196E68C9
:1007C0009E43B2186A604978072211400359934347
:1007D0005918015170BD0000F0B583B00B794A790A
:1007E000002A2AD01A4A1B4C1B4F21252D01202BF1
:1007F00000D07035861802190092C219002B00D162
:1008000088251768474C27407F191760576827408D
:100810007D1955603568464F3D40356075683D40EF
:1008200075600025009C256065608F24E443156990
:100830002540156155692540556101AA13718B79D1
:10084000537109680191114600F008F803B0F0BD3A
:10085000381800005818000078180000F0B584B06F
:100860002E4A821802923A4BC6183F4BC218009289
:100870002B4BC4180A7901910D682A4F202A039244
:100880000AD0254BC018002A17D16B1E029A53605C
:1008900023683B40882517E0681E029A5060206854
:1008A0003840214B1843206060683840184360602E
:1008B000012045071D4F104608E06B08029A53605F
:1008C00023683B400525ED012B4323600099036815
:1008D0003B402B4303603068154B18403060706814
:1008E000184070600020086048608F20C043236972
:1008F0000340236163690340636101984079039970
:100900000843BD21014010680A4B0340C818801CF1
:10091000106004B0F0BDC046741800000418000058
:100920007018000024F93FF001040000FFFFFFCF22
:100930008888FDFF4000FFCF10B507239B041940B6
:1009400092008018024A84589C436118815010BD5F
:100950003018000010B5029CA4000019114319437F
:10096000014A815010BDC046501800009200801806
:10097000014A81507047C0461018000010B501228E
:10098000120383180C789C604B7883508978014A55
:10099000815010BD0C110000B0B511221202835815
:1009A0000124A34383508B780C881C438B882343FA
:1009B000094C1C408358094D1D402B1983508B79DD
:1009C000CC791C43097A21437E2319408018426860
:1009D0009A4351184160B0BD18670000E798FDFFC9
:1009E00010B50122120383180C789C60497881505D
:1009F00010BD000080B5411E0B2914D87944097937
:100A000049008F44053A303A3A3A3A3A2A3B3A1D7D
:100A10003CA0FFF7C1FB02F023F803F025F82448BF
:100A20000121017080BD6C2827D127A0FFF7B4FBFE
:100A300002F016F803F018F81D480221017080BD7D
:100A40002BA0FFF7A9FB02F00BF819480021017059
:100A500003F0D2F801F0FCFF80BD16A0FFF79CFB6D
:100A600001F0F6FF04E00CA0FFF796FB01F0D4FFC5
:100A70000F480021017003F0A3F880BD17A0FFF715
:100A80008BFB01F0EDFF0A480021017003F0D4F860
:100A900001F0DEFF80BDC0465B566F6963655D2077
:100AA000434D443A2057414B4555500D000000003E
:100AB000B40020205B566F6963655D20434D443A66
:100AC0002053544F500D00005B566F6963655D20E5
:100AD000434D443A2044414E43450D005B566F69F7
:100AE00063655D20434D443A205354414E440D000C
:100AF0005B566F6963655D20434D443A205349540A
:100B00000D0000005B566F6963655D20434D443AFC
:100B100020464F52574152440D000000F0B585B0B9
:100B200002930092019101210A06374F3A60134661
:100B300003920A043A600492CE063E608D063D6040
:100B40003C46103C26603E603D6026603E6025606D
:100B500026603E603D6026603E60256026603E6007
:100B60003D6026603E60256026603E603D602660F8
:100B70002260236001F0D0FE009801F0CDFE0398C2
:100B80003860049939603E603D6026603E603D609B
:100B900026603E60256026603E603D6026603E60C7
:100BA000256026603E603D6026603E6025602660D0
:100BB0003E602560266021602060019801F0ACFE57
:100BC000029801F0A9FE03983860049939603E60EC
:100BD0003D6026603E603D6026603E602560266088
:100BE0003E603D6026603E60256026603E60256078
:100BF00026603E603D6026603E603D60266021606C
:100C0000206005B0F0BDC046A0120A40F0B591B01A
:100C10000523534303930E2353430493D500002A23
:100C200016D01F23DB431233534301901C18A6B286
:100C3000631998B20796801B641CA4B25B1C9BB21C
:100C400006941F1B0023002D089303D12C4602E0BD
:100C50000023D5E0DC430595C617FB1701250128C5
:100C60000D940C9400DB0C952C4670403D465D4085
:100C7000012F00DB0D940091059C091B0A91029243
:100C800051000991801B0F90E81A0E90089F394679
:100C900005E00B99491C09988142089F38D00A98B1
:100CA0000B9140181090079E3C4603E07F1CB8B2A1
:100CB000814213D3B0B210998DB2294602462B4619
:100CC000FFF72CFFF84801F027FE002C01D00C980C
:100CD0003618002C0F99E9D16418E7E70027069C25
:100CE0003E4603E0761CB0B28142D2D3A0B2294680
:100CF00002462B46FFF712FFEB4801F00DFE002FD6
:100D000001D00D982418002F0E99EBD17F18E9E738
:100D1000029A002A019813D00621514309188CB277
:100D2000059BCA1890B20894001B491C8CB2511C38
:100D300089B20794091B0027002B05D11E4604E049
:100D400000230099059D5BE0FE43C217CB170124E9
:100D500001280D9600DB0D9450400D465D400129A1
:100D600000DB26460C96801A0F90E81A0E90394642
:100D7000069705E00B99491C09988142069F38D0D7
:100D80000A980B9140181090089E3C4603E07F1C87
:100D9000B8B2814213D3B0B210998DB2294602463F
:100DA0002B46FFF7BBFEC04801F0B6FD002C01D07A
:100DB0000D983618002C0F99E9D16418E7E7002741
:100DC000079C3E4603E0761CB0B28142D2D3A0B26B
:100DD000294602462B46FFF7A1FEB34801F09CFDD1
:100DE000002F01D00C982418002F0E99EBD17F18FA
:100DF000E9E7AD4B1933029A53430099059D0198D9
:100E00001B189CB204988008019004931818029053
:100E100080B20B900E94001BC417034663401E1B48
:100E2000511849198DB2039A891889B20691491B44
:100E3000CA170B4653409A1A0F92964209963746A4
:100E400000D80F9F0024E343069AAA42039300D1DF
:100E50002346012201290C93194600DB0C92019BC9
:100E6000002B01D1019B039301280398089000DB1C
:100E700008920D911F20C002109005952A46234626
:100E8000254603E06D1CA8B287422DD30A930E9825
:100E900080B291B23E462746144602460B46FFF703
:100EA0003DFE109801F038FD0F9838183746B042D3
:100EB00001DC224601E00C9962180A9E099971181A
:100EC000B94204DCC41B0ADDCB1BDBDC0AE01446A0
:100ED0000E9A089BD2180E922246C41BF4DC0446DC
:100EE000CB1BCFDC0B46CDE70498401C83B20298A5
:100EF000401C80B20A90C01AC11702464A40571AD5
:100F00000F998F42089700D80F9F012803980790E8
:100F100001DB012007900024059A2546264603E0C0
:100F2000761CB0B2874229D309950E9398B291B23C
:100F3000154602460B46FFF7F1FD109801F0ECFC58
:100F40000F982018B84201DC2A4601E00C996A1873
:100F50000899099B5918B9420E9B04DCC41B08DD93
:100F6000CD1BDDDC08E01446079A9B182246C41B03
:100F7000F6DC0446CD1BD3DC0D46D1E70498801C7B
:100F800083B20298801C80B20990C01AC117024631
:100F90004A40571A0F998F42079700D80F9F012890
:100FA0000398049001DB012004900024059A254653
:100FB000264603E0761CB0B2874229D308950E93EB
:100FC00098B291B2154602460B46FFF7A7FD10985E
:100FD00001F0A2FC0F982018B84201DC2A4601E07B
:100FE0000C996A180799089B5918B9420E9B04DCA2
:100FF000C41B08DDCD1BDDDC08E01446049A9B18F9
:101000002246C41BF6DC0446CD1BD3DC0D46D1E7DB
:10101000069C0598001BC11702464A40551A0199C3
:10102000029A511800918AB20B990892511ACA1764
:101030000B4653409F1A0E95AF42049700D80E9F5F
:101040000122012800DB0D9201290398029000DBA8
:101050000292002322461C461E4603E0761CB0B2D4
:10106000874230D307940B9880B291B2144602465F
:101070003D461F460B46FFF751FD109801F04CFC12
:101080000E9838182F46A84201DC224601E00D993F
:101090006218079D04996918B94207DCC31B0DDD6E
:1010A000CC1BDBDC0DE0C046E0FF000014460B9AD1
:1010B000029BD2180B922246C31BF1DC0346CC1BC9
:1010C000CCDC0C46CAE70098401C81B20A980B9110
:1010D000081AC11702464A40551A0E998D420495C6
:1010E00000D80E9D012803980290069801DB01218B
:1010F0000291002302461C461E4603E0761CB0B255
:1011000085422DD307940A9880B291B214460246C4
:101110002F461D460B46FFF701FD109801F0FCFB22
:101120000E9828183D46B84201DC224601E00D9990
:101130006218079F04997918A94204DC431B0ADD51
:101140004C1BDBDC0AE014460A9A029BD2180A9276
:101150002246431BF4DC03464C1BCFDC0C46CDE798
:101160000098801C81B209980A91081AC11702469A
:101170004A40571A0E998F42049700D80E9F0128B3
:1011800003980290069801DB012102910023024698
:101190001C461E4603E0761CB0B287422DD307944E
:1011A000099880B291B2144602463D461F460B464E
:1011B000FFF7B4FC109801F0AFFB0E9838182F46DB
:1011C000A84201DC224601E00D996218079D0499AE
:1011D0006918B94204DCC31B0ADDCC1BDBDC0AE066
:1011E0001446099A029BD21809922246C31BF4DCCA
:1011F0000346CC1BCFDC0C46CDE7019800990818BC
:10120000009081B208980991081AC11702464A4015
:10121000571A0F998F42049700D80F9F01280398FF
:10122000029001DB012002900023059A1C461E4615
:1012300003E0761CB0B287422DD30794089880B2A1
:1012400091B2144602463D461F460B46FFF766FC28
:10125000109801F061FB0F9838182F46A84201DC66
:10126000224601E00C996218079D04996918B94259
:1012700004DCC31B0ADDCC1BDBDC0AE01446089A45
:10128000029BD21808922246C31BF4DC0346CC1BF7
:10129000CFDC0C46CDE70098401C81B20B9808913A
:1012A000081AC11702464A40571A0F998F420497ED
:1012B00000D80F9F01280398029001DB01200290C3
:1012C0000023059A1C461E4603E0761CB0B28742F6
:1012D0002DD307940B9880B291B2144602463D4636
:1012E0001F460B46FFF71AFC109801F015FB0F98EC
:1012F00038182F46A84201DC224601E00C996218FA
:10130000079D04996918B94204DCC31B0ADDCC1B94
:10131000DBDC0AE014460B9A029BD2180B922246A1
:10132000C31BF4DC0346CC1BCFDC0C46CDE7009896
:10133000801C81B20A980B91081AC11702464A40D4
:10134000551A0F998D42049500D80F9D01280398D6
:10135000029001DB0120029000221346144603E0B4
:10136000641CA0B285422AD307930A9880B2059FD5
:10137000B9B22E46154602460B46FFF7CFFB109832
:1013800001F0CAFA0F9828183546B04202DD0C99D0
:101390007F180597079E04997118A94204DC421B27
:1013A00008DD4B1BDCDC08E00A9A029BD2180A928B
:1013B000421BF6DC02464B1BD2DC0B46D0E7019801
:1013C00000990818079080B20999401AC11702467F
:1013D0004A40571A0E998F420C9700D80E9F012849
:1013E00003980A90069801DB01210A910023024626
:1013F0001C461E4603E0761CB0B287422DD30F94E4
:10140000099880B291B2144602463D461F460B46EB
:10141000FFF784FB109801F07FFA0E9838182F46DA
:10142000A84201DC224601E00D9962180F9D0C993B
:101430006918B94204DCC31B0ADDCC1BDBDC0AE003
:101440001446099A0A9BD21809922246C31BF4DC5F
:101450000346CC1BCFDC0C46CDE70798401C80B27E
:101460000899401AC11702464A40571A0E998F42EE
:101470000C9700D80E9F012803980A90069801DB6C
:1014800001210A91002302461C461E4603E0761CF9
:10149000B0B287422DD30F94089880B291B214460F
:1014A00002463D461F460B46FFF738FB109801F0F9
:1014B00033FA0E9838182F46A84201DC224601E084
:1014C0000D9962180F9D0C996918B94204DCC31B71
:1014D0000ADDCC1BDBDC0AE01446089A0A9BD21812
:1014E00008922246C31BF4DC0346CC1BCFDC0C461F
:1014F000CDE70798801C80B20B99401AC1170246AD
:101500004A40571A0E998F420C9700D80E9F012817
:1015100001DB0120039000221346144603E0641C03
:10152000A0B287422AD30F930B9880B2069DA9B22E
:101530003E46174602460B46FFF7F0FA109801F0B8
:10154000EBF90E9838183746B04202DD0D996D1848
:1015500006950F9E0C997118B94204DCC21B08DD78
:10156000CB1BDCDC08E0039A0B9B9B180B93C21B84
:10157000F6DC0246CB1BD2DC0B46D0E711B0F0BD47
:10158000F0B589B00493059104460027824201D149
:10159000039701E0F84303900192101B012801DB3F
:1015A00001210391C1174840401A07900E980890F6
:1015B00025463E4603E0761CB0B2814211D3A8B264
:1015C000059902460B46FFF7A9FA089801F0A4F91D
:1015D000002F01D003982D18002F0799EBD17F1809
:1015E000E9E7002705980499814201D1029701E0BB
:1015F000F843029005980499081A012801DB01219B
:101600000291C1174840401A0690059E3D4603E0EE
:101610006D1CA8B2814211D3B1B2204622460B46BE
:10162000FFF77CFA089801F077F9002F01D00298B3
:101630003618002F0699EBD17F18E9E700252E46D2
:10164000059F03E0761CB0B2814211D3A0B2049989
:1016500002460B46FFF762FA089801F05DF9002D8B
:1016600001D003982418002D0799EBD16D18E9E7F4
:1016700000242546019E03E06D1CA8B2814211D3CF
:10168000B9B2304632460B46FFF748FA089801F0E7
:1016900043F9002C01D002983F18002C0699EBD199
:1016A0006418E9E709B0F0BDF0B591B00025EF226C
:1016B000284629461346FFF731FA2C462E460027C6
:1016C000384601F029F9701CEF2E0646F7D3601C4E
:1016D000EF2C0446F2D3C34800900420EC220146CC
:1016E0001346FFF74DFF1F2500950820E82201460D
:1016F0001346FFF745FF0120039039460D970F95DC
:1017000005E000200299C9070A9900D192E00290F1
:1017100038200843573180B2079088B20690394686
:1017200005E00499481C89B202290146E9D2142037
:1017300004910590014344243A4608E0089A521C5B
:10174000A9A0845C09991031072A0D9FE9D008925D
:1017500088B209910F318AB20799069BFFF7DEF92B
:10176000203CE0B28001A24908180C903E4604E0FB
:101770002146761C402E0D46E0D00C98805D01215C
:1017800010900A9108404042284001F0C5F82946CF
:101790000F250E950B97BD430D9C2746E9D0109859
:1017A0008007C017084001F0B7F80F99012D2746B0
:1017B000DFD010984007C017084001F0ADF80F992E
:1017C000022D2746D5D010980007C017084001F019
:1017D000A3F80F99032D2746CBD01098C006C01749
:1017E000084001F099F80F99042D2746C1D01098B0
:1017F0008006C017084001F08FF80F99052D274685
:10180000B7D010984006C017084001F085F80F992E
:10181000062D2746ADD00C46109840B20027002870
:10182000384600DA204601F077F8072DA0D00B9F4C
:1018300008379DE70026039831460D9605E0002005
:101840000299C9070A9900D18FE002906C200843E1
:101850008B3180B2079088B20690304604E004993C
:10186000481C89B20229EAD2049001460598014336
:101870004C24324608E0089A521CDFA0845C099987
:101880001031042A0D9EEAD0089288B209910F31D6
:101890008AB20799069BFFF741F9203CE0B280012C
:1018A000D44908180C90374602E07F1C402FE2D044
:1018B0000C98C05D012110900A91084040421F2100
:1018C0000F91084001F028F80E9D0B96B5430D9C32
:1018D0002646EAD010988007C0170F99084001F0FB
:1018E0001BF8012D2646E0D010984007C0170F992D
:1018F000084001F011F8022D2646D6D010980007B6
:10190000C0170F99084001F007F8032D2646CCD0E8
:101910001098C006C0170F99084000F0FDFF042D75
:101920002646C2D010988006C0170F99084000F0D4
:10193000F3FF052D2646B8D010984006C0170F9922
:10194000084000F0E9FF062D2646AED00F9910980A
:1019500040B200260028304600DA084600F0DCFFDE
:10196000072DA2D00B9E08369FE7002529460C952F
:101970000C9F06E000200399C90703900A9900D143
:10198000D2E0AA200843C13180B2079088B2069005
:10199000284604E00499481C89B20229EAD204903E
:1019A0000146059801436F242A4608E0089A521C14
:1019B00094A0845C09990C31062A0C9DEAD0089207
:1019C00088B209910B318AB20799069BFFF7A6F8F6
:1019D000203CE0B230214143894840180B902E460C
:1019E0002C460AE0FF7F000044616E63696E670069
:1019F000F4520000761C302ED8D00B98805D012167
:101A000010900A91084040421F210F91084000F0B9
:101A100083FF5420C5430D950E94654328465538E1
:101A20008101C0B280084018C0B216283C46E1D3FC
:101A300010988007C0170F99084000F06DFF2846E6
:101A400056308101C0B280084018C0B216283C460A
:101A5000D0D310984007C0170F99084000F05CFFE2
:101A6000681C8101C0B280084018C0B216283C46EC
:101A7000C0D310980007C0170F99084000F04CFF22
:101A8000284654388101C0B280084018C0B21628D8
:101A90003C46AFD31098C006C0170F99084000F01D
:101AA0003BFF284657308101C0B280084018C0B2C1
:101AB00016283C469ED310988006C0170F99084000
:101AC00000F02AFFA81C8101C0B280084018C0B2F3
:101AD00016283C468ED310984006C0170F99084030
:101AE00000F01AFF533DA801E9B289080818C0B2F6
:101AF00016283C4600D27DE70F99109840B200248A
:101B00000028204600DA08460E9D083500F004FF44
:101B10000D9969438801C9B289080818C0B216280E
:101B200000D267E72C4665E7102519272846394675
:101B30002A463B46FEF7F2FF3F204401204600F0D4
:101B4000EBFEE0263046394632463B46FEF7E6FFDE
:101B5000204600F0E1FE2327284639462A463B4628
:101B6000FEF7DCFF204600F0D7FE3046394632460D
:101B70003B46FEF7D3FF204600F0CEFE2D27284639
:101B800039462A463B46FEF7C9FF204600F0C4FE10
:101B90003046394632463B46FEF7C0FF204600F04D
:101BA000BBFE3727284639462A463B46FEF7B6FF96
:101BB000204600F0B1FE3046394632463B46FEF73D
:101BC000ADFF204600F0A8FE4127284639462A46A8
:101BD0003B46FEF7A3FF204600F09EFE3046394606
:101BE00032463B46FEF79AFF204600F095FE11B0C4
:101BF000F0BDC046F45200004C696F6E000000005A
:101C0000244100006F6E204D43550000F0B583B0B5
:101C10001C4615460E46511E8AB2591E8BB20290C2
:101C20003146FEF77BFF0194A64212D2089C04E0E5
:101C3000761CB0B2019988420BD20298A842F7D222
:101C4000029F204600F068FE7F1CB8B2A842F8D37D
:101C5000EEE703B0F0BD0000F0B583B001277806D1
:101C60000290FC4D28606424204601F0E3FD2E46DE
:101C7000103E02983060204601F0DCFD38033060F1
:101C8000204601F0D7FD380628600146019038044F
:101C900028600290FC062C60BF062F6034602C6028
:101CA0002F6034602C602F6034602C6037603460AB
:101CB0002C602F6034602C602F6034602C602F60AB
:101CC00034602C603760346030603160782001F01F
:101CD000B1FD01982860029929602C602F60346062
:101CE0002C602F6034602C60376034602C6037606B
:101CF00034602C602F6034602C60376034602C605E
:101D0000376034602C602F6034603160306029604F
:101D10002C602F6034602C602F6034602C602F604A
:101D200034602C602F6034602C602F6034602C6035
:101D30002F6034602C602F6034602C602F60346022
:101D40003160286029602C602F6034602C602F6027
:101D500034602C60376034602C60376034602C60F5
:101D6000376034602C602F6034602C6037603460E2
:101D70002C602F6034603160306029602C602F60EF
:101D800034602C602F6034602C602F6034602C60D5
:101D90002F6034602C602F6034602C6037603460BA
:101DA0002C602F6034602C603760346031602860B4
:101DB00029602C60376034602C602F6034602C60A8
:101DC000376034602C60376034602C602F60346082
:101DD0002C602F6034602C60376034602C602F6082
:101DE00034603160306029602C602F6034602C607A
:101DF0002F6034602C602F6034602C602F60346062
:101E00002C60376034602C60376034602C602F6049
:101E100034602C602F603460316029602C602F604A
:101E200034602C602F6034602C602F6034602C6034
:101E30002F6034602C60376034602C603760346011
:101E40002C602F6034602C602F603460316029601A
:101E50002C602F6034602C602F6034602C602F6009
:101E600034602C602F6034602C602F6034602C60F4
:101E70002F6034602C602F6034602C602F603460E1
:101E8000316029602C602F6034602C602F603460DA
:101E90002C60376034602C60376034602C602F60B9
:101EA00034602C602F6034602C60376034602C60AC
:101EB00037603460316029602C602F6034602C60A2
:101EC0002F6034602C60376034602C603760346081
:101ED0002C602F6034602C602F6034602C60376081
:101EE00034602C60376034603160286029602C6079
:101EF000376034602C602F6034602C603760346051
:101F00002C60376034602C602F6034602C60376048
:101F100034602C60376034602C603760346031602E
:101F2000306029602C602F6034602C602F6034603A
:101F30002C60376034602C60376034602C602F6018
:101F400034602C60376034602C602F6034602C600B
:101F5000376034603160286029602C6037603460FD
:101F60002C602F6034602C60376034602C603760E8
:101F700034602C60376034602C602F6034602C60DB
:101F8000376034602C6037603460316030602960C5
:101F90002C602F6034602C602F6034602C603760C0
:101FA00034602C60376034602C602F6034602C60AB
:101FB000376034602C60376034602C603760346088
:101FC0003160286029602C60376034602C60376095
:101FD00034602C602F6034602C602F6034602C6083
:101FE0002F6034602C602F6034602C602F60346070
:101FF0002C602F6034603160306029602C602F606D
:1020000034602C602F6034602C60376034602C604A
:102010002F6034602C60376034602C60376034602F
:102020002C602F6034602C602F6034603160286039
:1020300029602C60376034602C60376034602C601D
:102040002F6034602C602F6034602C602F6034600F
:102050002C6001E0A0120A402F6034602C603760D1
:1020600034602C602F6034603160306029602C60F7
:102070002F6034602C602F6034602C602F603460DF
:102080002C602F6034602C602F6034602C602F60D7
:1020900034602C602F6034602C60376034603160B5
:1020A000286029602C60376034602C6037603460B1
:1020B0002C602F6034602C602F6034602C602F60A7
:1020C00034602C602F6034602C60376034602C608A
:1020D000376034603160306029602C602F6034607C
:1020E0002C602F6034602C602F6034602C6037606F
:1020F00034602C602F6034602C602F6034602C6062
:10210000376034602C602F60346031602860296053
:102110002C60376034602C60376034602C602F6036
:1021200034602C602F6034602C602F6034602C6031
:10213000376034602C602F6034602C602F60346016
:102140003160306029602C602F6034602C602F601B
:1021500034602C60376034602C602F6034602C60F9
:102160002F6034602C602F6034602C602F603460EE
:102170002C602F6034603160286029602C603760EB
:1021800034602C60376034602C602F6034602C60C9
:102190002F6034602C602F6034602C6037603460B6
:1021A0002C60376034602C602F60346031603060A8
:1021B00029602C602F6034602C602F6034602C60AC
:1021C0002F6034602C602F6034602C603760346086
:1021D0002C60376034602C60376034602C6037606E
:1021E00034603160286029602C60376034602C6076
:1021F000376034602C602F6034602C60376034604E
:102200002C602F6034602C602F6034602C602F6055
:1022100034602C602F6034603160306029602C6045
:10222000376034602C602F6034602C60376034601D
:102230002C602F6034602C602F6034602C6037601D
:1022400034602C602F6034602C602F60346031600B
:1022500029602C60376034602C602F6034602C6003
:10226000376034602C602F6034602C602F603460E5
:102270002C602F6034602C602F6034602C603760DD
:1022800034603160286029602C60376034602C60D5
:10229000376034602C60376034602C602F603460AD
:1022A0002C602F6034602C602F6034602C602F60B5
:1022B00034602C602F6034603160306029602C60A5
:1022C000376034602C60376034602C602F6034607D
:1022D0002C60376034602C602F6034602C602F607D
:1022E00034602C602F6034602C602F60346031606B
:1022F00029602C602F6034602C602F6034602C606B
:102300002F6034602C602F6034602C602F6034604C
:102310002C60376034602C602F6034602C602F603C
:102320003460316029602C602F6034602C602F6035
:1023300034602C602F6034602C602F6034602C601F
:10234000376034602C60376034602C602F603460FC
:102350002C6037603460316029602C602F603460FD
:102360002C602F6034602C602F6034602C603760EC
:1023700034602C602F6034602C602F6034602C60DF
:102380002F6034602C6037603460316029602C60CD
:102390002F6034602C602F6034602C602F603460BC
:1023A0002C60376034602C602F6034602C602F60AC
:1023B00034602C60376034602C603760346031608A
:1023C00029602C602F6034602C602F6034602C609A
:1023D000376034602C602F6034602C60376034606C
:1023E0002C602F6034602C60376034602C60376064
:1023F0003460316029602C602F6034602C602F6065
:1024000034602C60376034602C60376034602C603E
:10241000376034602C60376034602C603760346023
:102420002C6037603460316029602C602F6034602C
:102430002C60376034602C602F6034602C60376013
:1024400034602C602F6034602C60376034602C6006
:102450002F6034602C602F603460316029602C6004
:102460002F6034602C60376034602C602F603460E3
:102470002C602F6034602C60376034602C603760D3
:1024800034602C602F6034602C602F6034603160C9
:1024900029602C602F6034602C602F6034602C60C9
:1024A0002F6034602C60376034602C60376034609B
:1024B0002C602F6034602C602F6034602C602F60A3
:1024C0003460316029602C602F6034602C602F6094
:1024D00034602C602F6034602C602F6034602C607E
:1024E000376034602C60376034602C602F6034605B
:1024F0002C6037603460316029602C602F6034605C
:102500002C602F6034602C602F6034602C602F6052
:1025100034602C60376034602C602F6034602C6035
:10252000376034602C6037603460316029602C6023
:102530002F6034602C602F6034602C602F6034601A
:102540002C60376034602C60376034602C603760FA
:1025500034602C60376034602C60376034603160E8
:1025600029602C602F6034602C602F6034602C60F8
:10257000376034602C602F6034602C602F603460D2
:102580002C602F6034602C60376034602C603760C2
:1025900034603160286029602C60376034602C60C2
:1025A000376034602C60376034602C602F6034609A
:1025B0002C602F6034602C602F6034602C602F60A2
:1025C00034602C60376034603160306029602C608A
:1025D000376034602C60376034602C602F6034606A
:1025E0002C60376034602C602F6034602C602F606A
:1025F00034602C602F6034602C602F603460316058
:1026000029602C602F6034602C602F6034602C6057
:102610002F6034602C602F6034602C602F60346039
:102620002C60376034602C602F6034602C602F6029
:102630003460316029602C602F6034602C602F6022
:1026400034602C602F6034602C602F6034602C600C
:10265000376034602C60376034602C602F603460E9
:102660002C602F603460316029602C602F603460F2
:102670002C602F6034602C602F6034602C603760D9
:1026800034602C602F6034602C602F6034602C60CC
:102690002F6034602C6037603460316029602C60BA
:1026A0002F6034602C602F6034602C602F603460A9
:1026B0002C60376034602C602F6034602C602F6099
:1026C00034602C60376034602C6037603460316077
:1026D00029602C602F6034602C602F6034602C6087
:1026E000376034602C602F6034602C603760346059
:1026F0002C60376034602C602F6034602C602F6059
:102700003460316029602C602F6034602C602F6051
:1027100034602C60376034602C60376034602C602B
:10272000376034602C60376034602C603760346010
:102730002C6037603460316029602C602F60346019
:102740002C60376034602C602F6034602C602F6008
:1027500034602C602F6034602C60376034602C60F3
:102760002F6034602C602F603460316029602C60F1
:102770002F6034602C60376034602C602F603460D0
:102780002C60376034602C602F6034602C602F60C8
:1027900034602C602F6034602C60376034603160AE
:1027A00029602C602F6034602C602F6034602C60B6
:1027B000376034602C602F6034602C603760346088
:1027C0002C60376034602C60376034602C60376078
:1027D0003460316029602C602F6034602C602F6081
:1027E00034602C602F6034602C60376034602C6063
:1027F000376034602C60376034602C603760346040
:102800002C6037603460316029602C602F60346048
:102810002C602F6034602C602F6034602C60376037
:1028200034602C60376034602C60376034602C601A
:10283000376034602C6037603460316029602C6010
:102840002F6034602C602F6034602C6037603460FF
:102850002C602F6034602C602F6034602C602F60FF
:1028600034602C602F6034602C602F6034603160E5
:1028700029602C602F6034602C602F6034602C60E5
:10288000376034602C602F6034602C602F603460BF
:102890002C602F6034602C60376034602C603760AF
:1028A00034603160286029602C602F6034602C60B7
:1028B0002F6034602C60376034602C602F6034608F
:1028C0002C602F6034602C602F6034602C602F608F
:1028D00034602C603760346031603060286029607B
:1028E0002C602F6034602C602F6034602C60376067
:1028F00034602C602F6034602C60376034602C6052
:102900002F6034602C602F6034602C60376034603E
:102910003160306003B0F0BDF0B501252904534AA1
:102920001161EB06136106B214461034002E2646E0
:1029300000DA1646AD06356013601361060A7706A5
:10294000274600D517463D6013601361B70627463A
:1029500000D517463D6013601361F706274600D582
:1029600017463D60136013613707274600D51746A9
:102970003D60136013617707274600D517463D6019
:1029800013601361B707274600D517463D601360F3
:102990001361F607264600D01646356013601160B5
:1029A0001161136146B2002E264600DA16463560E4
:1029B000136013614606264600D51646356013603F
:1029C00013618606264600D51646356013601361EE
:1029D000C606264600D51646356013601361060705
:1029E000264600D516463560136013614607264615
:1029F00000D516463560136013618607264600D55C
:102A00001646356013601361C00700D01446256078
:102A100013601160F0BDC04670B501208503084EFB
:102A20003560FA24204600F005FF3560204600F0AE
:102A300001FF3560204600F0FDFE356070BDC046E8
:102A4000B0120A4001208003044908607047C04664
:102A500001208003014908607047C046A0120A4067
:102A600001208003014908607047C04690120A4067
:102A700070B5224985220A6301235C052048046061
:102A80004A639C0504608824CC60DC0304604A61CE
:102A90005C0404608A631C051A4A14601A4C1B4DBE
:102AA0002560E5605B0626681E432660E6681E43D7
:102AB000E6602346083B82261E60231F6D1E1D60B4
:102AC0008123CB6263658B608B664B664B650B65C0
:102AD0008B610B614B600B600146303917231B0380
:102AE0000B60014640390A4B0B600A4901601046F1
:102AF000303809490160116070BDC046888042408D
:102B0000D0120A40D0320A400C80424083000400B8
:102B10000000040F0070050F8000080080B5114808
:102B20001149FDF745FE03204102104802680A439F
:102B3000026001210A02036813430360002242611C
:102B40001F224262826B07239A4382631A02836BBD
:102B500093438363826A042313438362826A0A4332
:102B6000826280BD00000F40B46A000000120F4076
:102B7000B0B582B0104C11492046FDF7FFFE104958
:102B80002046FDF76BFE0F49002520462A46FDF73B
:102B9000EDFE0095204629462A462B46FDF7DAFE33
:102BA000204629462A46FDF7C7FE074801218160D5
:102BB000016002B0B0BDC04600008740B66A0000A8
:102BC000BC6A0000409C000000118740F0B581B055
:102BD0002B4C2C492046FDF7D1FE2B492046FDF712
:102BE000FBFD2A4E0025204631462A46FDF7BEFE53
:102BF0000095204629462A462B46FDF7ABFE204687
:102C000029462A46FDF798FE0127204631463A46D6
:102C1000FDF7ACFE0097204629462A462B46FDF7D5
:102C200099FE204629463A46FDF786FE02262046B2
:102C300016493246FDF79AFE0096204629462A4656
:102C40002B46FDF787FE204629463246FDF774FEE7
:102C5000032620460D493246FDF788FE00962046A1
:102C600029462A462B46FDF775FE20462946324660
:102C7000FDF762FE064887600F21016001B0F0BDDC
:102C800000008640C46A0000C86A000010270000E7
:102C9000001186400C48002101600320C1430B480D
:102CA0000246083A13680B40136001680122914301
:102CB0000160110203688B4303601103001F026867
:102CC0000A4302607047C04608030B4008010B40EE
:102CD0000548042101601F214160002181600168D5
:102CE00005220A430260704710E000E010B5144C62
:102CF00014492046FDF774FE13492046FDF74CFEAB
:102D00000321CA0311480368934303600269104B0F
:102D100013401A33036142690A433C218A434261EA
:102D20004168012211404368934359184160910260
:102D3000084B1C680C431C6001681143016010BD06
:102D400000801040D06A0000D26A0000009110405C
:102D50000000FFFF2890104080B500F015F8FFF745
:102D600087FEFFF797FFFFF731FFFFF701FFFFF740
:102D7000D5FEFFF7BBFFFFF7ABFFB82001490022EC
:102D80000A5480BDB800202070B50C480C49416041
:102D90000C4A51600C4B59600C4C61600C4D6960E1
:102DA0000C4E71600C49016011601960216029604E
:102DB00031601020FDF7B7FC70BDC04600080A4026
:102DC000030000B100280A40000886400008874040
:102DD00000080F40008810400100002610B512487E
:102DE0000068C0B20B281ED16748C1690F4A13881A
:102DF0007E2B13D813885C1C14800D4AD1540268B2
:102E0000D20708D00268D20705D00268D20702D0E4
:102E10000268D207F3D1C9B2816101E000201080BD
:102E200004480121017010BD20901040FA012020BB
:102E300079012020F9012020534856218161016841
:102E4000C90708D00168C90705D00168C90702D0C1
:102E50000168C907F3D14F2181610168C90708D012
:102E60000168C90705D00168C90702D00168C90710
:102E7000F3D1492181610268D20708D00268D207E4
:102E800005D00268D20702D00268D207F3D14322EC
:102E900082610268D20708D00268D20705D00268B2
:102EA000D20702D00268D207F3D1452282610268BC
:102EB000D20708D00268D20705D00268D20702D034
:102EC0000268D207F3D1202282610268D20708D0BB
:102ED0000268D20705D00268D20702D00268D20782
:102EE000F3D181610268D20708D00268D20705D009
:102EF0000268D20702D00268D207F3D14E22826163
:102F00000268D20708D00268D20705D00268D2074B
:102F100002D00268D207F3D181610168C90708D0E5
:102F20000168C90705D00168C90702D00168C9074F
:102F3000F3D1542181610168C90708D00168C9072C
:102F400005D00168C90702D00168C907F3D10D2176
:102F500081610168C90708D00168C90705D0016807
:102F6000C90702D00168C907F3D10A21816101684C
:102F7000C90708D00168C90705D00168C90702D090
:102F80000168C907F3D1704708911040F0B583B0CC
:102F900001A96420087093480122FDF7C9FB924CF7
:102FA0002546083D2868914F384068302860261F24
:102FB00030688F4908408F49401830608E4821683A
:102FC000490600D41CE12168490600D418E12168B3
:102FD000490600D414E12168490600D410E12168B3
:102FE000490600D40CE12168490600D408E12168B3
:102FF000490600D404E12168490600D400E12168B3
:10300000490600D4FCE02168490600D4F8E02168B4
:10301000490600D4F4E02168490600D4F0E02168B4
:10302000490600D4ECE02168490600D4E8E02168B4
:10303000490600D4E4E02168490600D4E0E02168B4
:10304000490600D4DCE02168490600D4D8E02168B4
:10305000490600D4D4E02168490600D4D0E02168B4
:10306000490600D4CCE02168490600D4C8E02168B4
:10307000490600D4C4E02168490600D4C0E02168B4
:10308000490600D4BCE0193099D15C4954208861CC
:103090000A68D20708D00A68D20705D00A68D207A2
:1030A00002D00A68D207F3D158228A610A68D2078F
:1030B00008D00A68D20705D00A68D20702D00A6889
:1030C000D207F3D120228A610A68D20708D00A68A1
:1030D000D20705D00A68D20702D00A68D207F3D116
:1030E00088610A68D20708D00A68D20705D00A6842
:1030F000D20702D00A68D207F3D149228A610A684E
:10310000D20708D00A68D20705D00A68D20702D0D1
:103110000A68D207F3D14D228A610A68D20708D023
:103120000A68D20705D00A68D20702D00A68D20717
:10313000F3D145228A610A68D20708D00A68D2070B
:1031400005D00A68D20702D00A68D207F3D14F220D
:103150008A610A68D20708D00A68D20705D00A68CF
:10316000D20702D00A68D207F3D155228A610A68D1
:10317000D20708D00A68D20705D00A68D20702D061
:103180000A68D207F3D188610868C00708D00868C8
:10319000C00705D00868C00702D00868C007F3D18F
:1031A0000D2088610868C00708D00868C00705D0EE
:1031B0000868C00702D00868C007F3D10A208861F8
:1031C0000A680020D20700D15BE20A68D20700D16A
:1031D00057E20A68D20700D153E20A68D207EFD15A
:1031E0004FE2C04600000F4018120F4000F8FFFFEA
:1031F000F8FF00F0070001006079FEFF0891104021
:103200002068800700D521E1FC48FDF78CFA28688A
:1032100038406921014329603068F9490840F9497B
:1032200008433060F848616A090700D09EE1616A8E
:10323000090700D09AE1616A090700D096E1616A46
:10324000090700D092E1616A090700D08EE1616A46
:10325000090700D08AE1616A090700D086E1616A46
:10326000090700D082E1616A090700D07EE1616A46
:10327000090700D07AE1616A090700D076E1616A46
:10328000090700D072E1616A090700D06EE1616A46
:10329000090700D06AE1616A090700D066E1616A46
:1032A000090700D062E1616A090700D05EE1616A46
:1032B000090700D05AE1616A090700D056E1616A46
:1032C000090700D052E1616A090700D04EE1616A46
:1032D000090700D04AE1616A090700D046E1616A46
:1032E000090700D042E1616A090700D03EE11930C8
:1032F00099D1E549522088610868C00708D008685C
:10330000C00705D00868C00702D00868C007F3D11D
:10331000582088610868C00708D00868C00705D031
:103320000868C00702D00868C007F3D12020886170
:103330000868C00708D00868C00705D00868C0073B
:1033400002D00868C007F3D1542088610A68D20708
:1033500008D00A68D20705D00A68D20702D00A68E6
:10336000D207F3D149228A610A68D20708D00A68D5
:10337000D20705D00A68D20702D00A68D207F3D173
:103380004D228A610A68D20708D00A68D20705D0A0
:103390000A68D20702D00A68D207F3D145228A61AF
:1033A0000A68D20708D00A68D20705D00A68D2078F
:1033B00002D00A68D207F3D14F228A610A68D20785
:1033C00008D00A68D20705D00A68D20702D00A6876
:1033D000D207F3D155228A610A68D20708D00A6859
:1033E000D20705D00A68D20702D00A68D207F3D103
:1033F00088610868C00708D00868C00705D0086859
:10340000C00702D00868C007F3D10D2088610868A2
:10341000C00708D00868C00705D00868C00702D0F8
:103420000868C007F3D10A2088610A680020D20723
:1034300000D126E10A68D20700D122E10A68D2074A
:1034400000D11EE10A68D207EFD11AE18E4954205B
:1034500088610868C00708D00868C00705D00868F8
:10346000C00702D00868C007F3D1582088610868F7
:10347000C00708D00868C00705D00868C00702D098
:103480000868C007F3D1202088610868C00708D009
:103490000868C00705D00868C00702D00868C007E0
:1034A000F3D1452088610868C00708D00868C007C4
:1034B00005D00868C00702D00868C007F3D15220C1
:1034C00088610A68D20708D00A68D20705D00A685E
:1034D000D20702D00A68D207F3D188610A68D207FE
:1034E00008D00A68D20705D00A68D20702D00A6855
:1034F000D207F3D14F228A610A68D20708D00A683E
:10350000D20705D00A68D20702D00A68D207F3D1E1
:1035100088610868C00708D00868C00705D0086837
:10352000C00702D00868C007F3D10D208861086881
:10353000C00708D00868C00705D00868C00702D0D7
:103540000868C007F3D10A2088610A680020D20702
:1035500000D196E00A68D20700D192E00A68D2074B
:1035600000D18EE00A68D207EFD18AE060680206D7
:1035700000D185E000235B25C849444C01E01B1DB8
:10358000E55C8D610D68ED0708D00D68ED0705D08D
:103590000D68ED0702D00D68ED07F3D1E5186E78E0
:1035A0008E610E68F60708D00E68F60705D00E6823
:1035B000F60702D00E68F607F3D1AD788D610D687D
:1035C000ED0708D00D68ED0705D00D68ED0702D0B6
:1035D0000D68ED07F3D103251D43132D16D0655D4E
:1035E0008D610D68ED07CAD00D68ED07C7D00D6875
:1035F000ED07C4D00D68ED07F3D1C0E71027000038
:10360000F8FF00F007000100C0BDF0FF02AB00248E
:103610009C700F2404401E4D2C5D5C70120FAA5C40
:1036200003E05A785B1C002A0DD08A610A68D20731
:10363000F7D00A68D207F4D00A68D207F1D00A6836
:10364000D207F3D1EDE70D228A610A68D20708D0CC
:103650000A68D20705D00A68D20702D00A68D207E2
:10366000F3D10A228A610A68D2070AD00A68D2070F
:1036700007D00A68D20704D00A68D207F3D100E065
:103680000020C0B203B0F0BD08911040846B000070
:10369000736B00007047000080B5FFF75DFB0120F1
:1036A000C003044908600449086004A0FCF774FDE5
:1036B00080BDC04680E200E000E100E0426F617240
:1036C0006420496E6974205B5B202A2A204C696F54
:1036D0006E2044616E636520526F626F74202A2AE7
:1036E000205D5D0D00000000F0B587B0E048006887
:1036F0001926770106903946FCF764FD0846FCF769
:1037000063FF4549FCF75EFE04463F200106204664
:10371000059100F0ACFB05467F20C00504902146D2
:1037200000F078FC002D00D104462046214600F030
:10373000A9FBBF210906039100F0A4FB014600F09C
:10374000A1FB364900F00EFCFCF7ECFE5921CC43FE
:10375000A04200DC20465A215A2800DB084601918D
:103760007D21CD0068432E494018B421029100F01C
:1037700083FA2C4941182C480022FDF7F7F8300154
:10378000069908183946FCF71DFD0846FCF71CFF92
:103790002149FCF717FE0646059900F068FB07462D
:1037A0000498314600F036FC002F00D10646304622
:1037B000314600F067FB039900F064FB014600F01E
:1037C00061FBFB4900F0CEFBFCF7ACFEA04200DC45
:1037D00020465A2800DB01984543F64828180299EC
:1037E00000F04AFAF44941180122F44C2046FDF752
:1037F000BDF80E4902222046FDF7B8F80C49032215
:103800002046FDF7B3F80F2000F014F8E6490868E9
:103810000F30086007B0F0BD0000484400002042AF
:10382000905F010028230000000086403D24000036
:10383000FA250000B0B57D21090241430E48036816
:10384000262206E0E41A051F2D686419A2188A4290
:1038500010D21C460368A34208D10368A34205D1D5
:103860000368A34202D10368A342F3D09C42E9D982
:10387000E41AEBE7B0BDC04618E000E007490A686B
:10388000D20708D00A68D20705D00A68D20702D04A
:103890000A68D207F3D1C2B28A617047089110401A
:1038A00082B0FFF7F9FEFEF7D7F9FDF7FDFEFFF74F
:1038B000C3FA4648FCF770FCFFF7C4F8FFF7ACF812
:1038C0004348FCF769FC00F07BF94248FCF764FCD4
:1038D0004148FCF761FC41A0FCF75EFC46A0FCF708
:1038E0005BFC50A0FCF758FC5A4C5B4F5B4E01E070
:1038F000FFF7FAFEFFF74AFB002801D0FDF77AF840
:103900002078002800D13EE03888002800D137E038
:103910000025715D4139372900D92CE00120C046CE
:103920007944097949008F441B2626212624261F25
:103930002626262626262626262623262626261D33
:1039400026262626262626261B2626212624261F30
:103950002626262626262626262623262626261D13
:103960000C2006E0092004E0032002E06C2000E0C7
:103970000A20FDF73FF86D1C3888854200D2C8E761
:1039800000202070388036480078022800D1AFE748
:10399000012802D100F06EF8ACE732480078002828
:1039A0000ED100200090F02201461346FEF72EF9BA
:1039B000782003220146FDF729F9012029490870E2
:1039C0007D208000FFF736FF94E7C046276B00009C
:1039D000DC6A0000506B0000FB6A000020204C698C
:1039E0006F6E2044616E636520526F626F74205267
:1039F00065616479210D00002020436F6D6D616E5B
:103A0000643A20466F72776172642F5369742F5342
:103A100074616E642F44616E63652F53746F700D13
:103A2000000000003D3D3D3D3D3D3D3D3D3D3D3DBA
:103A30003D3D3D3D3D3D3D3D3D3D3D3D3D3D3D3DB6
:103A40003D3D3D3D3D3D3D3D3D3D3D3D3D3D0D0A09
:103A50000D000000F9012020FA012020790120202A
:103A6000B4002020780120204F48002101607047D9
:103A700074012020F0B587B04B4800681924670115
:103A800005903946FCF79EFB0846FCF79DFD47492B
:103A9000FCF798FC05463F2001062846049100F0FB
:103AA000E6F906467F20C0050390294600F0B2FAE9
:103AB000002E00D105462846294600F0E3F9BF2133
:103AC0000906029100F0DEF9014600F0DBF9384901
:103AD00000F048FAFCF726FD5921CD43A84200DC4E
:103AE00028465A215A2800DB084600917D21CE0045
:103AF000704330494018B421019100F0BDF82E49BF
:103B000041185B4800220691FCF730FF200105991F
:103B100008183946FCF756FB0846FCF755FD2349C3
:103B2000FCF750FC0746049900F0A1F904460398FD
:103B3000394600F06FFA002C00D107463846394666
:103B400000F0A0F9029900F09DF9014600F09AF901
:103B5000174900F007FAFCF7E5FCA84200DC28460C
:103B60005A2800DB0098464312483018019900F0AB
:103B700083F81149441801223D4D28462146FCF79F
:103B8000F5FE022228462146FCF7F0FE03222846D5
:103B90000699FCF7EBFE0F20FFF74CFE0249086880
:103BA0000F30086007B0F0BD7401202000004844C9
:103BB00000002042905F01002823000000008640A2
:103BC000B0B52B4C2B4D002220462946FCF7CEFEEB
:103BD000012220462946FCF7C9FE0222204629463A
:103BE000FCF7C4FE032220462946FCF7BFFE7D20D9
:103BF0008000FFF71FFEB0BD70B50E4C2646FA36AA
:103C00001B4D002228463146FCF7B0FE0122284613
:103C10003146FCF7ABFE022228462146FCF7A6FE01
:103C2000032228462146FCF7A1FE7D208000FFF7F5
:103C300001FE70BD22240000B0B50D4C0D4D0022D8
:103C400020462946FCF792FE012220462946FCF731
:103C50008DFE022220462946FCF788FE03222046DC
:103C60002946FCF783FE7D208000FFF7E3FDB0BD11
:103C7000000086401C25000043088B421AD3002216
:103C800003098B4279D3030A8B425ED3030B8B4229
:103C900042D3030C8B4227D30902FF2212BA030C32
:103CA0008B4202D31212090203D0030B8B4233D38F
:103CB0001AE0D3E0411A8041401C704703460B4391
:103CC00071D443088B42F5D3002203098B4254D3AD
:103CD000030A8B4239D3030B8B421DD3030C8B4257
:103CE00002D394466EE0090AC30B8B4201D3CB0387
:103CF000C01A5241830B8B4201D38B03C01A52412D
:103D0000430B8B4201D34B03C01A5241030B8B422E
:103D100001D30B03C01A5241C30A8B4201D3CB0219
:103D2000C01A5241830A8B4201D38B02C01A5241FE
:103D3000430A8B4201D34B02C01A5241030A8B4201
:103D400001D30B02C01A5241CDD2C3098B4201D319
:103D5000CB01C01A524183098B4201D38B01C01A97
:103D6000524143098B4201D34B01C01A524103090E
:103D70008B4201D30B01C01A5241C3088B4201D3BD
:103D8000CB00C01A524183088B4201D38B00C01A6A
:103D9000524143088B4201D34B00C01A5241411A91
:103DA000524110007047CA0F00D04942031000D39F
:103DB0004042534000229C4603098B422DD3030A04
:103DC0008B4212D38901FC2212BA030A8B420CD314
:103DD000890192118B4208D3890192118B4204D33D
:103DE000890137D0921100E08909C3098B4201D3C0
:103DF000CB01C01A524183098B4201D38B01C01AF7
:103E0000524143098B4201D34B01C01A524103096D
:103E10008B4201D30B01C01A5241C3088B4201D31C
:103E2000CB00C01A524183088B4201D38B00C01AC9
:103E30005241D9D243088B4201D34B00C01A5241A0
:103E4000411A00D201465241104663465B1000D32E
:103E50004042704763465B1000D3404201B50021E9
:103E6000004201D0C9430846C046C04602BD10B555
:103E700000F04EF8EFF30080800001D4012010BD67
:103E8000002010BD70B50125ED0704004C4020D482
:103E9000441A01D2001B0919C60D4B00F2B2FF2AC9
:103EA00029D01B0E2CD000020C0228432C43D31A1D
:103EB000DC40051910D2280A02D3401C6D0611D02F
:103EC000761EF6058019FF2A00DA70BDC00DC00508
:103ED00070BD694000F0A4F801200543C541521CA3
:103EE000761CE8E764089C40C90161408900E7D17D
:103EF0000124A043E4E71B0E440200D0034870BD38
:103F0000002AFCD1C00FC00770BD00BF0000C07FF9
:103F10000123DB0502000A430DD4DA4203D49A429E
:103F200007D488427047D84214D4D94212D4884268
:103F3000704780427047DA4203D59A42F9D58142F0
:103F400070475B004200DA4204D24A00DA4201D2F2
:103F50008142704710B5024AFCF73AFB10BD00BF22
:103F60000900160470B5420064414B005C41120E1A
:103F700039D01B0E38D0FF2A3CD0FF2B3AD0D218B4
:103F80007F3A40024902400A490A4518ED010600FD
:103F90004E43000A090A48430104731A4019190CD8
:103FA0004318990F04D05B08012149075B1A521C82
:103FB000D80904D3401CF50301D19D0607D0FF2A80
:103FC00008D2D50506D0E4072043401970BD01256D
:103FD000A843F4E7002A01DCE00770BD2402FF20BB
:103FE0002043C00570BD1B0EFF2A03D0FF2B01D05C
:103FF000E00770BDFF2636064500B54206D84D00E5
:10400000B54203D8D218FF2A00D0E7E7004870BDB8
:104010000000C07F70B50125ED0704004C4022D49C
:10402000441A02D26C40001B0919C60D4B00F2B2B3
:10403000FF2A4BD01B0E50D000020C02A8432C4389
:10404000D31ADC40051B05D5AD0019D36D08761ECB
:10405000521E37D0F605280A01D2801970BD704172
:104060006D0603D070BD6940FFF712FF9C40090246
:104070006140490001D0401E70BD0124A04370BDC5
:104080006D081DD001202B0C01D12D0410302B0EFA
:1040900001D12D0208302B0F01D12D01001DAB0FD6
:1040A00001D1AD00801CEB0F01D16D00401C361A10
:1040B000121A6D00680AF5054019012A02DB70BD6D
:1040C000002070BDC036300AC00770BD1B0E440210
:1040D00001D1FF2B00D1024870BD002AF0D070BD85
:1040E0000000C07F8182838485868788898B8C8D40
:1040F0008E8F919293959697999A9C9D9FA0A2A33B
:10410000A5A7A8AAACAEB0B2B3B5B7B9BCBEC0C281
:10411000C5C7C9CCCED1D4D7D9DCDFE2E6E9ECF013
:10412000F3F7FAFE000000000000000000000000AD
:10413000000000000000000000000000000000007F
:10414000000000000000000000000000000000006F
:10415000000000000000000000000000600060009F
:1041600060006000600060006000400020002000EF
:1041700020000000000000006000600060000000FF
:104180000000000000000000600660063003980197
:104190008800440000000000000000000000000053
:1041A000000000000000000000000000000000000F
:1041B00000000000000000000000000010021002DB
:1041C00010021002FE07FE0708020801080108019C
:1041D0000801FE07FE0704010401040104010000B8
:1041E0000000000000000000000040004000F0015E
:1041F00058034C03CC034C0058007000E000C00191
:10420000C00140034C035C034C034801F000400034
:104210004000000000000000000000000E010A0144
:10422000910091009100510051003A00AE03A002AC
:1042300050045004480448044804840284030000E5
:1042400000000000000000000000000038006C00CA
:104250006C006C006C006C002C0098071C011A01AB
:10426000330133016301E300C308C6093C070000C2
:1042700000000000000000000C001C0010001000F6
:104280000800040000000000000000000000000022
:10429000000000000000000000000000000000001E
:1042A0000000000000000000000400020001800087
:1042B000800040004000200020002000200020005E
:1042C000200020004000400080008000000100022B
:1042D00000040000000000000200040008001000BC
:1042E000100020002000400040004000400040003E
:1042F00040004000200020001000100008000400D2
:1043000002000000000000000000000000000000AB
:104310004000C0004000460C4E0FD001F0015E0F7F
:10432000460C40004000400000000000000000007B
:10433000000000000000000000000000000000007D
:10434000000040004000400040004000FE0F4000E0
:10435000400040004000400000000000000000005D
:10436000000000000000000000000000000000004D
:10437000000000000000000000000000000000003D
:1043800000000000000000000C001C0010001000E5
:104390000800040000000000000000000000000011
:1043A000000000000000000000000000FE07000008
:1043B00000000000000000000000000000000000FD
:1043C00000000000000000000000000000000000ED
:1043D00000000000000000000000000000000000DD
:1043E00000000000000000001C001C001C00000079
:1043F00000000000000000000004000600020003AE
:1044000000010001800080004000400060002000AA
:10441000200010001000080008000C000400060036
:104420000200000000000000000000000000F0009A
:1044300098010C030C030606060606060606060689
:104440000606060606060C030C039801F0000000A1
:10445000000000000000000000000000000040001C
:104460007C00600060006000600060006000600030
:10447000600060006000600060006000FC030000FD
:104480000000000000000000000000000000F80034
:104490008401020306030603000300018001C0003B
:1044A000600020001000080204020602FE03000063
:1044B0000000000000000000000000000000780084
:1044C000C6008601860180018001C0007000800165
:1044D000000100030003060306038601F800000044
:1044E000000000000000000000000000000080014B
:1044F0008001C001A001A001900188018801840110
:104500008201FE0F8001800180018001E007000030
:104510000000000000000000000000000000FC039C
:1045200004000400040004000400F4008C010403EF
:10453000000300030603060382018401F800000063
:104540000000000000000000000000000000E0018A
:1045500018030C030C0004000600E60116030E0607
:1045600006060606060604060C021803F000000004
:104570000000000000000000000000000000F8073C
:104580000C060402040100010001800080004000CC
:1045900040004000600060006000600060000000BB
:1045A0000000000000000000000000000000F80112
:1045B0000C030606060606060C021C03F000C801E2
:1045C0000C0306060606060606060C03F0010000AC
:1045D0000000000000000000000000000000F000EB
:1045E0000C010C03060206060606060606078C06E4
:1045F00078060006000300030C018C01780000001F
:1046000000000000000000000000000000000000AA
:104610000000000000000000E000E000E0000000FA
:104620000000000000000000E000E000E0000000EA
:10463000000000000000000000000000000000007A
:1046400000000000000000006000600000000000AA
:10465000000000000000000000006000600040005A
:104660002000200000000000000000000004000204
:104670000001800040002000100008000400080035
:104680001000200040008000000100020004000033
:10469000000000000000000000000000000000001A
:1046A0000000000000000000FE0700000000000005
:1046B000FE070000000000000000000000000000F5
:1046C00000000000000000000000000004000800DE
:1046D00010002000400080000001000200040002E1
:1046E00000018000400020001000080004000000CD
:1046F0000000000000000000000000000000E003D7
:104700001806040C040C0C0C0C0C00078001400073
:104710004000400000000000E000E000E000000079
:10472000000000000000000000000000E00018038E
:104730000C02CC0564056605A605B604B604B604ED
:10474000B604B602E4010C040C021803F0000000E9
:1047500000000000000000000000000000006000F9
:1047600060005000D000900090008800880108018F
:10477000F801040304030402020202060F0F000002
:104780000000000000000000000000000000FE002B
:104790008C030C030C030C030C038C01FC000C03B6
:1047A0000C020C060C060C060C060C03FE010000A5
:1047B0000000000000000000000000000000E00316
:1047C00018030C060C04040406000600060006008C
:1047D0000600060006040C040C021803F00000009A
:1047E00000000000000000000000000000007F004A
:1047F0008C010C030C030C060C060C060C060C06B4
:104800000C060C060C060C030C038C017F00000048
:104810000000000000000000000000000000FF0396
:10482000060306040604060086008600FE008600D5
:10483000860086000600060406040602FF03000048
:104840000000000000000000000000000000FF0366
:10485000060306040604060086008600FE008600A5
:104860008600860006000600060006001F00000005
:104870000000000000000000000000000000F00048
:1048800018010C020C0204020600060006000600D5
:10489000C60F060306030C030C031803F000000008
:1048A00000000000000000000000000000000F0FEA
:1048B000060606060606060606060606FE0706069F
:1048C0000606060606060606060606060F0F000082
:1048D0000000000000000000000000000000FC03D9
:1048E00060006000600060006000600060006000C8
:1048F000600060006000600060006000FC03000079
:104900000000000000000000000000000000F807A8
:10491000C000C000C000C000C000C000C000C00097
:10492000C000C000C000C000C000C000C000C60081
:1049300066003C0000000000000000000000CF0303
:104940008601C60046002600160036002E006E00C6
:104950004600C60086008601060106038F07000098
:1049600000000000000000000000000000001F0028
:104970000600060006000600060006000600060007
:10498000060006000600060406040602FF030000F7
:104990000000000000000000000000000000070709
:1049A000860386038E038E034E034E034A035A0387
:1049B0005A033A033203320332031203870700001B
:1049C00000000000000000000000000000008E0F4A
:1049D0000C021C021C02340234026402640244020F
:1049E000C402840284038403040304031F0200003E
:1049F0000000000000000000000000000000F000C7
:104A000098010C030C0206060606060606060606B4
:104A10000606060606060C020C039801F0000000CC
:104A20000000000000000000000000000000FF0087
:104A30000603060606060606060606068603FE00AA
:104A40000600060006000600060006001F00000023
:104A50000000000000000000000000000000F00066
:104A600098010C030C020606060606060606060654
:104A70000606060676064C02CC039801F000800775
:104A80000003000000000000000000000000FF0123
:104A9000060306060606060606060603FE00460090
:104AA000C600860086010603060306060F0E0000F8
:104AB0000000000000000000000000000000F802FC
:104AC0000C030602060206000E003C00F800E0039C
:104AD000800300070206020606060C03F001000030
:104AE0000000000000000000000000000000FE07C1
:104AF000620461086108600060006000600060009E
:104B0000600060006000600060006000F80100006C
:104B100000000000000000000000000000001E0770
:104B20000C020C020C020C020C020C020C020C0215
:104B30000C020C020C020C020C021801F000000026
:104B400000000000000000000000000000000F074F
:104B50000602040104010C010C0188008800980081
:104B6000980050005000700030002000200000002D
:104B70000000000000000000000000000000F70E30
:104B8000620442044604460464026402E402E4024D
:104B90009C029C019801980188018800880000000F
:104BA00000000000000000000000000000009E0760
:104BB0000C01080118019000B000600020006000A6
:104BC0006000D00090008801080104038E070000F7
:104BD00000000000000000000000000000000F0FB7
:104BE000060404020C0208011801B800B0007000AD
:104BF000600060006000600060006000F80100007C
:104C00000000000000000000000000000000FC07A1
:104C10000C020603020180018000400040002000D9
:104C200020001000180008040C040402FE03000019
:104C30000000000000000000E00320002000200031
:104C40002000200020002000200020002000200064
:104C50002000200020002000200020002000200054
:104C6000E003000000000000000000000400040059
:104C70000800080010001000100020002000400074
:104C80004000C0008000800000010001000200021E
:104C900000020004000000007C00400040004000D2
:104CA0004000400040004000400040004000400004
:104CB00040004000400040004000400040004000F4
:104CC0007C0000000000600090000801000000006F
:104CD00000000000000000000000000000000000D4
:104CE00000000000000000000000000000000000C4
:104CF00000000000000000000000000000000000B4
:104D000000000000000000000000000000000000A3
:104D10000000000000000000000000000000000093
:104D20000000FF0F000000001800600000000000FD
:104D30000000000000000000000000000000000073
:104D40000000000000000000000000000000000063
:104D50000000000000000000000000000000000053
:104D60000000000000000000F0010C030C03000331
:104D7000E0031C030E03060306038E0B7C0E0000EB
:104D800000000000000000000000000008000E000D
:104D90000C000C000C000C00CC013C031C060C06A3
:104DA0000C060C060C060C060C021C03E4010000A9
:104DB00000000000000000000000000000000000F3
:104DC0000000000000000000F0008C018C01860152
:104DD00006000600060006020C020C01F0000000AE
:104DE0000000000000000000000000000002C003FE
:104DF000000300030003000378038C030C03060385
:104E0000060306030603060304038C07780100006B
:104E10000000000000000000000000000000000092
:104E20000000000000000000E001180308020C066A
:104E30000C06FC070C000C0018041802E00100002E
:104E40000000000000000000000000000000C0039F
:104E50006006300630003000FE01300030003000C7
:104E6000300030003000300030003000FC01000025
:104E70000000000000000000000000000000000032
:104E80000000000000000000F007D8068C018C0133
:104E90008C019801F8000C00FC00CC03060306030B
:104EA0008E03F800000000000000000008000E0063
:104EB0000C000C000C000C00EC011C030C030C0398
:104EC0000C030C030C030C030C030C039E070000E3
:104ED0000000000000000000000000000000600072
:104EE00060000000000040007C0060006000600086
:104EF000600060006000600060006000FC03000073
:104F00000000000000000000000000000000C001E0
:104F1000C001000000000001F0018001800180015B
:104F20008001800180018001800180018001800179
:104F3000CC007C00000000000000000008000E0013
:104F40000C000C000C000C008C038C008C004C003E
:104F50006C005C008C008C010C010C039E070000AF
:104F600000000000000000000000000040007C0085
:104F70006000600060006000600060006000600031
:104F8000600060006000600060006000FC030000E2
:104F90000000000000000000000000000000000011
:104FA00000000000000000003707EE0666066606F7
:104FB000660666066606660666066606FF0F00005B
:104FC00000000000000000000000000000000000E1
:104FD0000000000000000000EE011C030C030C03A5
:104FE0000C030C030C030C030C030C039E070000C2
:104FF00000000000000000000000000000000000B1
:105000000000000000000000F00098010C030606FC
:1050100006060606060606060C030C03F000000052
:105020000000000000000000000000000000000080
:105030000000000000000000EE011C030C060C063E
:105040000C060C060C060C060C031C03EC010C00F1
:105050000C003E0000000000000000000000000006
:10506000000000000000000078028C030C0306031F
:10507000060306030603060304038C0378030003F8
:105080000003C00700000000000000000000000056
:1050900000000000000000009F03580638061800BA
:1050A000180018001800180018001800FF00000071
:1050B00000000000000000000000000000000000F0
:1050C0000000000000000000F0031C030C020C02B2
:1050D0003800F000C003040304038C03FC0100004B
:1050E00000000000000000000000000000000000C0
:1050F0002000200030003000FE0130003000300081
:10510000300030003000300030023002E00100009A
:10511000000000000000000000000000000000008F
:1051200000000000000008028E030C030C030C03B7
:105130000C030C030C030C030C039C077801000008
:10514000000000000000000000000000000000005F
:1051500000000000000000001E070C02080108010A
:1051600018019000B000B000600060002000000056
:10517000000000000000000000000000000000002F
:105180000000000000000000F70E62044604640204
:105190006402EC029C01980198019801080000004B
:1051A00000000000000000000000000000000000FF
:1051B0000000000000000000BC0718011001B00052
:1051C00060006000E0009000080108039E070000F6
:1051D00000000000000000000000000000000000CF
:1051E00000000000000000009E07080108010801FF
:1051F00090009000B000600060006000200020007F
:1052000024001C000000000000000000000000005E
:105210000000000000000000FC018401C400440004
:10522000600020003000180208020C03FC0100009E
:1052300000000000000000000003800080008000EB
:10524000800080008000800080004000200040003E
:10525000800080008000800080008000800080004E
:1052600000030000400040004000400040004000BB
:10527000400040004000400040004000400040002E
:10528000400040004000400040004000400040001E
:1052900040004000000000000C0010001000100052
:1052A000100010001000100010002000400020002E
:1052B000100010001000100010001000100010006E
:1052C0000C00000000001C002204C2048003000047
:1052D00000000000000000000000000000000000CE
:1052E00000000000000000000000000000000000BE
:1052F00000000000000000000000000000000000AE
:10530000000000000000000000000000000000009D
:10531000000000000000000000000000000000008D
:10532000000000000000000000000000000000007D
:105330000000000000000000000000000000C001AC
:10534000C001C001C001C001C001C00180008000D7
:1053500080008000800080008000000000000000CD
:1053600000008001C003C0038001000000000000B5
:1053700000000000000000000000E01CE01CF01E27
:10538000700E3807180308018400000000000000B8
:10539000000000000000000000000000000000000D
:1053A00000000000000000000000000000000000FD
:1053B00000000000000000000000000000000000ED
:1053C00020102010201020102010FE7FFE7F1008DB
:1053D000100810081008100810081008FE7FFE7F43
:1053E0000804080408040804080400000000000081
:1053F00000000000000000000000000000010001AB
:10540000C007601910311831183918393801700186
:10541000E001C0038007000F001D003900311C317E
:105420001C310C310C11180DE007000100010001C6
:10543000000000000000000000000000000000006C
:105440001C1036186308630C630463046302630270
:105450006301361D9C378022806340634063206374
:105460002063306310221836081C00000000000082
:10547000000000000000000000000000000000002C
:10548000F00098018C018C018C018C018C00CC0007
:105490007800183E1C083608320863046304C3040D
:1054A000C303834306438E26781C000000000000DF
:1054B000000000000000000000001C003C003C0058
:1054C0003000300010000C0006000000000000005A
:1054D00000000000000000000000000000000000CC
:1054E00000000000000000000000000000000000BC
:1054F000000000000000000000000040002000103C
:105500000008000C000400060003000300038001F3
:105510008001800180018001800180018001000301
:105520000003000300060006000C00080010002025
:10553000004000000000000000000200040008001D
:105540001000300020006000C000C000C0008001DA
:105550008001800180018001800180018001C00004
:10556000C000C000600060003000100008000400AF
:105570000200000000000000000000000000000029
:105580000000000000018003800300011C713C79D1
:10559000783DC0070001C007783D3C791C710001CF
:1055A0008003800380010000000000000000000074
:1055B00000000000000000000000000000000000EB
:1055C00000000000000000010001000100010001D6
:1055D00000010001FC7F0001000100010001000149
:1055E00000010001000000000000000000000000B9
:1055F00000000000000000000000000000000000AB
:10560000000000000000000000000000000000009A
:10561000000000000000000000000000000000008A
:10562000000000001C003C003C0030003000100076
:105630000C00060000000000000000000000000058
:10564000000000000000000000000000000000005A
:1056500000000000FE7F00000000000000000000CD
:10566000000000000000000000000000000000003A
:10567000000000000000000000000000000000002A
:10568000000000000000000000000000000000001A
:10569000000000000000000000000000000000000A
:1056A000000018003C003C00180000000000000052
:1056B000000000000000000000000040006000202A
:1056C0000030001000180008000C00040006000262
:1056D0000003000180018000C00040006000200045
:1056E00030001000180008000C0004000600020042
:1056F00000000000000000000000000000000000AA
:10570000C007600C30181830183018200C600C607E
:105710000C600C600C600C600C600C600C6018205D
:10572000183018303018600CC0070000000000006E
:105730000000000000000000000000000000000069
:1057400000018001F8018001800180018001800159
:105750008001800180018001800180018001800141
:10576000800180018001C003F81F000000000000DC
:105770000000000000000000000000000000000029
:10578000E007101C0818043004300C300C300030D6
:1057900000180008000400020001800040002020E2
:1057A000102008200430FC1FFC1F00000000000037
:1057B00000000000000000000000000000000000E9
:1057C000E003180E0C0C0C180C180C180018000C28
:1057D0000006C003000E00180010003000300C302E
:1057E0000C300C100C18180CE00300000000000036
:1057F00000000000000000000000000000000000A9
:10580000000C000E000E000F800E800E400E600E89
:10581000200E100E100E080E040E040EFE7F000E59
:10582000000E000E000E000E000EC07F00000000F3
:105830000000000000000000000000000000000068
:10584000F03FF03F10001000100008000800C807EB
:10585000280C1818081000300030003000300C30D0
:105860000C3004180418080CF003000000000000BD
:105870000000000000000000000000000000000028
:10588000800FC010203010301800180008000C00E5
:105890008C0F6C183C301C600C600C600C600C6051
:1058A0001860182030306018C007000000000000A9
:1058B00000000000000000000000000000000000E8
:1058C000F83FF83F1C100C08040804040004000210
:1058D0000002000100010001800080008000C00083
:1058E000C000C000C000C000C000000000000000F8
:1058F00000000000000000000000000000000000A8
:10590000E007300C18180C300C300C301C303818F4
:105910007008E007B007180E0C1C06380630063079
:10592000063006300C18180CE003000000000000E0
:105930000000000000000000000000000000000067
:10594000E00318040C080C18061006300630063068
:10595000063006380C3C1836F031003000180018BC
:1059600000180C0C0C060C03F001000000000000F5
:105970000000000000000000000000000000000027
:105980000000000000000000000000000000800196
:10599000C003C00380010000000000000000000000
:1059A00000008001C003C00380010000000000006F
:1059B00000000000000000000000000000000000E7
:1059C0000000000000000000000000000000C00017
:1059D000C000000000000000000000000000000007
:1059E000000000000000C000C000800080004000F7
:1059F0004000000000000000000000000000002047
:105A0000001000080004000600038001C0006000D0
:105A1000300018000C00180030006000C000800149
:105A20000003000600040008001000200000000031
:105A30000000000000000000000000000000000066
:105A40000000000000000000000000000000FE7FD9
:105A500000000000000000000000FE7F00000000C9
:105A60000000000000000000000000000000000036
:105A70000000000000000000000000000000040022
:105A80000800100020006000C00080010003000634
:105A9000000C001800300018000C00060003800104
:105AA000C00060002000100008000400000000009A
:105AB0000000000000000000000000000000C0071F
:105AC0003018083008600C601C601C601C600030DE
:105AD000001C0006000180008000800080000000A3
