:020000040000FA
:10000000C00220206D01000071010000730100009A
:1000100000000000000000000000000000000000E0
:10002000000000000000000000000000750100005A
:1000300000000000000000007701000079010000CE
:100040007B0100007B0100007B0100007B010000C0
:100050007B0100007B0100007B0100007B010000B0
:10006000000000007B0100007B0100000000000098
:10007000000000007B0100007B0100003521000032
:100080007B0100007B0100007B0100007B01000080
:100090007B0100007B010000000000000000000068
:1000A0007B0100007B010000000000000000000058
:1000B0007B010000000000007B0100007B010000CC
:1000C00000F002F800F042F812A030C808382418F6
:1000D0002D18AC4201D100F039F80FCCA246AB4646
:1000E0000CA730CF2D1B083F3F197C427F1E544484
:1000F0002D090426F441641EAC4201D300F026F819
:100100000126334200D0FB1A3343984754465D46DC
:10011000DFE70000846B0000946B0000000000002B
:100120007047000000000000002300240025002686
:10013000103A01D378C1FBD8520700D330C100D5A3
:100140000B6070471FB51FBD10B510BD00F05FF903
:100150001146FFF7F7FF02F0D9F900F077F903B481
:10016000FFF7F2FF03BC02F055F800000648004715
:10017000FEE7FEE7FEE7FEE7FEE7FEE70348044989
:10018000024A044B70470000C1000000C00120205B
:10019000C0022020C001202010B5044603E002F078
:1001A00081F8401C08D020780549641C0028F6D14D
:1001B0000A2002F077F810BD0020C04310BD0000F7
:1001C000E4002020002203098B4273D3030A8B42F0
:1001D00058D3030B8B423CD3030C8B4221D312E048
:1001E00003460B437FD4002243088B4274D3030998
:1001F0008B425FD3030A8B4244D3030B8B4228D339
:10020000030C8B420DD30902FF2212BA030C8B425E
:1002100002D31212090265D0030B8B4219D300E0FE
:10022000090AC30B8B4201D3CB03C01A5241830B83
:100230008B4201D38B03C01A5241430B8B4201D333
:100240004B03C01A5241030B8B4201D30B03C01A5C
:100250005241C30A8B4201D3CB02C01A5241830AD6
:100260008B4201D38B02C01A5241430A8B4201D305
:100270004B02C01A5241030A8B4201D30B02C01A2F
:100280005241CDD2C3098B4201D3CB01C01A524196
:1002900083098B4201D38B01C01A524143098B421F
:1002A00001D34B01C01A524103098B4201D30B0108
:1002B000C01A5241C3088B4201D3CB00C01A52412D
:1002C00083088B4201D38B00C01A524143088B42F2
:1002D00001D34B00C01A5241411A00D2014652418B
:1002E000104670475DE0CA0F00D04942031000D3AA
:1002F000404253409C46002203098B422DD3030AFF
:100300008B4212D38901FC2212BA030A8B420CD30E
:10031000890192118B4208D3890192118B4204D337
:1003200089013AD0921100E08909C3098B4201D3B7
:10033000CB01C01A524183098B4201D38B01C01AF1
:10034000524143098B4201D34B01C01A5241030968
:100350008B4201D30B01C01A5241C3088B4201D317
:10036000CB00C01A524183088B4201D38B00C01AC4
:100370005241D9D243088B4201D34B00C01A52419B
:10038000411A00D201465241104663465B1001D328
:100390004042002B00D54942704763465B1000D3B2
:1003A000404201B50449002802DC491C084000E035
:1003B0000846C046C04602BDFFFFFF7F704770473A
:1003C000704710B501469E240002CA15A307002AF3
:1003D00002D01843002A04DBA21A002A0CDDD04008
:1003E00010BD1206120E01D140004008A21A03D41B
:1003F000D04040420028F3DDFF2248001206904220
:1004000001D9002010BDC817C043584010BD754623
:1004100000F024F8AE46050069465346C008C00007
:10042000854618B020B5FFF7A9FE60BCB646002689
:100430000027C0C5C0C5C0C5C0C5C0C5C0C5C0C5F2
:10044000C0C5403D490849008D46704710B5044677
:10045000C046C0462046FFF782FE10BD00487047E8
:1004600000002020811E091F00BFFCD27047000041
:10047000B0B51122120283580124A34383508B7814
:100480000C881C438B882343094C1C408358094D1E
:100490001D402B1983508B79CC791C43097A214359
:1004A0007E231940801842689A4351184160B0BDBC
:1004B00018670000E798FDFF10B5012212038318AA
:1004C0000C789C604978815010BD0000F0B587B071
:1004D00005910646900711460C39890840180528F1
:1004E00006930AD81C49095C43001C4CE75A80005B
:1004F0001BA318580490069B01E000270497187866
:10050000002827D00D9C03940C9C0294CDB20024AB
:10051000D1B2019105E0F619641CE0B2185C002824
:1005200018D020385E28F6D8009568430499411801
:10053000CAB2080CC0B2090AC9B2ED4B01F0C4FE40
:1005400003980090B0B20599019A029B00F014F84C
:10055000069BE0E707B0F0BDCE2B0000D42B0000D7
:1005600000C41D0080E51D0000000000D0221E0018
:1005700000000000D0991E00F0B583B000939307EF
:100580000C3A92089A1800231D46052A00D9B9E0B2
:10059000920002A4A2582C462E469746B5050000AC
:1005A000BD050000D5050000C5050000D50500000B
:1005B000CD0500000C230A261A240AE010230C267D
:1005C000222406E0182314264A2402E020231926B8
:1005D0008224012502968219521E92B2CB185B1E0C
:1005E0009BB200F0ABFB002D00D189E0032C00D8BA
:1005F000032408980190A71EBD48841C002630469D
:1006000004E028467F1E641C002F79D00546A057C1
:100610000028009800D4019801F08EFC681CC0B23C
:100620000299FFF7CFFD00293046EBD02078400635
:10063000019800D5009801F07FFCA81CC0B2029977
:10064000FFF7C0FD00293046DCD0207880060198F5
:1006500000D5009801F070FCE81CC0B20299FFF7C9
:10066000B1FD00293046CDD02078C006019800D5D4
:10067000009801F061FC281DC0B20299FFF7A2FDAD
:1006800000293046BED020780007019800D5009898
:1006900001F052FC681DC0B20299FFF793FD0029DA
:1006A0003046AFD020784007019800D5009801F07F
:1006B00043FCA81DC0B20299FFF784FD0029304613
:1006C000A0D020788007019800D5009801F034FC74
:1006D000E81DC0B20299FFF775FD0029304691D0A0
:1006E0002078C007019800D00098083501F024FC5C
:1006F000E8B20299FFF766FD002982D10D4680E736
:1007000003B0F0BD2C462E4664E7C046F0B583B07A
:100710000093D21F00231C46192A50D8920002A52C
:10072000AA582646254697469107000097070000DD
:10073000C3070000C3070000C30700009D070000B7
:10074000C3070000C3070000C3070000A3070000A1
:10075000C3070000C3070000C3070000C307000071
:10076000C3070000C3070000C3070000B50700006F
:10077000C3070000C3070000C3070000C307000051
:10078000C3070000C3070000C3070000AD07000057
:100790000726052507E00826072504E00C26062580
:1007A00001E010260825012433460AE02023102505
:1007B000402602E018230C253026012401E02646BD
:1007C000254602954219521E92B2CB185B1E9BB26F
:1007D00000F0B4FA002C00D187E0012E00D80126E9
:1007E000089801900024ED4D204604E03846761E1E
:1007F0006D1C002E79D0074628570028009800D499
:10080000019801F099FB781CC0B20299FFF7DAFC5D
:1008100000292046EBD028784006019800D50098A2
:1008200001F08AFBB81CC0B20299FFF7CBFC00298B
:100830002046DCD028788006019800D5009801F089
:100840007BFBF81CC0B20299FFF7BCFC00292046D4
:10085000CDD02878C006019800D5009801F06CFB37
:10086000381DC0B20299FFF7ADFC00292046BED06A
:1008700028780007019800D5009801F05DFB781DED
:10088000C0B20299FFF79EFC00292046AFD028781D
:100890004007019800D5009801F04EFBB81DC0B28A
:1008A0000299FFF78FFC00292046A0D02878800706
:1008B000019800D5009801F03FFBF81DC0B20299E5
:1008C000FFF780FC0029204691D02878C0070198C6
:1008D00000D00098083701F02FFBF8B20299FFF71B
:1008E00071FC002982D10F4680E703B0F0BDC046FD
:1008F00060002020F0B587B005910646D01F002784
:100900000697192800D981E0800001A109588F4677
:100910007909000081090000A9090000A909000067
:10092000A909000089090000A9090000A90900001F
:10093000A909000091090000A9090000A909000007
:10094000A9090000A9090000A9090000A9090000DF
:10095000A9090000A1090000A9090000A9090000D7
:10096000A9090000A9090000A9090000A9090000BF
:10097000A90900009909000006270820294912E06A
:100980000727082026490EE006270C2023490AE005
:1009900008271020204906E0102740201C4902E0CB
:1009A0000C2730201B490691197800292CD00D9C6A
:1009B00004940C9C0394C0B202900025D0B2019024
:1009C00005E0F6196D1CE8B2195C00291CD020392D
:1009D0005E29F6D802980090414306980918CAB2D9
:1009E000080CC0B2090AC9B23C461F46D24B01F0FE
:1009F0006BFC04980090B0B20599019A039BFFF735
:100A000085FE3B462746DCE707B0F0BDCCE7C04695
:100A1000505A1E0000FF1D0080D71D0000BE1D00A3
:100A200080E21D0080DF1D00F0B583B00093134607
:100A3000920702930C3B9B08D21800231C46052A00
:100A400000D9A9E02646C0467A441279520097445C
:100A500002050E080E0B0C23182607E01023202693
:100A600004E01823482601E0202380260124C21830
:100A7000521E92B2CB185B1E9BB200F05FF9002CA5
:100A800000D187E0012E00D80126089801900024AB
:100A9000A94D204604E03846761E6D1C002E79D004
:100AA000074628570028009800D4019801F044FA1E
:100AB000781CC0B20299FFF785FB00292046EBD0D5
:100AC00028784006019800D5009801F035FAB81C46
:100AD000C0B20299FFF776FB00292046DCD02878C7
:100AE0008006019800D5009801F026FAF81CC0B2E3
:100AF0000299FFF767FB00292046CDD02878C00671
:100B0000019800D5009801F017FA381DC0B202997B
:100B1000FFF758FB00292046BED02878000701982F
:100B200000D5009801F008FA781DC0B20299FFF7CD
:100B300049FB00292046AFD028784007019800D50E
:100B4000009801F0F9F9B81DC0B20299FFF73AFB1D
:100B500000292046A0D028788007019800D5009869
:100B600001F0EAF9F81DC0B20299FFF72BFB00294A
:100B7000204691D02878C007019800D00098083707
:100B800001F0DAF9F8B20299FFF71CFB002982D1D3
:100B90000F4680E703B0F0BD264668E760002020DE
:100BA000F0B589B0079107469007089211460C39B5
:100BB00089084018052809D82849095C420028A45A
:100BC000A45A800029A21058069001E0002406943F
:100BD000187800283FD00F9A05920E9A0492C9B255
:100BE000039100260293039D1FE0C0B200955E238F
:100BF000434398184018684306994118CAB2080C34
:100C0000C0B2090AC9B24C4B01F05EFB05980090D6
:100C1000B8B20799089A049BFFF706FF029B3F1999
:100C2000B01CC6B2985D002815D001465F31C9B22C
:100C3000082905D8F1184978A029134AD5D8EEE734
:100C400001465031C9B24729E9D8F1184978A1299C
:100C50000C4ACAD2E3E709B0F0BDC046C82B000079
:100C60000C00100000001800000020000000000030
:100C7000D0C90200000000009081060000000000C2
:100C800000DF0E000DC2FFFF41C4FFFFF0B587B0CB
:100C900005910646900711460C3989084018052829
:100CA00006930AD81C49095C43001C4CE75A800093
:100CB0001BA318580490069B01E00027049718789E
:100CC000002827D00D9C03940C9C0294CDB20024E4
:100CD000D1B2019105E0F619641CE0B2185C00285D
:100CE00018D020385E28F6D800956843049941183A
:100CF000CAB2080CC0B2090AC9B20F4B01F0E4FA3B
:100D000003980090B0B20599019A029BFFF734FC5A
:100D1000069BE0E707B0F0BDCE2B0000D42B00000F
:100D2000C0CD1D0040F21D0000000000903E1E00DE
:100D30000000000090CA1E0060002020F0B587B0BF
:100D4000069304920591019001231904404C2160FF
:100D50000A4602915905216003911F0327605E0333
:100D600026602546103D2F60276026602F60276093
:100D70002E602F60276026602F6027602E602F6016
:100D8000276026602F6027602E602F602760266016
:100D90002F6029602A60000A01F0DCF80198C0B2D7
:100DA00001F0D8F80498000A01F0D4F80498C0B211
:100DB00001F0D0F802982060039921602760266036
:100DC0002F60276026602F6027602E602F602760CD
:100DD00026602F6027602E602F60276026602F60BE
:100DE00027602E602F6027602E602F6029602860AA
:100DF0000598000A01F0AEF80598C0B201F0AAF813
:100E00000698000A01F0A6F80698C0B201F0A2F810
:100E10000298206003992160276026602F60276078
:100E200026602F6027602E602F60276026602F606D
:100E300027602E602F6027602E602F60276026605D
:100E40002F60276026602F602960286007B0F0BD02
:100E5000A0120A40F0B583B01C4615460E46511E3E
:100E60008AB2591E8BB202903146FFF767FF019498
:100E7000A64212D2089C04E0761CB0B201998842C6
:100E80000BD20298A842F7D2029F204601F054F8F4
:100E90007F1CB8B2A842F8D3EEE703B0F0BD000063
:100EA000F0B583B00127F8030290FC4D286064245C
:100EB000204601F0D3F92E46103E029830602046BD
:100EC00001F0CCF978043060204601F0C7F938040D
:100ED0002860014601907805286002903C032C6050
:100EE0007F032F6034602C602F6034602C602F6093
:100EF00034602C60376034602C602F6034602C606C
:100F00002F6034602C602F6034602C603760346058
:100F100030603160782001F0A1F9019828600299D1
:100F200029602C602F6034602C602F6034602C604E
:100F3000376034602C60376034602C602F60346020
:100F40002C60376034602C60376034602C602F6018
:100F500034603160306029602C602F6034602C6018
:100F60002F6034602C602F6034602C602F60346000
:100F70002C602F6034602C602F6034602C602F60F8
:100F800034602C602F6034603160286029602C60F0
:100F90002F6034602C602F6034602C6037603460C8
:100FA0002C60376034602C60376034602C602F60B8
:100FB00034602C60376034602C602F6034603160A6
:100FC000306029602C602F6034602C602F603460AA
:100FD0002C602F6034602C602F6034602C602F6098
:100FE00034602C60376034602C602F6034602C607B
:100FF000376034603160286029602C60376034606D
:101000002C602F6034602C60376034602C60376057
:1010100034602C602F6034602C602F6034602C6052
:10102000376034602C602F6034603160306029603C
:101030002C602F6034602C602F6034602C602F6037
:1010400034602C602F6034602C60376034602C601A
:10105000376034602C602F6034602C602F60346007
:10106000316029602C602F6034602C602F60346008
:101070002C602F6034602C602F6034602C603760EF
:1010800034602C60376034602C602F6034602C60DA
:101090002F603460316029602C602F6034602C60D8
:1010A0002F6034602C602F6034602C602F603460BF
:1010B0002C602F6034602C602F6034602C602F60B7
:1010C00034602C602F603460316029602C602F60A8
:1010D00034602C602F6034602C60376034602C608A
:1010E000376034602C602F6034602C602F60346077
:1010F0002C60376034602C60376034603160296068
:101100002C602F6034602C602F6034602C6037605E
:1011100034602C60376034602C602F6034602C6049
:101120002F6034602C60376034602C60376034602E
:101130003160286029602C60376034602C602F603B
:1011400034602C60376034602C60376034602C6011
:101150002F6034602C60376034602C6037603460FE
:101160002C60376034603160306029602C602F6003
:1011700034602C602F6034602C60376034602C60E9
:10118000376034602C602F6034602C6037603460CE
:101190002C602F6034602C603760346031602860D0
:1011A00029602C60376034602C602F6034602C60C4
:1011B000376034602C60376034602C603760346096
:1011C0002C602F6034602C60376034602C60376096
:1011D00034603160306029602C602F6034602C6096
:1011E0002F6034602C60376034602C60376034606E
:1011F0002C602F6034602C60376034602C60376066
:1012000034602C60376034603160286029602C6065
:10121000376034602C60376034602C602F6034603D
:101220002C602F6034602C602F6034602C602F6045
:1012300034602C602F6034602C602F60346031602B
:10124000306029602C602F6034602C602F60346027
:101250002C60376034602C602F6034602C60376005
:1012600034602C60376034602C602F6034602C60F8
:101270002F6034603160286029602C6037603460F2
:101280002C60376034602C602F6034602C602F60DD
:1012900034602C602F6034602C6001E0A0120A40A2
:1012A0002F6034602C60376034602C602F603460B5
:1012B0003160306029602C602F6034602C602F60BA
:1012C00034602C602F6034602C602F6034602C60A0
:1012D0002F6034602C602F6034602C602F6034608D
:1012E0002C60376034603160286029602C60376082
:1012F00034602C60376034602C602F6034602C6068
:101300002F6034602C602F6034602C602F6034605C
:101310002C60376034602C6037603460316030603E
:1013200029602C602F6034602C602F6034602C604A
:101330002F6034602C60376034602C602F60346024
:101340002C602F6034602C60376034602C602F601C
:1013500034603160286029602C60376034602C6014
:10136000376034602C602F6034602C602F603460F4
:101370002C602F6034602C60376034602C602F60EC
:1013800034602C602F6034603160306029602C60E4
:101390002F6034602C602F6034602C6037603460C4
:1013A0002C602F6034602C602F6034602C602F60C4
:1013B00034602C602F6034602C602F6034603160AA
:1013C000286029602C60376034602C60376034609E
:1013D0002C602F6034602C602F6034602C602F6094
:1013E00034602C60376034602C60376034602C606F
:1013F0002F6034603160306029602C602F60346071
:101400002C602F6034602C602F6034602C602F6063
:1014100034602C60376034602C60376034602C603E
:10142000376034602C603760346031602860296038
:101430002C60376034602C60376034602C602F6023
:1014400034602C60376034602C602F6034602C6016
:101450002F6034602C602F6034602C602F6034600B
:101460003160306029602C60376034602C602F6000
:1014700034602C60376034602C602F6034602C60E6
:101480002F6034602C60376034602C602F603460D3
:101490002C602F603460316029602C6037603460CC
:1014A0002C602F6034602C60376034602C602F60BB
:1014B00034602C602F6034602C602F6034602C60AE
:1014C0002F6034602C6037603460316028602960A0
:1014D0002C60376034602C60376034602C6037607B
:1014E00034602C602F6034602C602F6034602C607E
:1014F0002F6034602C602F6034602C602F6034606B
:101500003160306029602C60376034602C60376057
:1015100034602C602F6034602C60376034602C6045
:101520002F6034602C602F6034602C602F6034603A
:101530002C602F603460316029602C602F60346033
:101540002C602F6034602C602F6034602C602F6022
:1015500034602C602F6034602C60376034602C6005
:101560002F6034602C602F603460316029602C6003
:101570002F6034602C602F6034602C602F603460EA
:101580002C602F6034602C60376034602C603760D2
:1015900034602C602F6034602C60376034603160C0
:1015A00029602C602F6034602C602F6034602C60C8
:1015B0002F6034602C60376034602C602F603460A2
:1015C0002C602F6034602C602F6034602C6037609A
:1015D0003460316029602C602F6034602C602F6093
:1015E00034602C602F6034602C60376034602C6075
:1015F0002F6034602C602F6034602C603760346062
:101600002C6037603460316029602C602F6034605A
:101610002C602F6034602C60376034602C602F6049
:1016200034602C60376034602C602F6034602C6034
:10163000376034602C6037603460316029602C6022
:101640002F6034602C602F6034602C603760346011
:101650002C60376034602C60376034602C603760F9
:1016600034602C60376034602C60376034603160E7
:1016700029602C602F6034602C60376034602C60EF
:101680002F6034602C60376034602C602F603460D1
:101690002C60376034602C602F6034602C602F60C9
:1016A0003460316029602C602F6034602C603760BA
:1016B00034602C602F6034602C602F6034602C60AC
:1016C000376034602C60376034602C602F60346089
:1016D0002C602F603460316029602C602F60346092
:1016E0002C602F6034602C602F6034602C60376079
:1016F00034602C60376034602C602F6034602C6064
:101700002F6034602C602F603460316029602C6061
:101710002F6034602C602F6034602C602F60346048
:101720002C602F6034602C60376034602C60376030
:1017300034602C602F6034602C603760346031601E
:1017400029602C602F6034602C602F6034602C6026
:101750002F6034602C602F6034602C603760346000
:101760002C602F6034602C60376034602C603760F0
:101770003460316029602C602F6034602C602F60F1
:1017800034602C602F6034602C60376034602C60D3
:10179000376034602C60376034602C6037603460B0
:1017A0002C6037603460316029602C602F603460B9
:1017B0002C602F6034602C60376034602C602F60A8
:1017C00034602C602F6034602C602F6034602C609B
:1017D000376034602C603760346031602860296085
:1017E0002C60376034602C60376034602C60376068
:1017F00034602C602F6034602C602F6034602C606B
:101800002F6034602C602F6034602C60376034604F
:101810003160306029602C60376034602C60376044
:1018200034602C602F6034602C60376034602C6032
:101830002F6034602C602F6034602C602F60346027
:101840002C602F603460316029602C602F60346020
:101850002C602F6034602C602F6034602C602F600F
:1018600034602C602F6034602C60376034602C60F2
:101870002F6034602C602F603460316029602C60F0
:101880002F6034602C602F6034602C602F603460D7
:101890002C602F6034602C60376034602C603760BF
:1018A00034602C602F6034602C602F6034603160B5
:1018B00029602C602F6034602C602F6034602C60B5
:1018C0002F6034602C60376034602C602F6034608F
:1018D0002C602F6034602C602F6034602C60376087
:1018E0003460316029602C602F6034602C602F6080
:1018F00034602C602F6034602C60376034602C6062
:101900002F6034602C602F6034602C60376034604E
:101910002C6037603460316029602C602F60346047
:101920002C602F6034602C60376034602C602F6036
:1019300034602C60376034602C60376034602C6019
:101940002F6034602C602F603460316029602C601F
:101950002F6034602C602F6034602C6037603460FE
:101960002C60376034602C60376034602C603760E6
:1019700034602C60376034602C60376034603160D4
:1019800029602C602F6034602C60376034602C60DC
:101990002F6034602C602F6034602C602F603460C6
:1019A0002C60376034602C602F6034602C602F60B6
:1019B0003460316029602C602F6034602C603760A7
:1019C00034602C602F6034602C60376034602C6091
:1019D0002F6034602C602F6034602C602F60346086
:1019E0002C6037603460316029602C602F60346077
:1019F0002C602F6034602C60376034602C602F6066
:101A000034602C60376034602C60376034602C6048
:101A1000376034602C6037603460316029602C603E
:101A20002F6034602C602F6034602C602F60346035
:101A30002C60376034602C60376034602C60376015
:101A400034602C60376034602C6037603460316003
:101A500029602C602F6034602C602F6034602C6013
:101A60002F6034602C60376034602C6037603460E5
:101A70002C60376034602C60376034602C603760D5
:101A80003460316029602C602F6034602C602F60DE
:101A900034602C60376034602C602F6034602C60C0
:101AA0002F6034602C602F6034602C602F603460B5
:101AB0002C602F603460316029602C602F603460AE
:101AC0002C602F6034602C60376034602C602F6095
:101AD00034602C602F6034602C602F6034602C6088
:101AE000376034602C603760346031602860296072
:101AF0002C602F6034602C602F6034602C60376065
:101B000034602C602F6034602C602F6034602C6057
:101B10002F6034602C602F6034602C60376034603C
:101B200031603060286029602C602F6034602C6048
:101B30002F6034602C60376034602C602F6034601C
:101B40002C60376034602C602F6034602C602F6014
:101B500034602C60376034603160306003B0F0BDB9
:101B6000F0B58BB006931646119C0A19521E93B21B
:101B700065084219521E92B207900591FFF7DEF8F0
:101B80000A9568072209002800D0521C62436ED0D3
:101B9000A0010C3C2106890E4018C3B2052B66D863
:101BA0000120099098402B21084260D0129808909B
:101BB00010980490203EF0B202900024079F264621
:101BC0000192009309E00598401C0590079F019839
:101BD000009B039C641C844249D0032B039408D0CF
:101BE000012B0BD0002B0DD10C2002994843234927
:101BF0000BE03020029948431E4906E0029800019C
:101C00001D4902E0029880011D4908180019057855
:101C100000240BE000F090F9761CF0B20A99FEF770
:101C2000D1FA002921D0641C082CD0D00998A040FA
:101C300028400899002913D0002809D0B8B2059986
:101C400089B202460B46FFF779F8069800F074F95E
:101C50007F1CB8B20799401A0A998842E3D1B2E7CB
:101C600000280498D6D00698D4E70026AFE70BB03A
:101C7000F0BDC0464436000054300000E02B0000A8
:101C800014480000F0B58DB00C93002B7ED00C46AC
:101C90000546149E13980790129804903C491046EC
:101CA00000F03AFFFEF78DFB05900896700806904D
:101CB0000026754F0A9409952DE0002007990091A0
:101CC000089901910290069844430998201880B21F
:101CD0002E220A99049C2346FFF742FF2346069CC6
:101CE000079A08997F1C0C97099F761C0020009288
:101CF0000191029030200543EAB2F0B26043C0196E
:101D000080B20A99FFF72CFF0C98C0B2761CF1B292
:101D100081425D4F3AD2F0430C990818010607D072
:101D20000C99891B891EC9B2032903D201210AE03B
:101D3000012116E0FC2202400023012179431B1DF2
:101D4000DCB29442FAD1032210400AD0012801D11A
:101D50000A2005E0022802D07D20C00000E06420B7
:101D60004143F4B20C9FF8B20B90059800F0D8FDF7
:101D70000A21FEF727FA0D460B98801EA0429CD040
:101D8000099F0899079A049B069CAFE70DB0F0BD28
:101D90000000C842F0B58FB00BAC07C4002B71D067
:101DA0001C461699159809901498089058429A1E46
:101DB00003920A9149080791591E05910025C0B266
:101DC0000690314F2E460E95049317E001200E9099
:101DD0000020099A00920A9A019202903020014351
:101DE000CAB2079868430B99401880B20C99089BB7
:101DF000FFF7B6FE761C6D1CA54243D0FF20B04312
:101E00000699884201D1012120E0E8430019039995
:101E1000491BC9B2032901D2012108E0FC2202407A
:101E20000023012179431B1DDCB29442FAD1032225
:101E30001040049C0AD0012801D10A2005E00228A4
:101E400002D07D20C00000E0642041430D9800F0E6
:101E500067FD0A21FEF7B6F90E980028B8D105985B
:101E6000A842B5DD0029B1D10021099800900A9857
:101E700001900E910291079868430B99401880B227
:101E80002022B3E70FB0F0BD10270000F0B583B0FB
:101E90001C4615468218521E92B2CB185B1E9BB28E
:101EA000FEF74CFF0295002D1ED0089800900027E9
:101EB0003E46019405E0761CB0B202998842019C2E
:101EC00012D2002CF7D03D19780000990C18207818
:101ED00000F03BF8607800F038F8A41CA8B27F1C32
:101EE000B9B28842F3D1E6E703B0F0BDF0B587B0F0
:101EF0001478002C1ED00F4606460E9806900D98BA
:101F00000C9D0495551C0590400803900498009082
:101F10000598019006980290B0B2E2B239461C468C
:101F2000FFF71EFE234603983618681C2C78002CF9
:101F30000546EBD107B0F0BD10B50446000A00F02D
:101F400009F8E0B200F006F810BD80B500F002F824
:101F500080BD0000B0B501246105AD4A11612303C5
:101F60001361640345B2002D01D4146100E01460D4
:101F700013601361450601D4146100E0146013601E
:101F80001361850601D4146100E0146013601361CD
:101F9000C50601D4146100E01460136013610507E5
:101FA00001D4146100E0146013601361450701D48B
:101FB000146100E0146013601361850701D414619B
:101FC00000E0146013601361C00701D1146100E0E8
:101FD000146013601160B0BD0C48822101600C498F
:101FE00041600C49C16381214163816301644164A3
:101FF00041668164084AC264816601208003844985
:1020000008610648086006480864704754804240EA
:10201000820004008100010081000C0000B0630018
:1020200000F063000C48002101600320C1430B480D
:102030000246083A13680B4013600168012291437D
:102040000160110203688B4303601103001F0268E3
:102050000A4302607047C04608030B4008010B406A
:102060000548042101601F21416000218160016851
:1020700005220A430260704710E000E010B5144CDE
:1020800014492046FEF718FA13492046FEF7F0F9E6
:102090000321CA0311480368934303600269104B8C
:1020A00013401A33036142690A433C218A43426167
:1020B00041680122114043689343591841609102DD
:1020C000084B1C680C431C6001681143016010BD83
:1020D00000801040546C0000566C000000911040CD
:1020E0000000FFFF2890104080B500F009F8FFF7CE
:1020F00073FFFFF797FFFFF7C1FFFFF7B1FF80BD49
:1021000080B5074807494160074A5160074B59604D
:1021100007490160116019601020FEF7A3F980BD26
:1021200000080A40030000B100280A40008810405F
:102130000100002610B512480068C0B20B281ED15D
:102140006048C1690F4A13887E2B13D813885C1C22
:1021500014800D4AD1540268D20708D00268D20711
:1021600005D00268D20702D00268D207F3D1C9B203
:10217000816101E00020108004480121017010BD40
:1021800020901040BA01202038012020B8012020E2
:1021900010B5012319031E4A11615B0344B2002CE0
:1021A00001D4136100E0136011601161440601D491
:1021B000136100E0136011601161840601D41361A2
:1021C00000E0136011601161C40601D4136100E0E6
:1021D000136011601161040701D4136100E0136002
:1021E00011601161440701D4136100E013601160B4
:1021F0001161840701D4136100E013601160116163
:10220000C00702D11361116010BD1360116010BDD1
:1022100090120A407047000080B5FFF765FF01206B
:10222000C003044908600449086004A0FDF7B4FF36
:1022300080BDC04680E200E000E100E0426F6172D4
:102240006420496E6974205B5B202A2A204C434B32
:102250004642202A2A205D5D0D000000B0B57D2198
:10226000090241430E480368262206E0E41A051FCE
:102270002D686419A2188A4210D21C460368A34232
:1022800008D10368A34205D10368A34202D10368C1
:10229000A342F3D09C42E9D9E41AEBE7B0BDC046B3
:1022A00018E000E007490A68D20708D00A68D20798
:1022B00005D00A68D20702D00A68D207F3D1C2B2A9
:1022C0008A61704708911040F0B58DB002931746AF
:1022D0000C910125AC058B4A14602E03166069032E
:1022E00011601346103B1E60166011601E60166080
:1022F00011601E60166011601E60166011601E6025
:10230000166011601E60166019601E60166019600C
:1023100004931E60FFF73CFF0C98FFF739FF384627
:10232000FFF736FF12980390002800D1E6E00194F1
:10233000039805400095744F012801D1002197E0D2
:10234000FE2003990140039100216E4806603A681F
:102350000992049C266006603A680892266006602E
:102360003B68266006603A680692266006603A6816
:102370000792266006603A680A92266006603A680C
:102380000B922660066038680C9026605D0C022374
:102390001D400998400C1840089A5203D20F10189B
:1023A00080002818069A5203D20F10188000079A4E
:1023B000520C1A4010180A9A5203D20F10188000BB
:1023C0000B9A520C1A4010180C9A5203D20F101884
:1023D000029D68544B4A1660386809902660166062
:1023E0003868089026601660386805902660166088
:1023F0003868069026601660386807902660166078
:1024000038680A902660166038680B90266016605F
:102410003A680C9226600598400C18400A462946F6
:10242000099C640C1C40089D6D03ED0F2C19A40041
:1024300000190C461146069A5203D20F101880005C
:10244000079A520C1A4010180A9A5203D20F101809
:1024500080000B9A520C1A4010180C9A5203D20F9B
:10246000101862185070891C0398884200D06CE7DD
:1024700000980028019C41D00C9122490E603868D8
:102480000990049B1E600E603A681E600E603868FA
:102490001E600E603D681E600E603C6808941E6001
:1024A0000E603C680A941E600E603C680B941E60CF
:1024B0000E6039681E60400C02263040099B5C0C9F
:1024C00034405203D20F1219920080186A03019C03
:1024D000D20F10188000089A520C324010180A9A35
:1024E0005203D20F101880000B9A520C3240101871
:1024F0004903C90F081802990C9A8854049804607B
:102500000DB0F0BDA0120A4080130A4090B0FFF752
:1025100083FEFEF7C5FCD24800900020F0220F9009
:1025200001461346FEF796FC1F20C00205907D2051
:10253000C00009901021CA48009001910E460F98E2
:10254000029028273946C7A2059D2B46FFF7CEFCEF
:102550000095C3480190029634460C963020F02234
:102560000D9203230A933946FFF714FCBC480090F0
:1025700001960F9E029650200E903946BB4A2B467C
:10258000FFF7B4FC0095B6480190029480200B90B0
:1025900039460D9A0A9BFFF7FDFBB14800A951C1CE
:1025A0000E983946B14A2B462E46FFF79FFCAC48A1
:1025B000009001940F980290462529460A95ACA2F6
:1025C0003346FFF793FC0096A5480190029404233C
:1025D0000B9829460F9C2246FFF754FBA94D009506
:1025E0007826204631463A463B46FFF74FFC009599
:1025F000384631463A463B46FFF748FC00950E9870
:1026000031463A463B46FFF741FC0095304631469D
:102610003A463B46FFF73AFC0095A0242046314657
:102620000B963A463B46FFF731FC0095C8252846F5
:1026300031463A463B46FFF729FC924E00960F98EA
:1026400021463A463B46FFF721FC00963846214694
:102650003A463B46FFF71AFC00960E9821463A464A
:102660003B46FFF713FC00960B9821463A463B4643
:10267000FFF70CFC0096204621463A463B46FFF702
:1026800005FC00962846214608943A463B46FFF74B
:10269000FDFB00960F9829463A463B46FFF7F6FBAE
:1026A0000096384629463A463B46FFF7EFFB009630
:1026B0000E9829463A463B46FFF7E8FB00960B98F2
:1026C00029463A463B46FFF7E1FB0096204629465D
:1026D0003A463B46FFF7DAFB0096284629463A463B
:1026E0003B46FFF7D3FB0998FFF7B8FD5C4F009717
:1026F0000F9D284629460D9A1346FEF7ABFB059C15
:10270000009401970F210491072228465EA3FEF74B
:10271000F1F8009401971921082228465DA3FEF7DD
:10272000E9F80094019723210C22069228465CA325
:10273000FEF7E0F8009401973221039128460C9EA1
:1027400032465AA3FEF7D6F8009401971822079252
:1027500028460A9958A3FEF7CDF800940197642102
:1027600020220A92284657A3FEF7C4F80094019746
:1027700091212846069F3A4655A3FEF711FA009488
:102780003748019028460899324655A3FEF708FAC3
:102790000094334E0196B3212846079A54A3FEF7BE
:1027A000FFF900940196CC2128460A9A54A3FEF71B
:1027B000F7F90998FFF752FD0096284629460D9A29
:1027C0001346FEF747FB00940196284604993A46C3
:1027D0004F4BFEF75BFA0094214E01961E212846CE
:1027E0000C9A4C4BFEF752FA009401962846039936
:1027F000079F3A46484BFEF749FA0094019628464F
:102800000E990A9A454BFEF741FA00940196284624
:102810000B99069A3E4BFDF759FE009401968C21C8
:1028200028460C9A3B4BFDF751FE00940196284632
:1028300008993A46384BFDF749FE00940196BE21AF
:1028400028460A9A354BFDF741FE0998FFF706FD29
:102850000096284629460D9A1346FEF7FBFA69E6CC
:10286000FFFF00004C43445F573A0000836C0000B8
:10287000496E637265617365696E67204E756E3A65
:1028800000000000D45F000041534349495F3578A0
:102890003700000041534349495F37783800000052
:1028A00041534349495F367831320000415343492F
:1028B000495F38783136000041534349495F31322E
:1028C0007832340041534349495F3136783332001E
:1028D000C6C1C4BBA3B1A3B2A3F8A3B1A3B2000005
:1028E000C6C1C4BBA3B1A3B6A3F8A3B1A3B60000ED
:1028F000C6C1C4BBA3B2A3B4A3F8A3B2A3B40000DF
:10290000C6C1C4BBA3B3A3B2A3F8A3B30000000025
:10291000606C0000776C00006B6C00008A6C00003B
:1029200043088B421AD3002203098B4279D3030A4E
:102930008B425ED3030B8B4242D3030C8B4227D3D3
:102940000902FF2212BA030C8B4202D312120902AF
:1029500003D0030B8B4233D31AE0D3E0411A8041FA
:10296000401C704703460B4371D443088B42F5D398
:10297000002203098B4254D3030A8B4239D3030B41
:102980008B421DD3030C8B4202D394466EE0090A9E
:10299000C30B8B4201D3CB03C01A5241830B8B4232
:1029A00001D38B03C01A5241430B8B4201D34B031B
:1029B000C01A5241030B8B4201D30B03C01A524180
:1029C000C30A8B4201D3CB02C01A5241830A8B4205
:1029D00001D38B02C01A5241430A8B4201D34B02EE
:1029E000C01A5241030A8B4201D30B02C01A524152
:1029F000CDD2C3098B4201D3CB01C01A5241830906
:102A00008B4201D38B01C01A524143098B4201D33F
:102A10004B01C01A524103098B4201D30B01C01A6A
:102A20005241C3088B4201D3CB00C01A52418308E4
:102A30008B4201D38B00C01A524143088B4201D311
:102A40004B00C01A5241411A524110007047CA0F40
:102A500000D04942031000D34042534000229C461C
:102A600003098B422DD3030A8B4212D38901FC2226
:102A700012BA030A8B420CD3890192118B4208D3FC
:102A8000890192118B4204D3890137D0921100E061
:102A90008909C3098B4201D3CB01C01A5241830972
:102AA0008B4201D38B01C01A524143098B4201D39F
:102AB0004B01C01A524103098B4201D30B01C01ACA
:102AC0005241C3088B4201D3CB00C01A5241830844
:102AD0008B4201D38B00C01A5241D9D243088B429A
:102AE00001D34B00C01A5241411A00D20146524153
:102AF000104663465B1000D34042704763465B104C
:102B000000D3404201B50021004201D0C94308462C
:102B1000C046C04602BD000070B5420064414B0093
:102B20005C41120E39D01B0E38D0FF2A3CD0FF2B4F
:102B30003AD0D2187F3A40024902400A490A451861
:102B4000ED0106004E43000A090A48430104731AC6
:102B50004019190C4318990F04D05B08012149074B
:102B60005B1A521CD80904D3401CF50301D19D0601
:102B700007D0FF2A08D2D50506D0E4072043401924
:102B800070BD0125A843F4E7002A01DCE00770BD11
:102B90002402FF202043C00570BD1B0EFF2A03D076
:102BA000FF2B01D0E00770BDFF2636064500B54279
:102BB00006D84D00B54203D8D218FF2A00D0E7E767
:102BC000004870BD0000C07F1820004800801A2215
:102BD000004A00820A000C000000140000001900E6
:102BE00000000000000000000000000000000404DD
:102BF000040404000004000014140A000000000093
:102C00000000000000000A0A1F0A0A1F0A0A00004A
:102C100000040E1505060C14150E04000000121514
:102C20000D152E2C2A1200000000040A0A36151574
:102C30002916000002020100000000000000000050
:102C4000100808040404040408081000020404081E
:102C5000080808080404020000000004150E0E1500
:102C60000400000000000008083E08080000000002
:102C7000000000000000000002020100000000004F
:102C8000003F000000000000000000000000000005
:102C900000020000002010100808040402020100D5
:102CA00000000E1111111111110E00000000040698
:102CB00004040404040E000000000E1111080402B4
:102CC000011F000000000E11100C1010110E00006A
:102CD0000000080C0C0A091F081C000000001F015E
:102CE000010F1110110E000000000C12010D131144
:102CF000110E000000001E10080804040404000067
:102D000000000E11110E1111110E000000000E1125
:102D10001119161009060000000000000400000050
:102D20000004000000000000000400000004040093
:102D30000000100804020204081000000000000057
:102D40003F003F00000000000000020408101008CF
:102D50000402000000000E11110804040004000029
:102D600000001C22292D2D1D221C0000000004043F
:102D70000C0A0A1E1233000000000F12120E12126B
:102D8000120F000000001E1101010101110E0000D0
:102D900000000F1212121212120F000000001F1278
:102DA0000A0E0A02121F000000001F120A0E0A0279
:102DB0000207000000001C1201013911120C000072
:102DC00000003312121E12121233000000001F0402
:102DD00004040404041F000000003E08080808085A
:102DE00008080907000037120A060A121237000005
:102DF0000000070202020202223F000000003B1B0B
:102E00001B1B15151535000000003B1216161A1A6B
:102E10001217000000000E1111111111110E000007
:102E200000000F12120E02020207000000000E1135
:102E300011111117190E180000000F12120E0A12AC
:102E40001237000000001E1101060810110F0000CB
:102E500000001F1504040404040E000000003312D7
:102E600012121212120C000000003312120A0A0C85
:102E7000040400000000151515150E0A0A0A0000CA
:102E800000001B0A0A04040A0A1B000000001B0AB7
:102E90000A0A0404040E000000001F0908040402CA
:102EA000121F00001C0404040404040404041C0095
:102EB0000002020404040808081010000E080808A4
:102EC0000808080808080E00040A000000000000B6
:102ED0000000000000000000000000000000003FB3
:102EE00002040000000000000000000000000000DC
:102EF000000C121C123C000000030202020E12120F
:102F0000120E000000000000001C1202120C000053
:102F100000181010101C1212123C000000000000DB
:102F2000000C121E021C000000182404041E0404DD
:102F3000041E000000000000003C120C021C221CB9
:102F400000030202020E12121237000000040400F5
:102F500000060404040E000000080800000C080825
:102F60000808080700030202021A0A060A130000F2
:102F70000007040404040404041F0000000000000F
:102F8000000F15151515000000000000000F1212AB
:102F90001237000000000000000C1212120C00009A
:102FA00000000000000F1212120E020700000000C5
:102FB000001C1212121C103800000000001B060238
:102FC0000207000000000000001E020C101E00009E
:102FD00000000004041E0404041C000000000000A3
:102FE000001B1212123C000000000000001B0A0A25
:102FF00004040000000000000015150E0A0A00007D
:1030000000000000001B0A040A1B00000000000072
:10301000003312120C08040300000000001E080414
:10302000041E000018080808080C08080808180002
:10303000080808080808080808080808060404041E
:10304000040804040404060016090000000000003F
:103050000000000000000000000000000000000070
:103060000000000000000008080808080808000028
:103070001818000000486C24120000000000000036
:10308000000000000000002424247F1212127F128E
:10309000121200000000081C2A2A0A0C1828282AEC
:1030A0002A1C080800000022251515152A5854541A
:1030B000542200000000000C1212120A7625291179
:1030C000916E0000000606040300000000000000EE
:1030D0000000000000402010100808080808081030
:1030E00010204000000204080810101010101008F2
:1030F000080402000000000008086B1C1C6B080894
:103100000000000000000000080808087F08080808
:1031100008000000000000000000000000000000A7
:10312000060604030000000000000000FE0000008E
:10313000000000000000000000000000000000008F
:1031400006060000000080404020201010080804FF
:10315000040202000000001824424242424242425D
:1031600024180000000000080E08080808080808D5
:10317000083E00000000003C4242422020100804AB
:10318000427E00000000003C4242201820404042A5
:10319000221C0000000000203028242422227E204F
:1031A000207800000000007E0202021A2640404201
:1031B000221C0000000000382402021A264242426B
:1031C000241800000000007E2222101008080808C1
:1031D000080800000000003C4242422418244242F9
:1031E000423C000000000018244242426458404023
:1031F000241C00000000000000001818000000005F
:103200001818000000000000000000080000000086
:103210000008080400000040201008040204081000
:10322000204000000000000000007F0000007F0040
:1032300000000000000000020408102040201008D8
:10324000040200000000003C4242464020101000F2
:10325000181800000000001C225A555555552D42E3
:10326000221C00000000000808181414243C22420C
:1032700042E700000000001F2222221E224242429A
:10328000221F00000000007C4242010101010142B6
:10329000221C00000000001F2242424242424242E1
:1032A000221F00000000003F4212121E12120242B2
:1032B000423F00000000003F4212121E12120202A2
:1032C000020700000000003C2222010101712122BE
:1032D000221C0000000000E7424242427E4242427D
:1032E00042E700000000003E080808080808080837
:1032F000083E00000000007C10101010101010108C
:103300001010110F0000007722120A0E0A1212226A
:1033100022770000000000070202020202020202FD
:10332000427F000000000077363636362A2A2A2AE5
:103330002A6B0000000000E346464A4A525252629D
:10334000624700000000001C2241414141414141CF
:10335000221C00000000003F424242423E020202A4
:10336000020700000000001C2241414141414D5331
:10337000321C60000000003F4242423E12122222F4
:1033800042C700000000007C424202041820404274
:10339000423E00000000007F4908080808080808AD
:1033A000081C0000000000E7424242424242424202
:1033B000423C0000000000E742422224241414187A
:1033C000080800000000006B49494949555536225C
:1033D00022220000000000E74224241818182424A8
:1033E00042E70000000000772222141408080808B1
:1033F000081C00000000007E212010100804044278
:10340000423F000000780808080808080808080873
:1034100008087800000002020404080808101020C0
:1034200020204040001E101010101010101010101E
:1034300010101E00003844000000000000000000D2
:10344000000000000000000000000000000000007C
:10345000000000FF0006080000000000000000005F
:1034600000000000000000000000003C42784442E0
:1034700042FC0000000000030202021A26424242FF
:10348000261A00000000000000000038440202027A
:10349000443800000000006040404078444242420E
:1034A00064D80000000000000000003C427E0202E0
:1034B000423C0000000000F08808087E0808080868
:1034C000083E0000000000000000007C22221C02D8
:1034D0003C42423C000000030202023A46424242A1
:1034E00042E700000000000C0C00000E080808086D
:1034F000083E00000000003030000038202020206E
:103500002020221E0000000302020272120A16127C
:10351000227700000000000E0808080808080808C4
:10352000083E0000000000000000007F929292928E
:1035300092B70000000000000000003B46424242FB
:1035400042E70000000000000000003C424242420E
:10355000423C0000000000000000001B26424242E6
:10356000221E020700000000000000784442424290
:10357000447840E000000000000000774C040404A0
:10358000041F0000000000000000007C42023C40DC
:10359000423E0000000000000008083E080808083D
:1035A0000830000000000000000000634242424278
:1035B00062DC000000000000000000E74224241448
:1035C0000808000000000000000000EB49495555C4
:1035D00022220000000000000000007624181818C5
:1035E000246E000000000000000000E742242414C4
:1035F00018080807000000000000007E22100808DC
:10360000447E000000C02020202020102020202008
:103610002020C000101010101010101010101010EA
:1036200010101010000608080808081008080808FC
:10363000080806000C32C200000000000000000074
:10364000000000000000000000000000000000007A
:10365000000000000000000000000000000000006A
:10366000000000000000000000000000000000005A
:10367000000000000000000000000000600060008A
:1036800060006000600060006000400020002000DA
:1036900020000000000000006000600060000000EA
:1036A0000000000000000000600660063003980182
:1036B000880044000000000000000000000000003E
:1036C00000000000000000000000000000000000FA
:1036D00000000000000000000000000010021002C6
:1036E00010021002FE07FE07080208010801080187
:1036F0000801FE07FE0704010401040104010000A3
:103700000000000000000000000040004000F00148
:1037100058034C03CC034C0058007000E000C0017B
:10372000C00140034C035C034C034801F00040001F
:103730004000000000000000000000000E010A012F
:10374000910091009100510051003A00AE03A00297
:1037500050045004480448044804840284030000D0
:1037600000000000000000000000000038006C00B5
:103770006C006C006C006C002C0098071C011A0196
:10378000330133016301E300C308C6093C070000AD
:1037900000000000000000000C001C0010001000E1
:1037A000080004000000000000000000000000000D
:1037B0000000000000000000000000000000000009
:1037C0000000000000000000000400020001800072
:1037D0008000400040002000200020002000200049
:1037E0002000200040004000800080000001000216
:1037F00000040000000000000200040008001000A7
:103800001000200020004000400040004000400028
:1038100040004000200020001000100008000400BC
:103820000200000000000000000000000000000096
:103830004000C0004000460C4E0FD001F0015E0F6A
:10384000460C400040004000000000000000000066
:103850000000000000000000000000000000000068
:10386000000040004000400040004000FE0F4000CB
:103870004000400040004000000000000000000048
:103880000000000000000000000000000000000038
:103890000000000000000000000000000000000028
:1038A00000000000000000000C001C0010001000D0
:1038B00008000400000000000000000000000000FC
:1038C000000000000000000000000000FE070000F3
:1038D00000000000000000000000000000000000E8
:1038E00000000000000000000000000000000000D8
:1038F00000000000000000000000000000000000C8
:1039000000000000000000001C001C001C00000063
:103910000000000000000000000400060002000398
:103920000001000180008000400040006000200095
:10393000200010001000080008000C000400060021
:103940000200000000000000000000000000F00085
:1039500098010C030C030606060606060606060674
:103960000606060606060C030C039801F00000008C
:103970000000000000000000000000000000400007
:103980007C0060006000600060006000600060001B
:10399000600060006000600060006000FC030000E8
:1039A0000000000000000000000000000000F8001F
:1039B0008401020306030603000300018001C00026
:1039C000600020001000080204020602FE0300004E
:1039D000000000000000000000000000000078006F
:1039E000C6008601860180018001C0007000800150
:1039F000000100030003060306038601F80000002F
:103A00000000000000000000000000000000800135
:103A10008001C001A001A0019001880188018401FA
:103A20008201FE0F8001800180018001E00700001B
:103A30000000000000000000000000000000FC0387
:103A400004000400040004000400F4008C010403DA
:103A5000000300030603060382018401F80000004E
:103A60000000000000000000000000000000E00175
:103A700018030C030C0004000600E60116030E06F2
:103A800006060606060604060C021803F0000000EF
:103A90000000000000000000000000000000F80727
:103AA0000C060402040100010001800080004000B7
:103AB00040004000600060006000600060000000A6
:103AC0000000000000000000000000000000F801FD
:103AD0000C030606060606060C021C03F000C801CD
:103AE0000C0306060606060606060C03F001000097
:103AF0000000000000000000000000000000F000D6
:103B00000C010C03060206060606060606078C06CE
:103B100078060006000300030C018C017800000009
:103B20000000000000000000000000000000000095
:103B30000000000000000000E000E000E0000000E5
:103B40000000000000000000E000E000E0000000D5
:103B50000000000000000000000000000000000065
:103B60000000000000000000600060000000000095
:103B70000000000000000000000060006000400045
:103B800020002000000000000000000000040002EF
:103B90000001800040002000100008000400080020
:103BA000100020004000800000010002000400001E
:103BB0000000000000000000000000000000000005
:103BC0000000000000000000FE07000000000000F0
:103BD000FE070000000000000000000000000000E0
:103BE00000000000000000000000000004000800C9
:103BF00010002000400080000001000200040002CC
:103C000000018000400020001000080004000000B7
:103C10000000000000000000000000000000E003C1
:103C20001806040C040C0C0C0C0C0007800140005E
:103C30004000400000000000E000E000E000000064
:103C4000000000000000000000000000E000180379
:103C50000C02CC0564056605A605B604B604B604D8
:103C6000B604B602E4010C040C021803F0000000D4
:103C700000000000000000000000000000006000E4
:103C800060005000D000900090008800880108017A
:103C9000F801040304030402020202060F0F0000ED
:103CA0000000000000000000000000000000FE0016
:103CB0008C030C030C030C030C038C01FC000C03A1
:103CC0000C020C060C060C060C060C03FE01000090
:103CD0000000000000000000000000000000E00301
:103CE00018030C060C040404060006000600060077
:103CF0000600060006040C040C021803F000000085
:103D000000000000000000000000000000007F0034
:103D10008C010C030C030C060C060C060C060C069E
:103D20000C060C060C060C030C038C017F00000033
:103D30000000000000000000000000000000FF0381
:103D4000060306040604060086008600FE008600C0
:103D5000860086000600060406040602FF03000033
:103D60000000000000000000000000000000FF0351
:103D7000060306040604060086008600FE00860090
:103D80008600860006000600060006001F000000F0
:103D90000000000000000000000000000000F00033
:103DA00018010C020C0204020600060006000600C0
:103DB000C60F060306030C030C031803F0000000F3
:103DC00000000000000000000000000000000F0FD5
:103DD000060606060606060606060606FE0706068A
:103DE0000606060606060606060606060F0F00006D
:103DF0000000000000000000000000000000FC03C4
:103E000060006000600060006000600060006000B2
:103E1000600060006000600060006000FC03000063
:103E20000000000000000000000000000000F80793
:103E3000C000C000C000C000C000C000C000C00082
:103E4000C000C000C000C000C000C000C000C6006C
:103E500066003C0000000000000000000000CF03EE
:103E60008601C60046002600160036002E006E00B1
:103E70004600C60086008601060106038F07000083
:103E800000000000000000000000000000001F0013
:103E900006000600060006000600060006000600F2
:103EA000060006000600060406040602FF030000E2
:103EB00000000000000000000000000000000707F4
:103EC000860386038E038E034E034E034A035A0372
:103ED0005A033A0332033203320312038707000006
:103EE00000000000000000000000000000008E0F35
:103EF0000C021C021C0234023402640264024402FA
:103F0000C402840284038403040304031F02000028
:103F10000000000000000000000000000000F000B1
:103F200098010C030C02060606060606060606069F
:103F30000606060606060C020C039801F0000000B7
:103F40000000000000000000000000000000FF0072
:103F50000603060606060606060606068603FE0095
:103F60000600060006000600060006001F0000000E
:103F70000000000000000000000000000000F00051
:103F800098010C030C02060606060606060606063F
:103F90000606060676064C02CC039801F000800760
:103FA0000003000000000000000000000000FF010E
:103FB000060306060606060606060603FE0046007B
:103FC000C600860086010603060306060F0E0000E3
:103FD0000000000000000000000000000000F802E7
:103FE0000C030602060206000E003C00F800E00387
:103FF000800300070206020606060C03F00100001B
:104000000000000000000000000000000000FE07AB
:104010006204610861086000600060006000600088
:10402000600060006000600060006000F801000057
:1040300000000000000000000000000000001E075B
:104040000C020C020C020C020C020C020C020C0200
:104050000C020C020C020C020C021801F000000011
:1040600000000000000000000000000000000F073A
:104070000602040104010C010C018800880098006C
:104080009800500050007000300020002000000018
:104090000000000000000000000000000000F70E1B
:1040A000620442044604460464026402E402E40238
:1040B0009C029C01980198018801880088000000FA
:1040C00000000000000000000000000000009E074B
:1040D0000C01080118019000B00060002000600091
:1040E0006000D00090008801080104038E070000E2
:1040F00000000000000000000000000000000F0FA2
:10410000060404020C0208011801B800B000700097
:10411000600060006000600060006000F801000066
:104120000000000000000000000000000000FC078C
:104130000C020603020180018000400040002000C4
:1041400020001000180008040C040402FE03000004
:104150000000000000000000E0032000200020001C
:10416000200020002000200020002000200020004F
:10417000200020002000200020002000200020003F
:10418000E003000000000000000000000400040044
:10419000080008001000100010002000200040005F
:1041A0004000C00080008000000100010002000209
:1041B00000020004000000007C00400040004000BD
:1041C00040004000400040004000400040004000EF
:1041D00040004000400040004000400040004000DF
:1041E0007C0000000000600090000801000000005A
:1041F00000000000000000000000000000000000BF
:1042000000000000000000000000000000000000AE
:10421000000000000000000000000000000000009E
:10422000000000000000000000000000000000008E
:10423000000000000000000000000000000000007E
:104240000000FF0F000000001800600000000000E8
:10425000000000000000000000000000000000005E
:10426000000000000000000000000000000000004E
:10427000000000000000000000000000000000003E
:104280000000000000000000F0010C030C0300031C
:10429000E0031C030E03060306038E0B7C0E0000D6
:1042A00000000000000000000000000008000E00F8
:1042B0000C000C000C000C00CC013C031C060C068E
:1042C0000C060C060C060C060C021C03E401000094
:1042D00000000000000000000000000000000000DE
:1042E0000000000000000000F0008C018C0186013D
:1042F00006000600060006020C020C01F000000099
:104300000000000000000000000000000002C003E8
:10431000000300030003000378038C030C0306036F
:10432000060306030603060304038C077801000056
:10433000000000000000000000000000000000007D
:104340000000000000000000E001180308020C0655
:104350000C06FC070C000C0018041802E001000019
:104360000000000000000000000000000000C0038A
:104370006006300630003000FE01300030003000B2
:10438000300030003000300030003000FC01000010
:10439000000000000000000000000000000000001D
:1043A0000000000000000000F007D8068C018C011E
:1043B0008C019801F8000C00FC00CC0306030603F6
:1043C0008E03F800000000000000000008000E004E
:1043D0000C000C000C000C00EC011C030C030C0383
:1043E0000C030C030C030C030C030C039E070000CE
:1043F000000000000000000000000000000060005D
:1044000060000000000040007C0060006000600070
:10441000600060006000600060006000FC0300005D
:104420000000000000000000000000000000C001CB
:10443000C001000000000001F00180018001800146
:104440008001800180018001800180018001800164
:10445000CC007C00000000000000000008000E00FE
:104460000C000C000C000C008C038C008C004C0029
:104470006C005C008C008C010C010C039E0700009A
:1044800000000000000000000000000040007C0070
:10449000600060006000600060006000600060001C
:1044A000600060006000600060006000FC030000CD
:1044B00000000000000000000000000000000000FC
:1044C00000000000000000003707EE0666066606E2
:1044D000660666066606660666066606FF0F000046
:1044E00000000000000000000000000000000000CC
:1044F0000000000000000000EE011C030C030C0390
:104500000C030C030C030C030C030C039E070000AC
:10451000000000000000000000000000000000009B
:104520000000000000000000F00098010C030606E7
:1045300006060606060606060C030C03F00000003D
:10454000000000000000000000000000000000006B
:104550000000000000000000EE011C030C060C0629
:104560000C060C060C060C060C031C03EC010C00DC
:104570000C003E00000000000000000000000000F1
:10458000000000000000000078028C030C0306030A
:10459000060306030603060304038C0378030003E3
:1045A0000003C00700000000000000000000000041
:1045B00000000000000000009F03580638061800A5
:1045C000180018001800180018001800FF0000005C
:1045D00000000000000000000000000000000000DB
:1045E0000000000000000000F0031C030C020C029D
:1045F0003800F000C003040304038C03FC01000036
:1046000000000000000000000000000000000000AA
:104610002000200030003000FE013000300030006B
:10462000300030003000300030023002E001000085
:10463000000000000000000000000000000000007A
:1046400000000000000008028E030C030C030C03A2
:104650000C030C030C030C030C039C0778010000F3
:10466000000000000000000000000000000000004A
:1046700000000000000000001E070C0208010801F5
:1046800018019000B000B000600060002000000041
:10469000000000000000000000000000000000001A
:1046A0000000000000000000F70E620446046402EF
:1046B0006402EC029C019801980198010800000036
:1046C00000000000000000000000000000000000EA
:1046D0000000000000000000BC0718011001B0003D
:1046E00060006000E0009000080108039E070000E1
:1046F00000000000000000000000000000000000BA
:1047000000000000000000009E07080108010801E9
:1047100090009000B0006000600060002000200069
:1047200024001C0000000000000000000000000049
:104730000000000000000000FC018401C4004400EF
:10474000600020003000180208020C03FC01000089
:1047500000000000000000000003800080008000D6
:104760008000800080008000800040002000400029
:104770008000800080008000800080008000800039
:1047800000030000400040004000400040004000A6
:104790004000400040004000400040004000400019
:1047A0004000400040004000400040004000400009
:1047B00040004000000000000C001000100010003D
:1047C0001000100010001000100020004000200019
:1047D0001000100010001000100010001000100059
:1047E0000C00000000001C002204C2048003000032
:1047F00000000000000000000000000000000000B9
:1048000000000000000000000000000000000000A8
:104810000000000000000000000000000000000098
:104820000000000000000000000000000000000088
:104830000000000000000000000000000000000078
:104840000000000000000000000000000000000068
:104850000000000000000000000000000000C00197
:10486000C001C001C001C001C001C00180008000C2
:1048700080008000800080008000000000000000B8
:1048800000008001C003C0038001000000000000A0
:1048900000000000000000000000E01CE01CF01E12
:1048A000700E3807180308018400000000000000A3
:1048B00000000000000000000000000000000000F8
:1048C00000000000000000000000000000000000E8
:1048D00000000000000000000000000000000000D8
:1048E00020102010201020102010FE7FFE7F1008C6
:1048F000100810081008100810081008FE7FFE7F2E
:10490000080408040804080408040000000000006B
:104910000000000000000000000000000001000195
:10492000C007601910311831183918393801700171
:10493000E001C0038007000F001D003900311C3169
:104940001C310C310C11180DE007000100010001B1
:104950000000000000000000000000000000000057
:104960001C1036186308630C63046304630263025B
:104970006301361D9C37802280634063406320635F
:104980002063306310221836081C0000000000006D
:104990000000000000000000000000000000000017
:1049A000F00098018C018C018C018C018C00CC00F2
:1049B0007800183E1C083608320863046304C304F8
:1049C000C303834306438E26781C000000000000CA
:1049D000000000000000000000001C003C003C0043
:1049E0003000300010000C00060000000000000045
:1049F00000000000000000000000000000000000B7
:104A000000000000000000000000000000000000A6
:104A10000000000000000000000000400020001026
:104A20000008000C000400060003000300038001DE
:104A300080018001800180018001800180010003EC
:104A40000003000300060006000C00080010002010
:104A50000040000000000000000002000400080008
:104A60001000300020006000C000C000C0008001C5
:104A70008001800180018001800180018001C000EF
:104A8000C000C0006000600030001000080004009A
:104A90000200000000000000000000000000000014
:104AA0000000000000018003800300011C713C79BC
:104AB000783DC0070001C007783D3C791C710001BA
:104AC000800380038001000000000000000000005F
:104AD00000000000000000000000000000000000D6
:104AE00000000000000000010001000100010001C1
:104AF00000010001FC7F0001000100010001000134
:104B000000010001000000000000000000000000A3
:104B10000000000000000000000000000000000095
:104B20000000000000000000000000000000000085
:104B30000000000000000000000000000000000075
:104B4000000000001C003C003C0030003000100061
:104B50000C00060000000000000000000000000043
:104B60000000000000000000000000000000000045
:104B700000000000FE7F00000000000000000000B8
:104B80000000000000000000000000000000000025
:104B90000000000000000000000000000000000015
:104BA0000000000000000000000000000000000005
:104BB00000000000000000000000000000000000F5
:104BC000000018003C003C0018000000000000003D
:104BD0000000000000000000000000400060002015
:104BE0000030001000180008000C0004000600024D
:104BF0000003000180018000C00040006000200030
:104C000030001000180008000C000400060002002C
:104C10000000000000000000000000000000000094
:104C2000C007600C30181830183018200C600C6069
:104C30000C600C600C600C600C600C600C60182048
:104C4000183018303018600CC00700000000000059
:104C50000000000000000000000000000000000054
:104C600000018001F8018001800180018001800144
:104C7000800180018001800180018001800180012C
:104C8000800180018001C003F81F000000000000C7
:104C90000000000000000000000000000000000014
:104CA000E007101C0818043004300C300C300030C1
:104CB00000180008000400020001800040002020CD
:104CC000102008200430FC1FFC1F00000000000022
:104CD00000000000000000000000000000000000D4
:104CE000E003180E0C0C0C180C180C180018000C13
:104CF0000006C003000E00180010003000300C3019
:104D00000C300C100C18180CE00300000000000020
:104D10000000000000000000000000000000000093
:104D2000000C000E000E000F800E800E400E600E74
:104D3000200E100E100E080E040E040EFE7F000E44
:104D4000000E000E000E000E000EC07F00000000DE
:104D50000000000000000000000000000000000053
:104D6000F03FF03F10001000100008000800C807D6
:104D7000280C1818081000300030003000300C30BB
:104D80000C3004180418080CF003000000000000A8
:104D90000000000000000000000000000000000013
:104DA000800FC010203010301800180008000C00D0
:104DB0008C0F6C183C301C600C600C600C600C603C
:104DC0001860182030306018C00700000000000094
:104DD00000000000000000000000000000000000D3
:104DE000F83FF83F1C100C080408040400040002FB
:104DF0000002000100010001800080008000C0006E
:104E0000C000C000C000C000C000000000000000E2
:104E10000000000000000000000000000000000092
:104E2000E007300C18180C300C300C301C303818DF
:104E30007008E007B007180E0C1C06380630063064
:104E4000063006300C18180CE003000000000000CB
:104E50000000000000000000000000000000000052
:104E6000E00318040C080C18061006300630063053
:104E7000063006380C3C1836F031003000180018A7
:104E800000180C0C0C060C03F001000000000000E0
:104E90000000000000000000000000000000000012
:104EA0000000000000000000000000000000800181
:104EB000C003C003800100000000000000000000EB
:104EC00000008001C003C00380010000000000005A
:104ED00000000000000000000000000000000000D2
:104EE0000000000000000000000000000000C00002
:104EF000C0000000000000000000000000000000F2
:104F0000000000000000C000C000800080004000E1
:104F10004000000000000000000000000000002031
:104F2000001000080004000600038001C0006000BB
:104F3000300018000C00180030006000C000800134
:104F4000000300060004000800100020000000001C
:104F50000000000000000000000000000000000051
:104F60000000000000000000000000000000FE7FC4
:104F700000000000000000000000FE7F00000000B4
:104F80000000000000000000000000000000000021
:104F9000000000000000000000000000000004000D
:104FA0000800100020006000C0008001000300061F
:104FB000000C001800300018000C000600038001EF
:104FC000C000600020001000080004000000000085
:104FD0000000000000000000000000000000C0070A
:104FE0003018083008600C601C601C601C600030C9
:104FF000001C00060001800080008000800000008E
:1050000000008001C003C003800100000000000018
:105010000000000000000000000000000000000090
:10502000C0076018103018200C2F8C4D864CC64CD1
:10503000C64C664C66446644662666266615CC1CDD
:105040000C40082018303018C00700000000000095
:10505000000000000000000000000000000000014F
:10506000C001C001C00140016003200320032003F0
:105070003006100610061006F80F080C080C080C75
:105080000C0C0418041806181F7C00000000000017
:105090000000000000000000000000000000000010
:1050A000FE07181C18381830183018301830181827
:1050B000180CF807181818301820186018601860B5
:1050C0001860186018301818FE0F0000000000006B
:1050D00000000000000000000000000000000000D0
:1050E000C0276038103018200C400C400400060027
:1050F00006000600060006000600060006000C403A
:105100000C400C2018303018C007000000000000D0
:10511000000000000000000000000000000000008F
:10512000FE03180E18181830183018301860186060
:1051300018601860186018601860186018601830DF
:10514000183018101818180EFE0300000000000098
:10515000000000000000000000000000000000004F
:10516000FE3F18301820186018401800180818085A
:10517000180CF80F180C1808180818001800180058
:105180001840184018201830FE3F000000000000B2
:10519000000000000000000000000000000000000F
:1051A000FE7F1870184018C01880180018101810CA
:1051B0001818F81F181818101810180018001800E0
:1051C00018001800180018007E0000000000000001
:1051D00000000000000000000000000000000000CF
:1051E000C013701C101018100C200C2004000600B6
:1051F000060006000600060006FC063006300C30ED
:105200000C30183018303008C007000000000000D3
:10521000000000000000000000000000000000008E
:105220003F7E0C180C180C180C180C180C180C18C5
:105230000C180C18FC1F0C180C180C180C180C1857
:105240000C180C180C180C183F7E00000000000011
:10525000000000000000000000000000000000004E
:10526000F81F8001800180018001800180018001A0
:105270008001800180018001800180018001800126
:105280008001800180018001F81F00000000000003
:10529000000000000000000000000000000000000E
:1052A000E07F000600060006000600060006000675
:1052B00000060006000600060006000600060006BE
:1052C0000006000600060006000600060E060E0395
:1052D0008E01FC0000000000000000000000000043
:1052E0007E7C18181808180418061802180198016E
:1052F0009801D801B803380318071806180E180CBF
:10530000181C1818183018307EFC0000000000002F
:10531000000000000000000000000000000000008D
:105320007E00180018001800180018001800180057
:1053300018001800180018001800180018001800AD
:105340001840184018201830FE3F000000000000F0
:10535000000000000000000000000000000000004D
:105360001FF81C381C381C381C3C3434343434349A
:10537000343674326432643264326431C431C431DC
:10538000C431C430C43084309FFC000000000000F1
:10539000000000000000000000000000000000000D
:1053A0001F7C1C103C103410341074106410E41076
:1053B000C410C41184118413041304170416041EAA
:1053C000041C041C041C04181F180000000000002A
:1053D00000000000000000000000000000000000CD
:1053E000C003300C181808100C300C300660066032
:1053F00006600660066006600660066006600C20B7
:105400000C3008101818300CC00300000000000019
:10541000000000000000000000000000000000008C
:10542000FE0F18181830186018601860186018609F
:1054300018301818F80F1800180018001800180075
:1054400018001800180018007E000000000000007E
:10545000000000000000000000000000000000004C
:10546000C003300C18180C100C300C2006600660BD
:105470000660066006600660066006600660E4611D
:105480002C331C321816300EC007004C007C00383C
:10549000000000000000000000000000000000000C
:1054A000FE07181C18381830183018301830181823
:1054B000180CF80798031803180718061806180E92
:1054C000180C180C181C18187E780000000000003A
:1054D00000000000000000000000000000000000CC
:1054E000E027303818300C200C200C000C0018007D
:1054F0007800E003800F001E003800700060046038
:105500000460086018303818C80F00000000000060
:10551000000000000000000000000000000000008B
:10552000FC3F8C21846182418241800180018001A5
:105530008001800180018001800180018001800163
:105540008001800180018001E00700000000000070
:10555000000000000000000000000000000000004B
:105560003F7C0C100C100C100C100C100C100C10BC
:105570000C100C100C100C100C100C100C100C104B
:105580000C100C1008083804E003000000000000B4
:10559000000000000000000000000000000000000B
:1055A0003EF818201820182030103010301030101D
:1055B000600860086008E00CC004C004C0048003F8
:1055C0008003800380030001000100000000000050
:1055D00000000000000000000000000000000000CB
:1055E000DFF38661862186218C210C218C238C138C
:1055F0008C138C134C1358125816580E380E380E44
:10560000380E300C100410041004000000000000DC
:10561000000000000000000000000000000000008A
:105620007E3E180838083004300470026002E00141
:10563000C001C0018001800340034007200620060E
:10564000100C100C081808183E7C00000000000028
:10565000000000000000000000000000000000004A
:105660007E7C1C10181018083008300C7004600480
:105670006002C002C002C00180018001800180017F
:105680008001800180018001E0070000000000002F
:10569000000000000000000000000000000000000A
:1056A000F83F18180818040C040E00060007000341
:1056B00080038001C001C000E00060007000300085
:1056C000382018201C100C18FE1F000000000000DD
:1056D00000000000000000000000C03F400040004B
:1056E00040004000400040004000400040004000BA
:1056F00040004000400040004000400040004000AA
:105700004000400040004000400040004000C03FDA
:105710000000000000000000000000000000080081
:1057200018001800100030002000600060004000E9
:10573000C00080008001800100010003000200061B
:1057400000060004000C00080018001800100030CB
:1057500000200000000000000000FC030002000226
:105760000002000200020002000200020002000229
:105770000002000200020002000200020002000219
:105780000002000200020002000200020002FC030C
:10579000000000000000000000008007C006200894
:1057A00010100000000000000000000000000000D9
:1057B00000000000000000000000000000000000E9
:1057C00000000000000000000000000000000000D9
:1057D00000000000000000000000000000000000C9
:1057E00000000000000000000000000000000000B9
:1057F00000000000000000000000000000000000A9
:105800000000000000000000000000000000000098
:105810000000FFFF0000000000007800C000000151
:105820000000000000000000000000000000000078
:105830000000000000000000000000000000000068
:105840000000000000000000000000000000000058
:105850000000000000000000000000000000000048
:105860000000000000000000000000000000F00345
:1058700018060C0C0C0C000C800F700C1C0C0C0C83
:10588000060C060C064C0C4FF83800000000000017
:1058900000000000000000000000000000001000F8
:1058A0001E00180018001800180018001800180F23
:1058B000D8183830386018601860186018601860A0
:1058C0001860182038307818C80700000000000061
:1058D00000000000000000000000000000000000C8
:1058E0000000000000000000000000000000C007F1
:1058F000700C181818180C180C000C000C000C0078
:105900000C20182018103008C0070000000000000C
:105910000000000000000000000000000000001077
:10592000001E001800180018001800180018E01BCE
:10593000301C181818180C180C180C180C180C1807
:105940000C180818181C307AE0090000000000004C
:105950000000000000000000000000000000000047
:105960000000000000000000000000000000C00770
:10597000300C181808100C300C30FC3F0C000C00D8
:105980000C00182018107018C0070000000000005C
:105990000000000000000000000000000000000007
:1059A000003E80C380C0C0C0C000C000C000FC1F5B
:1059B000C000C000C000C000C000C000C000C000E7
:1059C000C000C000C000C000F80F000000000000D0
:1059D00000000000000000000000000000000000C7
:1059E0000000000000000000000000000000C07780
:1059F000306C10181818181818181018300CF007F8
:105A000018001800F00FF03F08700C600C600C607C
:105A10003838E00F00000000000000000000100017
:105A20001E00180018001800180018001800980F21
:105A3000D81838301830183018301830183018305E
:105A400018301830183018307EFC000000000000BC
:105A50000000000000000000000000000000000046
:105A60008003800380030000000000000001F801B3
:105A7000800180018001800180018001800180011E
:105A80008001800180018001F81F000000000000FB
:105A90000000000000000000000000000000000006
:105AA0000038003800380000000000000010801F9F
:105AB0000018001800180018001800180018001826
:105AC0000018001800180018001800180018180C0A
:105AD0001806F003000000000000000000001000A5
