:020000040000FA
:10000000600120206D0100007101000073010000FB
:1000100000000000000000000000000000000000E0
:10002000000000000000000000000000750100005A
:1000300000000000000000007701000079010000CE
:100040007B0100007B0100007B0100007B010000C0
:100050007B0100007B0100007B0100007B010000B0
:10006000000000007B0100007B0100000000000098
:10007000000000007B0100007B0100007B0100000C
:100080007B0100007B0100007B0100007B01000080
:100090007B0100007B010000000000000000000068
:1000A0007B0100007B010000000000000000000058
:1000B0007B010000000000007B0100007B010000CC
:1000C00000F002F800F042F812A030C808382418F6
:1000D0002D18AC4201D100F039F80FCCA246AB4646
:1000E0000CA730CF2D1B083F3F197C427F1E544484
:1000F0002D090426F441641EAC4201D300F026F819
:100100000126334200D0FB1A3343984754465D46DC
:10011000DFE70000740C0000840C00000000000009
:100120007047000000000000002300240025002686
:10013000103A01D378C1FBD8520700D330C100D5A3
:100140000B6070471FB51FBD10B510BD00F027F83C
:100150001146FFF7F7FF00F0F1FD00F03FF803B4A0
:10016000FFF7F2FF03BC00F045F800000648004727
:10017000FEE7FEE7FEE7FEE7FEE7FEE70348044989
:10018000024A044B70470000C100000060002020BC
:10019000600120206000202070477047704775463E
:1001A00000F024F8AE46050069465346C008C0007A
:1001B000854618B020B5FFF7E1FF60BCB6460026C3
:1001C0000027C0C5C0C5C0C5C0C5C0C5C0C5C0C565
:1001D000C0C5403D490849008D46704710B50446EA
:1001E000C046C0462046FFF7BAFF10BD0048704722
:1001F0000000202001491820ABBEFEE726000200C7
:100200007047811E091F00BFFCD2704710B5002A3D
:100210000FD091235B01C3180020DC692405240F53
:1002200005D00C5C1C60401C8242F6D1104680B2A6
:1002300010BD002080B210BD70B50A780C231A40A2
:100240000124240305196E689E43B2186A60497838
:1002500007221140035993435918015170BD000002
:10026000B0B51122120283580124A34383500B8896
:100270008C781C438B882343094C1C408358094DC0
:100280001D40631983508B79CC791C43097A214333
:100290007E231940801842689A4351184160B0BDCE
:1002A00018670000E798FDFF10B5012212038318BC
:1002B0000C789C604978815010BD0000B0B50120D9
:1002C0000403034D2C600348FFF79BFF2C61B0BD76
:1002D00090120A4000350C0001200003114908600B
:1002E0007047C04610B50C480C4A026042600121BC
:1002F0004B0604681C43046044681C43446082232A
:100300000365521E426506488122026008030549C2
:100310000860086310BDC0460480424083000400AA
:1003200088804240A0120A4080B511481149FFF769
:1003300083FF03204102104802680A430260012142
:100340000A02036813430360002242611F224262D3
:10035000826B07239A4382631A02836B93438363FE
:10036000826A042313438362826A0A43826280BDE5
:1003700000000F40640D000000120F400C480021E7
:1003800001600320C1430B480246083A13680B4042
:1003900013600168012291430160110203688B43DD
:1003A00003601103001F02680A4302607047C046E1
:1003B00008030B4008010B4010B5144C14492046AB
:1003C000FFF772FF13492046FFF74AFF0321CA03D4
:1003D00011480368934303600269104B13401A33BA
:1003E000036142690A433C218A4342614168012218
:1003F000114043689343591841609102084B1C68AF
:100400000C431C6001681143016010BD0080104066
:10041000660D0000680D0000009110400000FFFF15
:100420002890104080B500F009F8FFF75BFFFFF758
:10043000A5FFFFF779FFFFF7BFFF80BD10B50948A3
:1004400009494160094A5160094B5960094C616092
:10045000094901601160196021601020FFF7D1FE89
:1004600010BDC04600080A40030000B100280A4041
:1004700000080F400088104001000026EE48562179
:1004800081610168C90708D00168C90705D0016802
:10049000C90702D00168C907F3D14F218161016802
:1004A000C90708D00168C90705D00168C90702D08B
:1004B0000168C907F3D1492181610268D20708D0D8
:1004C0000268D20705D00268D20702D00268D207BC
:1004D000F3D1432282610268D20708D00268D207B2
:1004E00005D00268D20702D00268D207F3D14522B4
:1004F00082610268D20708D00268D20705D002687C
:10050000D20702D00268D207F3D1202282610268AA
:10051000D20708D00268D20705D00268D20702D0FD
:100520000268D207F3D181610268D20708D002685D
:10053000D20705D00268D20702D00268D207F3D1F1
:100540004E2282610268D20708D00268D20705D025
:100550000268D20702D00268D207F3D18161016834
:10056000C90708D00168C90705D00168C90702D0CA
:100570000168C907F3D1542181610168C90708D016
:100580000168C90705D00168C90702D00168C90719
:10059000F3D10D2181610168C90708D00168C9073D
:1005A00005D00168C90702D00168C907F3D10A2143
:1005B00081610168C90708D00168C90705D00168D1
:1005C000C90702D00168C907F3D17047F0B583B0FD
:1005D00001A96420087093480122FFF717FE924D8D
:1005E0002F46083F386891490840683038602E1F10
:1005F00030688F4908408F49401830608E4C8F48D2
:100600002968490600D41BE12968490600D417E18E
:100610002968490600D413E12968490600D40FE18E
:100620002968490600D40BE12968490600D407E18E
:100630002968490600D403E12968490600D4FFE08F
:100640002968490600D4FBE02968490600D4F7E090
:100650002968490600D4F3E02968490600D4EFE090
:100660002968490600D4EBE02968490600D4E7E090
:100670002968490600D4E3E02968490600D4DFE090
:100680002968490600D4DBE02968490600D4D7E090
:100690002968490600D4D3E02968490600D4CFE090
:1006A0002968490600D4CBE02968490600D4C7E090
:1006B0002968490600D4C3E02968490600D4BFE090
:1006C0002968490600D4BBE0193099D15420A061B3
:1006D0002168C90708D02168C90705D02168C90762
:1006E00002D02168C907F3D15821A1612168C90747
:1006F00008D02168C90705D02168C90702D0216840
:10070000C907F3D12021A1612168C90708D0216858
:10071000C90705D02168C90702D02168C907F3D1EC
:10072000A0612168C90708D02168C90705D02168E0
:10073000C90702D02168C907F3D14921A161216805
:10074000C90708D02168C90705D02168C90702D0A8
:100750002168C907F3D14D21A1612168C90708D0DB
:100760002168C90705D02168C90702D02168C907D7
:10077000F3D14521A1612168C90708D02168C907C3
:1007800005D02168C90702D02168C907F3D14F21DC
:10079000A1612168C90708D02168C90705D021686F
:1007A000C90702D02168C907F3D15521A161216889
:1007B000C90708D02168C90705D02168C90702D038
:1007C0002168C907F3D1A0612068C00708D020685C
:1007D000C00705D02068C00702D02068C007F3D149
:1007E0000D20A0612068C00708D02068C00705D090
:1007F0002068C00702D02068C007F3D10A20A0619A
:1008000021680020C90700D192E22168C90700D100
:100810008EE22168C90700D18AE22168C907EFD1B9
:1008200086E2C04600000F4018120F4000F8FFFF9C
:10083000F8FF00F007000100089110406079FEFF0A
:100840002868800700D521E1D848FFF7DAFCD84AAC
:100850003868D84908406921014339603068D64971
:100860000840D64908433060686A000700D0A7E115
:10087000686A000700D0A3E1686A000700D09FE122
:10088000686A000700D09BE1686A000700D097E122
:10089000686A000700D093E1686A000700D08FE122
:1008A000686A000700D08BE1686A000700D087E122
:1008B000686A000700D083E1686A000700D07FE122
:1008C000686A000700D07BE1686A000700D077E122
:1008D000686A000700D073E1686A000700D06FE122
:1008E000686A000700D06BE1686A000700D067E122
:1008F000686A000700D063E1686A000700D05FE122
:10090000686A000700D05BE1686A000700D057E121
:10091000686A000700D053E1686A000700D04FE121
:10092000686A000700D04BE1686A000700D047E121
:10093000193299D15220A0612068C00708D02068E0
:10094000C00705D02068C00702D02068C007F3D1D7
:100950005820A0612068C00708D02068C00705D0D3
:100960002068C00702D02068C007F3D12020A06112
:100970002068C00708D02068C00705D02068C007DD
:1009800002D02068C007F3D15420A0612168C907B4
:1009900008D02168C90705D02168C90702D021689D
:1009A000C907F3D14921A1612168C90708D021688D
:1009B000C90705D02168C90702D02168C907F3D14A
:1009C0004D21A1612168C90708D02168C90705D058
:1009D0002168C90702D02168C907F3D14521A16167
:1009E0002168C90708D02168C90705D02168C9074F
:1009F00002D02168C907F3D14F21A1612168C9073D
:100A000008D02168C90705D02168C90702D021682C
:100A1000C907F3D15521A1612168C90708D0216810
:100A2000C90705D02168C90702D02168C907F3D1D9
:100A3000A0612068C00708D02068C00705D02068E2
:100A4000C00702D02068C007F3D10D20A061206844
:100A5000C00708D02068C00705D02068C00702D0B2
:100A60002068C007F3D10A20A06121680020C907CF
:100A700000D15DE12168C90700D159E12168C907AA
:100A800000D155E12168C907EFD151E15420A0619F
:100A90002068C00708D02068C00705D02068C007BC
:100AA00002D02068C007F3D15820A0612068C00799
:100AB00008D02068C00705D02068C00702D0206891
:100AC000C007F3D12020A0612068C00708D02068AB
:100AD000C00705D02068C00702D02068C007F3D146
:100AE0004520A0612068C00708D02068C00705D055
:100AF0002068C00702D02068C007F3D15220A0614F
:100B00002168C90708D02168C90705D02168C9072D
:100B100002D02168C907F3D1A0612168C90708D0B4
:100B20002168C90705D02168C90702D02168C90713
:100B3000F3D14F21A1612168C90708D02168C907F5
:100B400005D02168C90702D02168C907F3D1A06187
:100B50002068C00708D02068C00705D02068C007FB
:100B600002D02068C007F3D10D20A0612068C00723
:100B700008D02068C00705D02068C00702D02068D0
:100B8000C007F3D10A20A06121680020C90700D165
:100B9000CEE02168C90700D1CAE02168C90700D1A9
:100BA000C6E02168C907EFD1C2E0C04610270000A7
:100BB0006079FEFF00F8FFFFF8FF00F0070001007A
:100BC00068685221A1612168C90708D02168C90756
:100BD00005D02168C90702D02168C907F3D1452192
:100BE000A1612168C90708D02168C90705D021681B
:100BF000C90702D02168C907F3D15321A161216837
:100C0000C90708D02168C90705D02168C90702D0E3
:100C10002168C907F3D15521A1612168C90708D00E
:100C20002168C90705D02168C90702D02168C90712
:100C3000F3D14C21A1612168C90708D02168C907F7
:100C400005D02168C90702D02168C907F3D1542112
:100C5000A1612168C90708D02168C90705D02168AA
:100C6000C90702D02168C907F3D12021A1612268F8
:100C7000D20708D02268D20705D02268D20702D056
:100C80002268D207F3D13D22A2612268D20708D0A0
:100C90002268D20705D02268D20702D02268D20784
:100CA000F3D1A1612168C90708D02168C90705D01F
:100CB0002168C90702D02168C907F3D102A900221F
:100CC0008A700F2202401C4B9A5C4A700206120F77
:100CD0009A5C03E04A78491C002A0DD0A261226880
:100CE000D207F7D02268D207F4D02268D207F1D019
:100CF0002268D207F3D1EDE70D21A1612168C90770
:100D000008D02168C90705D02168C90702D0216829
:100D1000C907F3D10A21A1612168C90708D0216858
:100D2000C90705D02168C90702D02168C907F3D1D6
:100D3000C0B203B0F0BDC046720D0000FFF772FBF9
:100D4000FFF79CFBFFF7C8FA054C02E02046FFF7CF
:100D500058FAFFF73BFC0028F8D0FFF7AFFAF5E7A9
:100D6000006A1800080004000000180000000030AD
:100D7000000030313233343536373839414243445C
:100D80004546000000000000980D000000002020F3
:080D90006001000028010000D1
:04000005000000C136
:00000001FF
